:020000040800F2
:10000000A0450020A9010008D50A00081D07000826
:10001000D10A0008470500081B1100080000000075
:10002000000000000000000000000000B70B000806
:100030009705000800000000D70A0008CF0F00084D
:10004000C3010008C3010008C3010008C301000880
:10005000C3010008C3010008C3010008C301000870
:10006000C3010008C3010008C3010008C301000860
:10007000C3010008C3010008C3010008C301000850
:10008000C3010008C3010008C3010008C301000840
:10009000C3010008C3010008C3010008C301000830
:1000A000C3010008C3010008C3010008C301000820
:1000B000C3010008C3010008C3010008C301000810
:1000C000C3010008C3010008C3010008C301000800
:1000D000C3010008C3010008C3010008C3010008F0
:1000E000C3010008C3010008C301000800000000AC
:1000F0000000000000000000000000000000000000
:10010000C301000800F002F800F03FF80AA090E8F0
:10011000000C82448344AAF10107DA4501D100F0C2
:1001200034F8AFF2090EBAE80F0013F0010F18BF50
:10013000FB1A43F001031847142300003423000086
:10014000103A24BF78C878C1FAD8520724BF30C803
:1001500030C144BF04680C607047000000230024D5
:1001600000250026103A28BF78C1FBD8520728BFC7
:1001700030C148BF0B607047642900F07D800020CB
:1001800070471FB51FBD10B510BD00F0A2F9114694
:10019000FFF7F7FF01F0CCFC00F0C0F903B4FFF764
:1001A000F2FF03BC00F0C8F909488047094800473E
:1001B000FEE7FEE7FEE7FEE7FEE7FEE7FEE7FEE717
:1001C000FEE7FEE704480549054A064B7047000074
:1001D000D90F000805010008A0050020A045002057
:1001E000A0250020A02500200FB41CB5074B06AAAF
:1001F0007B4469460090059800F021F9002069468B
:1002000000F030F91CBC5DF814FB00007102000026
:100210002DE9F0410E460446002020622046E168A8
:10022000884730B3252805D0D4E901219047206ABA
:10023000401CF2E7E168204600278847050018D0F7
:10024000A5F14100192802D820354FF40067324645
:10025000294620462760FFF78FFF40B1012804D0D0
:10026000F61D26F007060836D8E7361DD6E72846DD
:10027000DAE7206ABDE8F0812DE9F0410646002466
:1002800010687529314616A510D0AFF300800028FC
:1002900002DA404213A507E031688A0701D512A5AA
:1002A00002E0490704D511A5012401E0AFF3008065
:1002B00000210A2206F1240709E0B0FBF2FCB0FBA2
:1002C000F2F302FB1C00303078541846491C002819
:1002D000F3D123462A463046BDE8F04100F050B83D
:1002E000000000002D0000002B0000002000000096
:1002F000032A40F2308010F0030C00F0158011F852
:10030000013BBCF1020F624498BF11F801CB00F829
:10031000013B38BF11F8013BA2F1040298BF00F87D
:1003200001CB38BF00F8013B11F0030300F09F80C0
:10033000083AC0F0088051F8043B083A51F804CB61
:10034000A0E80810F5E7121D5CBF51F8043B40F827
:10035000043BAFF30080D20724BF11F8013B11F832
:1003600001CB48BF11F8012B24BF00F8013B00F876
:1003700001CB48BF00F8012B7047704770477047AA
:100380002DE9F0470D4699469246044600F12408AF
:100390000168880604D5E06921F01001216000E0C1
:1003A0000120A84201DD471B00E00027A1697A195E
:1003B00002EB0900081AA0612078C00602D420468A
:1003C000AFF30080002608E0D4E901211AF8060006
:1003D0009047206A401C761C20624E45F4DB207852
:1003E000C0060AD52046AFF3008006E0D4E901211B
:1003F00030209047206A401C2062381EA7F1010778
:10040000F4DC07E0D4E9012118F805009047206AE0
:10041000401C2062281EA5F10105F3DC2046AFF345
:1004200000802078000602D50220BDE8F087012078
:10043000FBE7000001694A1C02610878704700B5BB
:100440008FB0CDE901310021059105497944CDE90D
:10045000031011466846FFF7DBFE0FB000BD000039
:10046000E5FFFFFF0A6802F8010B0A60704710B54C
:10047000203AC0F00B80B1E81850203AA0E818509C
:10048000B1E81850A0E81850BFF4F5AF5FEA027C5D
:1004900024BFB1E81850A0E8185044BF18C918C0CC
:1004A000BDE810405FEA827C24BF51F8043B40F86D
:1004B000043B08BF7047D20728BF31F8023B48BF52
:1004C00011F8012B28BF20F8023B48BF00F8012B90
:1004D0007047754600F02CF8AE4605006946534655
:1004E00020F00700854618B020B5FFF76BFEBDE889
:1004F00020404FF000064FF000074FF000084FF08B
:10050000000B21F00701AC46ACE8C009ACE8C0091B
:10051000ACE8C009ACE8C0098D46704710B5044688
:10052000AFF300802046BDE81040FFF737BE000063
:10053000004870473C05002001491820ABBEFEE78B
:1005400026000200704700BFFEE730B502460023D8
:10055000541802E012F8015B2B44A242FAD3D8B23D
:1005600030BDF0B505460E460024AF1905E015F87C
:10057000011BA0B200F0B8FD0446BD42F7D3A0B203
:10058000002100F0B1FD04462046002100F0ACFD42
:1005900004462046F0BD70470349086000BF024989
:1005A00009680029FBD1704730000020044800682A
:1005B00020B103480068401E0149086070470000F0
:1005C000300000202DE9F0470024002501260227F5
:1005D0004FF004084FF0010901F064FC054624487F
:1005E000006828402249096888423BD001F0CEFBD0
:1005F00004461F48006828431D49086001F074FB49
:1006000081461B480068401C28B119480068C04357
:1006100001F0F4FB814604F00700072813D004F032
:10062000010000B9002604F0020000B9002704F020
:10063000040008B94FF0000808F0FF02F9B2F0B268
:10064000082301F0ABFBB9F1000F07D109A000F0BE
:1006500031FC104800F02EFC01F054F80EA000F020
:1006600029FC02E017A000F025FCBDE8F08700009F
:100670000C00002057726974652050726F746563B6
:1006800074696F6E2064697361626C65642E2E2ECE
:100690000D0A0000B42200084572726F723A2046BB
:1006A0006C61736820777269746520756E70726F03
:1006B00074656374696F6E206661696C65642E2E63
:1006C0002E0D0A00466C617368206D656D6F72793E
:1006D000206E6F742077726974652070726F746514
:1006E000637465640D0A000001B500200099C1F330
:1006F00009021AB1012202EB912000E0880A08BD2C
:1007000008B50020009004E0684600F035FB00B119
:1007100000E0F9E700BF9DF8000008BD00BFFEE75C
:1007200010B51E4C40F2026001F054FC40F20E6025
:1007300001F050FC631502221821194801F052F90A
:10074000231502220421164801F04CF9204601F03D
:100750001DFD4FF4E131204601F0C6FC002120468A
:1007600001F0A0FD0021204601F08CFD0021204673
:1007700001F078FD0021204601F06CFD00212046AB
:1007800001F060FD0421204601F074FD082120469F
:1007900001F080FD204601F041FD10BD0038014010
:1007A00000080140F0B5144A00250024002320E091
:1007B000B1FBF2F6303606F0FF0C2E466D1C00F849
:1007C00006C0B1FBF2F602FB16110A26B2FBF6F2E6
:1007D0006E1E865D302E01D1012600E000260CB988
:1007E000012700E000273E400EB1002500E0641C18
:1007F0005B1C0A2BDCD3F0BD00CA9A3B10B510215C
:10080000014801F0EDF810BD000C014010B51021B9
:10081000014801F0E3F810BD000C014010B51021B3
:10082000054801F035F9044614B9FFF7E7FF01E088
:10083000FFF7ECFF10BD0000000C014010B540F2C6
:10084000036001F0C7FB102302221946034801F0A0
:10085000C9F81021014801F0C1F810BD000C014099
:1008600000242D480068A0F10060800A2B49086030
:100870000846017801208840401EC043284908608E
:1008800001F010FB2649096808402549096888429B
:1008900003D001202349086002E0002021490860BC
:1008A00038E021A000F006FB2FA000F003FB3BA0E6
:1008B00000F000FB46A000F0FDFA1A48006810B1F5
:1008C0004BA000F0F7FA53A000F0F4FAFFF718FF7E
:1008D0000446312C02D100F077F91BE0322C02D112
:1008E00000F06CFA16E0332C01D100F00BFF342C31
:1008F00006D10C480068012802D1FFF763FE09E029
:100900000848006818B953A000F0D4FA02E060A0CB
:1009100000F0D0FAC5E70000180000200800002011
:100920000C000020100000200D0A3D3D3D3D3D3DE6
:100930003D3D3D3D3D3D3D3D3D3D3D3D204D6169A4
:100940006E204D656E75203D3D3D3D3D3D3D3D3D3F
:100950003D3D3D3D3D3D3D3D3D3D3D3D3D3D3D3DC7
:100960003D3D3D0D0A000000312E2020446F776E82
:100970006C6F616420496D61676520546F207468F5
:100980006520474433324631307820496E746572B1
:100990006E616C20466C6173680D0A00322E202057
:1009A00055706C6F616420496D6167652046726F98
:1009B0006D207468652047443332463130782049D1
:1009C0006E7465726E616C20466C6173680D0A000E
:1009D000332E202045786563757465205468652042
:1009E0004E65772050726F6772616D200D0A0000AE
:1009F000342E202044697361626C65207468652020
:100A000077726974652070726F74656374696F6E54
:100A10000D0A00003D3D3D3D3D3D3D3D3D3D3D3DE3
:100A20003D3D3D3D3D3D3D3D3D3D3D3D3D3D3D3DF6
:100A30003D3D3D3D3D3D3D3D3D3D3D3D3D3D3D3DE6
:100A40003D3D3D3D3D3D3D3D3D3D3D3D3D3D0D0A39
:100A500000000000496E76616C6964204E756D621D
:100A600065722021203D3D3E20546865206E756DE5
:100A70006265722073686F756C64206265206569B9
:100A80007468657220312C2032206F7220330D0083
:100A9000496E76616C6964204E756D6265722021C5
:100AA000203D3D3E20546865206E756D6265722064
:100AB00073686F756C64206265206569746865721F
:100AC00020312C20322C2033206F7220340D000076
:100AD00000BFFEE77047704770B505460C4606E05C
:100AE000284600F049F9012801D1002070BD201EE0
:100AF000A4F10104F4D1401EF8E72DE9F8430446BF
:100B00000D4690460020286041466846FFF7E4FF06
:100B100018B14FF0FF30BDE8F8839DF800001828A9
:100B200013D006DC012809D0022809D0042820D1DE
:100B300009E041281AD061281BD118E080271BE06A
:100B40004FF4806718E00020E5E741466846FFF76C
:100B5000C3FF40B99DF80000182804D14FF0FF30C2
:100B600028600020D7E74FF0FF30D4E700BF012016
:100B7000D1E74FF0FF30CEE700BF9DF800002070B6
:100B8000012609E0A0194146FFF7A6FF10B14FF07A
:100B9000FF30C0E7701C86B2781D8642F2DB6178B8
:100BA000A07880F0FF00814202D04FF0FF30B2E722
:100BB0002F600020AFE7704710B50446204600F0D4
:100BC000EDF8002010BD000010B588B021A207CAC2
:100BD00005AB07C3002422A000F06CF92F4800F0F9
:100BE0001DFB044622462EA16846FFF7FDFA684623
:100BF00000F060F9002C16DD2C4800F05BF92C4861
:100C000000F058F9214605A8FFF7CCFD29A000F017
:100C100051F905A800F04EF929A000F04BF92BA0DE
:100C200000F048F914E0601C18B92EA000F042F959
:100C30000EE0A01C18B93BA000F03CF908E0E01C55
:100C400018B93FA000F036F902E043A000F032F9F5
:100C500008B010BD202020202020202020200000CF
:100C600057616974696E6720666F722074686520C9
:100C700066696C6520746F2062652073656E7420F0
:100C80002E2E2E2028707265737320276127207402
:100C90006F2061626F7274290A0D00003C00002011
:100CA0000D0A73697A653D25640D0A00002300086A
:100CB0003C0400200A0D2053697A653A20000000A8
:100CC0002042797465730D0A000000002D2D2D2D32
:100CD0002D2D2D2D2D2D2D2D2D2D2D2D2D2D2D0A67
:100CE000000000000A0A0D54686520696D6167659F
:100CF0002073697A65206973206869676865722066
:100D00007468616E2074686520616C6C6F776564CF
:100D1000207370616365206D656D6F7279210A0DB6
:100D2000000000000A0A0D56657269666963617405
:100D3000696F6E206661696C6564210A0D000000B0
:100D40000D0A0A41626F72746564206279207573BE
:100D500065722E0A0D0000000A0D4661696C65641B
:100D600020746F20726563656976652074686520FC
:100D700066696C65210A0D0010B504460521064818
:100D800001F051FA012805D1034801F0F5F920706E
:100D9000012010BD0020FCE70038014010B50446DA
:100DA00000BF0721044801F03EFA0028F9D021468F
:100DB000014801F0E6F910BD0038014010B50024EB
:100DC0000DA000F077F8FFF79BFC43280FD14FF4FC
:100DD000E83217A11C4800F05DFB04461CB11BA0C3
:100DE00000F068F806E024A000F064F802E02BA010
:100DF00000F060F810BD00000A0A0D53656C6563D1
:100E00007420526563656976652046696C65202E9D
:100E10002E2E2028707265737320616E79206B65A9
:100E20007920746F2061626F7274290A0D000000CE
:100E300055706C6F61646564466C617368496D617F
:100E400067652E62696E0000003000080A0D457269
:100E5000726F72204F636375726564207768696C86
:100E600065205472616E736D697474696E67204693
:100E7000696C650A0D0000000A0D46696C65205416
:100E80007261736D6974746564205375636365730F
:100E90007366756C6C79200A0D0000000D0A0A411A
:100EA000626F7274656420627920757365722E0AB0
:100EB0000D00000010B5044603E02078FFF76EFF38
:100EC000641C20780028F8D110BD70B502460C468D
:100ED0000021002500231078302843D1507878284D
:100EE00002D0507858283DD1907808B9002070BDC4
:100EF000022130E0505C10B9236001252DE0505CE8
:100F0000412802DB505C46280BDD505C612802DB87
:100F1000505C662805DD505C302819DB505C3928B0
:100F200016DC505C302805DB505C392802DC505C54
:100F300030380AE0505C412805DB505C462802DC72
:100F4000505C373801E0505C573800EB031301E088
:100F5000002502E0491C0B29CCD300BF0B2934D358
:100F6000002532E000212AE0505C10B92360012501
:100F700027E0505C6B2802D0505C4B2804D119B19B
:100F80009B02236001251CE0505C6D2802D0505C60
:100F90004D2804D119B11B052360012511E0505CD7
:100FA000302809DB505C392806DC505C303803EB14
:100FB000830600EB460301E0002502E0491C0B29F3
:100FC000D2D300BF0B2900D3002528468FE710B5E8
:100FD00000F068F810BD000010B51448006840F03B
:100FE00001001249086008464068114908400F494D
:100FF0004860084600680F4908400C4908600846E8
:10100000006820F480200860084640680A490840CB
:1010100006494860084600680649084003490860D8
:101020004FF41F00886001F05BF810BD0010024013
:101030000C00FFE8FFFFF6FEFFFF00F730B5164893
:1010400000684FF47A72B0FBF2F1481EB0F1807F75
:1010500001D301201BE0481E4FF0E02250615017E1
:101060000F22002804DB13071C0E0C4B1C5406E057
:1010700013071D0E0A4B00F00F04241F1D5500BF5F
:1010800000204FF0E022906107201061002008B19D
:1010900000BFFEE730BD00003800002000E400E0A3
:1010A00018ED00E010B50F480088401C0D4908807D
:1010B000FFF77CFA0B480088012802D1FFF7AEFB4E
:1010C0000EE008480088C92802D1FFF7A7FB07E017
:1010D00004480088B0F5C87F02DD0020014908807F
:1010E00010BD00003400002010B503460C46194620
:1010F00044F4807200BF4900520002F4807000B1D5
:10110000491C01F4803010B141F22100414002F449
:1011100080300028EFD088B210BD00BFFEE72DE977
:10112000FE4305460F469046012028700020687057
:10113000FF20A870002404E0395DE01C2954601CE5
:1011400084B2385D08B1FF2CF6DD0021E01C295483
:101150006846D8F80010FFF725FB0026201D84B252
:1011600008E03046711C8EB21DF800202046611C3C
:101170008CB22A541DF806000028F2D1264603E05E
:101180000020A855701C86B2832EF9DBBDE8FE83D3
:10119000F0B5074614461D46B5F5806F02D34FF4EF
:1011A000806C01E04FF0800C63469D4201D2AC465A
:1011B00000E09C461FFA8CF2B3F5806F04D14FF02B
:1011C000020C81F800C003E04FF0010C81F800C070
:1011D0004C706FEA040C81F802C03E46032007E021
:1011E00016F801CB01F800C000F1010C1FFA8CF0D9
:1011F00002F1030C6045F3DB9A420EDC1FFA8CF01F
:1012000007E04FF01A0C01F800C000F1010C1FFAC2
:101210008CF003F1030C6045F3DBF0BD2DE9F04FDA
:10122000ADF22C4D0646002001908B488B4908609A
:101230004FF0000B4FF0000A0020029000BF002783
:1012400000200390B04600BF4FF4801204A909A803
:10125000FFF753FC10B101287ED1D1E04FF0000A16
:101260000498B0F1FF3F01D070B907E00620FFF706
:10127000A3FC00200DF22C4DBDE8F08F0620FFF7F7
:101280009BFC01200390B9E09DF82500F9B288424B
:1012900003D01520FFF790FCAFE0002F6ED19DF832
:1012A0002700002863D000250DF1270405E014F87D
:1012B000012B28466D1C6A490A54207808B1FF2D7D
:1012C000F5DD002228466D1C65490A540025641C82
:1012D00005E014F8012B28466D1C05A90A54207856
:1012E000202801D0102DF4DB002228466D1C05A912
:1012F0000A5401A905A8FFF7E8FD0198B0F5003FE1
:1013000008DB1820FFF758FC1820FFF755FC4FF0BA
:10131000FF30AFE70198FFF7E7F952490860002076
:101320005149086010E04D490968504A12884E4BF7
:101330001B6802FB031000F059FA4D4908704A4837
:101340000068401C484908604748006845490968EA
:10135000884205D2464800E05BE000780028E2D0F1
:101360000620FFF729FC4320FFF726FC42E0062079
:10137000FFF722FC0120039083463FE00DF1270197
:101380004046049AFEF7B4FF3A4806604FF0000961
:1013900023E03848006801683048006800F0BEFA71
:1013A0002E4800680068334909680968884208D0F7
:1013B0001820FFF701FC1820FFF7FEFB6FF001007B
:1013C00058E726480068001D24490860294800683D
:1013D000001D2849086009F104090498814506DACE
:1013E0001D49019808441D4909688842D1D8062042
:1013F000FFF7E2FB7F1C0120029000BF00BF1CE052
:101400001820FFF7D9FB1820FFF7D6FB6FF002007A
:1014100030E70298002801DD0AF1010ABAF1050F50
:1014200007DD1820FFF7C8FB1820FFF7C5FB0020D9
:1014300020E74320FFF7C0FB00BF00BF0398002850
:101440003FF402AF00BF00BFBBF1000F3FF4F7AEA7
:1014500000BF00BF01980DE7003000081800002011
:101460003C04002024000020200000201C0000205C
:10147000280000202C00002070B505460E460024F0
:1014800004E0285DFFF798FB601C84B2B442F8DBEF
:1014900070BD00002DE9F74FADF5A36D0020019060
:1014A000814600248046002606E0DDF81C05805DAC
:1014B00004A98855701CC6B2FF2EF6DB01200190EE
:1014C0000DF5A46204A944A8FFF729FE00BF8321FB
:1014D00044A8FFF7D1FF019860B180210DF21310ED
:1014E000FFF73FF805462812FFF766FBE8B2FFF763
:1014F00063FB08E080210DF21310FFF726F803903C
:101500000398FFF759FB42F2107102A8FFF7E4FAC3
:1015100030B99DF80800062803D14FF0010800E01B
:10152000641CB8F1000F01D10A2CD0D30A2C04D3CB
:10153000E0B20DF2245DBDE8F08FDDF818A5DDF80E
:1015400020954FF0010B59E00BF0FF024B4644A9E8
:101550005046FFF71DFE4FF0000800208DF80800F0
:10156000002400BFB9F5806F02D34FF4806700E01C
:101570008027F81C81B244A8FFF77EFF019860B174
:1015800039460DF21310FEF7ECFF05462812FFF75F
:1015900013FBE8B2FFF710FB08E039460DF2131019
:1015A000FEF7D3FF03900398FFF706FB544902A808
:1015B000FFF792FAC0B99DF80800062814D14FF041
:1015C0000108B9450CD9BA44A9EB0709BBF1740F5E
:1015D00001D1FF20ADE70BF101001FFA80FB04E011
:1015E000BA444FF0000900E0641CB8F1000F01D1CB
:1015F0000A2CB7D30A2C01D3E0B29AE7B9F1000F55
:10160000A2D14FF0000800208DF80800002400BF90
:101610000420FFF7D1FA42F2107102A8FFF75CFA3A
:1016200030B99DF80800062802D14FF0010800E00B
:10163000641CB8F1000F01D10A2CE9D30A2C01D3A4
:10164000E0B276E74FF0000800208DF80800002493
:1016500001208DF8100100208DF81101FF208DF878
:101660001201032604E0002044A98855701CC6B26C
:10167000832EF8DB00BF832144A8FFF7FDFE802105
:101680000DF21310FEF76DFF05462812FFF794FACE
:10169000E8B2FFF791FA42F2107102A8FFF71CFAC4
:1016A00030B99DF80800062803D14FF0010800E08A
:1016B000641CB8F1000F01D10A2CDCD30A2C01D331
:1016C000E0B236E700BF0420FFF776FA42F210716D
:1016D00002A8FFF701FA30B99DF80800062802D1E8
:1016E0004FF0010800E0641CB8F1000F01D10A2C92
:1016F000E9D30A2C01D3E0B21BE7002019E7000070
:10170000A086010000BF00BF00BFBFF34F8F00BF26
:1017100000BF00BF0948006800F4E06008490843C2
:10172000001D0649086000BF00BF00BFBFF34F8F18
:1017300000BF00BF00BF00BF00BFFDE70CED00E031
:101740000000FA0500B50346012200BF00F00CF8C6
:1017500002465B1E012A01D1002BF7D1012A00D1DC
:101760000422104600BD000000200A49C96801F0AB
:10177000010109B101200CE00649C96801F010011E
:1017800009B1032005E00349C96801F0040101B172
:10179000022070470020024000B50346012200BF2E
:1017A00000F00CF802465B1E012A01D1002BF7D194
:1017B000012A00D10422104600BD000000200A4981
:1017C000C96C01F0010109B101200CE00649C96CA6
:1017D00001F0100109B1032005E00349C96C01F0D3
:1017E000040101B1022070470020024030B50546D7
:1017F00036480088B0F5007F48D9354885421ED26A
:101800004FF47020FFF79EFF0446002C5BD1314857
:10181000006940F002002F490861084645610069EF
:1018200040F0400008614FF47020FFF78BFF044642
:101830002848006920F002002649086143E04FF47F
:101840007020FFF7A9FF0446002C3CD12148006D11
:1018500040F002001F49086508464565C06900F070
:10186000020008B1084645611A48006D40F040008A
:10187000184908654FF47020FFF78EFF044615489D
:10188000006D20F00200134908651CE04FF4702041
:10189000FFF758FF0446B4B90E48006940F0020053
:1018A0000C49086108464561006940F04000086144
:1018B0004FF47020FFF746FF04460648006920F009
:1018C000020004490861204630BD0000E0F7FF1F18
:1018D000FFFF0708002002400C48006900F080006C
:1018E00020B10B48094948600A4848600A48008806
:1018F000B0F5007F09D90548006D00F0800020B1E7
:101900000348024948640348486470470020024085
:1019100023016745AB89EFCDE0F7FF1F70B50446A3
:101920000D4600262A480088B0F5007F35D92948A1
:10193000844219D24FF47020FFF704FF0646002EB0
:1019400043D12548006940F0010023490861256022
:101950004FF47020FFF7F6FE06461F48006920F09E
:1019600001001D49086130E04FF47020FFF714FFBB
:10197000064656BB1848006D40F001001649086540
:1019800025604FF47020FFF707FF06461248006DF0
:1019900020F001001049086517E04FF47020FFF7B0
:1019A000D1FE06468EB90C48006940F001000A4994
:1019B000086125604FF47020FFF7C4FE0646064814
:1019C000006920F0010004490861304670BD000044
:1019D000E0F7FF1FFFFF070800200240416170474A
:1019E00001617047F0B5044616460025002201F05B
:1019F0000F0501F0100707B1354300201EE0012755
:101A000087401F40C7B122684FEA800C0F2707FAB2
:101A10000CF7BA43870005FA07F73A43282904D19F
:101A2000012787401F40676105E0482903D101274E
:101A300087401F4027612260471CB8B20828DED3C8
:101A4000082022E0012787401F40E7B16268A0F12B
:101A500008074FEA870C0F2707FA0CF7BA43A0F1E3
:101A60000807BF0005FA07F73A43282904D10127E0
:101A700087401F40676105E0482903D1012787405F
:101A80001F4027616260471CB8B21028DAD3F0BD4E
:101A90000246D068084008B1012070470020FCE7EA
:101AA000F0B50A46002300240021002500F000467E
:101AB000B6F1004F02D11D4EF16901E01B4E716875
:101AC000C0F3034583B200F44016B6F5401F08D1B9
:101AD00021F07061154E766826F07066134F7E60B7
:101AE00012E000F48016B6F5801F06D1032606FA30
:101AF00005F4A14341F0706106E0460D360103FA9A
:101B000006F6B14341F0706122B1460D360103FA89
:101B100006F6314300F00046B6F1004F02D1034E05
:101B2000F16101E0014E7160F0BD00000000014074
:101B300008B5002500244FF4A06000F0CBF84FF466
:101B4000C06000F047FA01213048FFF7A9FFFEF717
:101B5000E7FDFEF773FEFFF771FAFFF7BDFE2CA05D
:101B6000FFF7A8F90CE06846FFF706F928B19DF8E1
:101B70000000032801D1012407E00120FEF70CFD3D
:101B80002846691C8DB2C828EDDB00BF002C21D08F
:101B900027A0FFF78FF93148FFF78CF93048FFF79E
:101BA00089F93048FFF786F92D48FFF783F92EA011
:101BB000FFF780F931480068FFF77CF930A0FFF7A4
:101BC00079F91BA0FFF776F933A0FFF773F9FEF759
:101BD00047FE19E032A0FFF76DF93A4800683A492C
:101BE0000840B0F1005F0FD13648406837490860BF
:101BF00008460068364908603249086880F308885A
:101C000000BF33480068804700BFFEE70002300095
:101C10003D6764333220626F6F746C6F616465720C
:101C20002073746172743D3D3D3D3D3D0D0A0000E1
:101C30000D0A3D3D3D3D3D3D3D3D3D3D3D3D3D3D37
:101C40003D3D3D3D3D3D3D3D3D3D3D3D3D3D3D3DC4
:101C50003D3D3D3D3D3D3D3D3D3D0000BC2300083B
:101C600074230008042400080D0A3D2020202020B1
:101C700042792044617A6869200000001400002045
:101C80002020202020202020202020202020202054
:101C900020202020203D00000D0A0D0A0000000039
:101CA0003D206764333220626F6F746C6F616465CE
:101CB00072206175746F20626F6F743D3D3D3D3DD4
:101CC0003D0D0A00003000080000FE2F0400002037
:101CD0000000002002490143024A116070470000E1
:101CE0000000FA050CED00E030B5A5254FF470209A
:101CF000FFF728FD044600F03DF800B1BB2554BBBA
:101D00001A48006940F02000184908610846006937
:101D100040F0400008614FF47020FFF713FD0446C7
:101D2000D4B91248006920F0200010490861084623
:101D3000006940F0100008610D4805804FF47020E4
:101D4000FFF700FD0446042C0ED00848006920F07F
:101D500010000649086107E0042C05D0034800691B
:101D600020F0100001490861204630BD00200240EB
:101D700000F8FF1F00200449C96901F0020109B100
:101D8000012000E000207047002002400248C069A6
:101D9000C0F3870070470000002002402DE9F043A7
:101DA00005460E461746984600244FF47020FFF76C
:101DB000C9FC0446DCB90F48006940F010000D4929
:101DC000086148EA05003043384340F0F0090A480A
:101DD000A0F800904FF47020FFF7B4FC0446042CE8
:101DE00005D00448006920F010000249086120462F
:101DF000BDE8F0830020024002F8FF1F2DE9F04308
:101E000004464FF47020FFF79DFC0546E443E6B21C
:101E1000C4F30727C4F307484FEA1469DDBB1F4822
:101E2000006940F010001D490861FF2E06D01C48D3
:101E300006804FF47020FFF785FC05464DB9FF2F53
:101E400007D01748801C07804FF47020FFF77AFCFA
:101E500005465DB9B8F1FF0F08D01148001DA0F884
:101E600000804FF47020FFF76DFC05465DB9B9F1B5
:101E7000FF0F08D00A48801DA0F800904FF4702092
:101E8000FFF760FC0546042D05D00448006920F0EA
:101E90001000024908612846BDE8F0830020024096
:101EA00008F8FF1F0148006A704700000020024048
:101EB0002DE9F04F8BB00746002009903EA090E836
:101EC000004CC068CDE905BECDF810A007900FF218
:101ED000EC0ADAE9000ACDE9020A0FF2E00ADAE9CF
:101EE000000ACDE9000A38484068C0F381000A9032
:101EF0000A9820B1012804D0022829D103E03349EF
:101F000028E0324926E03048406800F48038B8F5CF
:101F1000803F09D12D4C2C48406800F40039B9F5B8
:101F2000003F02D1641000E0294C27484068C0F30C
:101F300083422548406800F0006008B142F010027A
:101F40000F2A01D2921C00E0521C04FB02F101E0B6
:101F50001E4900BF00BF1C484068C0F3031504A819
:101F6000465D21FA06F318484068C0F3022502A82E
:101F7000465D23FA06FC14484068C0F3C2251DF8EC
:101F8000056023FA06F0089037B1012F06D0022F22
:101F900006D0032F0AD106E0099108E0099306E074
:101FA000CDF824C003E00898099000E000BF00BF0E
:101FB00009980BB0BDE8F08F0000000000000000A1
:101FC00001020304060708090010024000127A000B
:101FD00000093D00064A02EB9011096800F01F035A
:101FE00001229A401143024B03EB9012116070479B
:101FF00000100240064A02EB9011096800F01F032E
:1020000001229A409143024B03EB901211607047FA
:1020100000100240064A02EB9011096800F01F030D
:1020200001229A401143024B03EB9012116070475A
:102030000010024000200021264A126842F00102EE
:10204000244B1A6000BF401C224A126802F00201B1
:1020500011B9B0F5A06FF6D11E4A126802F0020263
:102060000AB900BFFEE71B4A52681A4B5A601A466B
:1020700052685A601A46526842F480625A601A46A0
:102080005268154B1A40134B5A601A465268134B4C
:102090001A43104B5A601A46126842F080721A6056
:1020A00000BF0C4A126802F00072002AF9D0094AF7
:1020B000526822F00302074B5A601A46526842F0F7
:1020C00002025A6000BF034A526802F00802002A66
:1020D000F9D0704700100240FFFFC3F70000280846
:1020E00010B5FFF7A7FF10BD2DE9F04704460D46D8
:1020F0000027B846B94600261D49601A8C421CD0FC
:1021000006DC1C48204470B1B0F5806F1FD10FE091
:10211000B0F5806F16D0B0F56C4F18D10320FFF7E3
:10212000C7FE074614E00220FFF7C2FE07460FE095
:102130000220FFF7BDFE07460AE00220FFF7B8FEC7
:10214000074605E00220FFF7B3FE074600E000BFA8
:1021500000BF07EB5500B0FBF5F64FF6F07006EA4E
:10216000000806F00F0948EA0900A060BDE8F08702
:10217000004C004000BCFFBF01464868C0F30800A7
:102180007047C1F3080242607047000010B5044672
:102190002049601A8C4228D006DC1F48204490B1A8
:1021A000B0F5806F33D117E0B0F5806F26D0B0F571
:1021B0006C4F2CD140F20E30FFF72CFF40F20E3066
:1021C000FFF718FF24E040F21140FFF723FF40F231
:1021D0001140FFF70FFF1BE040F21240FFF71AFF1C
:1021E00040F21240FFF706FF12E040F21340FFF703
:1021F00011FF40F21340FFF7FDFE09E040F21440EA
:10220000FFF708FF40F21440FFF7F4FE00E000BFC4
:1022100000BF10BD004C004000BCFFBFC16841F4CE
:102220000051C160704710B5024602EB9110006882
:1022300001F01F040123A340184008B1012010BD84
:102240000020FCE70A460021416921F40071114396
:10225000416170470A460021416921F480711143B0
:1022600041617047C26822F4C062C260C2680A431A
:10227000C26070470A460021C16821F00401114381
:10228000C1607047026922F44052026102690A4348
:10229000026170470A460021C16821F0080111431C
:1022A000C1607047C26822F48052C260C2680A43AB
:1022B000C26070472E2E2E616E64206120537973A8
:1022C00074656D2052657365742077696C6C20624B
:1022D000652067656E65726174656420746F207235
:1022E000652D6C6F616420746865206E6577206F62
:1022F0007074696F6E2062797465730D0A00000056
:102300000A0A0D2050726F6772616D6D696E6720E9
:10231000436F6D706C65746564205375636365739A
:102320007366756C6C79210A0D2D2D2D2D2D2D2D9B
:102330002D2D2D2D2D2D2D2D2D2D2D2D2D2D2D2DCD
:102340002D2D2D2D2D2D2D2D2D0D0A204E616D6540
:102350003A2000004275696C6474696D65203A46E4
:10236000656220203320323032332030393A343223
:102370003A3336000D0A3D20202020202020202046
:10238000202020202020202020202020202020204D
:10239000202020202020202020202020202020203D
:1023A000202020202020202020202020202020202D
:1023B0002020202020202020203D00000D0A3D204C
:1023C0002020202020202020202028432920434F87
:1023D0005059524947485420323032332048754EC4
:1023E000616E48544A432042592064617A686920EA
:1023F00020202020202020202020202020202020DD
:10240000203D00000D0A3D2020202020496E2D4156
:1024100070706C69636174696F6E2050726F67725F
:10242000616D6D696E67204170706C69636174697C
:102430006F6E20202856657273696F6E20332E33BD
:102440002E31292020202020203D00006C2400086F
:10245000000000203C00000040010008A824000803
:102460003C000020644500005C0100080000000002
:10247000000000000000000000000000000000005C
:102480005423000800300008000400000000000091
:10249000000000000000000000000000000000003C
:0824A0000000000000F36F06CC
:0400000508000105E9
:00000001FF
