:020000040800F2
:10000000B824002019010008F1070008FD030008CA
:10001000ED07000827020008C30F000800000000D9
:100020000000000000000000000000009D09000822
:100030007702000800000000210800085B0E00089D
:1000400033010008330100083301000833010008C0
:1000500033010008330100083301000833010008B0
:1000600033010008330100083301000833010008A0
:100070003301000833010008330100083301000890
:100080003301000833010008330100083301000880
:100090003301000833010008330100083301000870
:1000A0003301000833010008330100083301000860
:1000B0003301000833010008330100083301000850
:1000C0003301000833010008330100083301000840
:1000D0003301000833010008330100083301000830
:1000E000330100083301000833010008000000005C
:1000F0000000000000000000000000000000000000
:1001000033010008DFF80CD000F05CF8004800472D
:10011000C1210008B824002006488047064800474F
:10012000FEE7FEE7FEE7FEE7FEE7FEE7FEE7FEE7A7
:10013000FEE7FEE7650E00080501000840EA01033E
:100140009B0703D009E008C9121F08C0042AFAD28D
:1001500003E011F8013B00F8013B521EF9D2704751
:100160002DE9F05F0546002092469B4688460646EC
:10017000814640241BE0284641464746224600F07F
:1001800042F853465A46C01A914110D311461846B8
:10019000224600F029F82D1A67EB01084F46224647
:1001A0000120002100F020F817EB00094E41201E2D
:1001B000A4F10104DFDC484631462A464346BDE847
:1001C000F09F0000064C074D06E0E06840F0010398
:1001D00094E8070098471034AC42F6D3FFF796FF37
:1001E000502C0008702C0008202A04DB203A00FA6A
:1001F00002F1002070479140C2F1200320FA03F37E
:10020000194390407047202A04DB203A21FA02F07B
:100210000021704721FA02F3D040C2F12002914040
:1002200008431946704700BFFEE730B50246002379
:10023000541802E012F8015B2B44A242FAD3D8B260
:1002400030BDF0B505460E460024AF1905E015F89F
:10025000011BA0B200F08EFE0446BD42F7D3A0B24F
:10026000002100F087FE04462046002100F082FEB7
:1002700004462046F0BD70470349086000BF0249AC
:1002800009680029FBD17047380000200448006845
:1002900020B103480068401E014908607047000013
:1002A000380000202DE9F047002400250126022710
:1002B0004FF004084FF0010902F0F6F90546244812
:1002C000006828402249096888423BD002F060F962
:1002D00004461F48006828431D49086002F006F9DB
:1002E00081461B480068401C28B119480068C0437B
:1002F00002F086F9814604F00700072813D004F0C5
:10030000010000B9002604F0020000B9002704F043
:10031000040008B94FF0000808F0FF02F9B2F0B28B
:10032000082302F03DF9B9F1000F07D109A000F050
:1003300007FD104800F004FD01F064FA0EA000F083
:10034000FFFC02E017A000F0FBFCBDE8F087000016
:100350000C00002057726974652050726F746563D9
:1003600074696F6E2064697361626C65642E2E2EF1
:100370000D0A0000B82A00084572726F723A2046D2
:100380006C61736820777269746520756E70726F26
:1003900074656374696F6E206661696C65642E2E86
:1003A0002E0D0A00466C617368206D656D6F727961
:1003B000206E6F742077726974652070726F746537
:1003C000637465640D0A000001B500200099C1F353
:1003D00009021AB1012202EB912000E0880A08BD4F
:1003E00008B50020009004E0684600F0EDFB00B185
:1003F00000E0F9E700BF9DF8000008BD00BFFEE780
:1004000010B5044640F2026002F0E6F92848294996
:1004100008602948844211D1086040F2117002F04E
:10042000DBF9042302221821244801F0DFFD082310
:1004300002220421214801F0D9FD11E040F20E60B2
:1004400002F0CAF94FF40073022218211B4801F090
:10045000CDFD4FF4806302220421184801F0C6FD4F
:10046000204602F095FA4FF4E131204602F03EFAC0
:100470000021204602F018FB0021204602F004FB78
:100480000021204602F0F0FA0021204602F0E4FAB2
:100490000021204602F0D8FA0421204602F0ECFAAE
:1004A0000821204602F0F8FA204602F0B9FA10BD01
:1004B0000038014040000020004400400008014096
:1004C000F0B5144A00250024002320E0B1FBF2F629
:1004D000303606F0FF0C2E466D1C00F806C0B1FB4E
:1004E000F2F602FB16110A26B2FBF6F26E1E865DCC
:1004F000302E01D1012600E000260CB9012700E0D2
:1005000000273E400EB1002500E0641C5B1C0A2B56
:10051000DCD3F0BD00CA9A3B10B51021014801F0B0
:1005200063FD10BD000C014010B51021014801F021
:1005300059FD10BD000C014010B51021054801F017
:10054000ABFD044614B9FFF7E7FF01E0FFF7ECFF4E
:1005500010BD0000000C014010B540F2036002F035
:100560003BF9102302221946034801F03FFD1021F8
:10057000014801F037FD10BD000C014000242D485A
:100580000068A0F10060800A2B49086008460178E5
:1005900001208840401EC0432849086002F084F8CA
:1005A00026490968084025490968884203D0012086
:1005B0002349086002E000202149086038E021A0BA
:1005C00000F0BEFB2FA000F0BBFB3BA000F0B8FB8F
:1005D00046A000F0B5FB1A48006810B14BA000F02F
:1005E000AFFB53A000F0ACFBFFF7FAFE0446312C42
:1005F00002D100F0DBF91BE0322C02D100F024FB29
:1006000016E0332C01D101F0FDF8342C06D10C4852
:100610000068012802D1FFF745FE09E0084800689C
:1006200018B953A000F08CFB02E060A000F088FB3A
:10063000C5E7000020000020080000200C0000207A
:10064000100000200D0A3D3D3D3D3D3D3D3D3D3D01
:100650003D3D3D3D3D3D3D3D204D61696E204D653B
:100660006E75203D3D3D3D3D3D3D3D3D3D3D3D3D6E
:100670003D3D3D3D3D3D3D3D3D3D3D3D3D3D3D0DDA
:100680000A000000312E2020446F776E6C6F616489
:1006900020496D61676520546F2074686520474468
:1006A00033324631307820496E7465726E616C2049
:1006B000466C6173680D0A00322E202055706C6FF5
:1006C000616420496D6167652046726F6D207468B2
:1006D0006520474433324631307820496E74657264
:1006E0006E616C20466C6173680D0A00332E202009
:1006F0004578656375746520546865204E6577207C
:1007000050726F6772616D200D0A0000342E202038
:1007100044697361626C65207468652077726974DE
:10072000652070726F74656374696F6E0D0A0000E6
:100730003D3D3D3D3D3D3D3D3D3D3D3D3D3D3D3DE9
:100740003D3D3D3D3D3D3D3D3D3D3D3D3D3D3D3DD9
:100750003D3D3D3D3D3D3D3D3D3D3D3D3D3D3D3DC9
:100760003D3D3D3D3D3D3D3D3D3D0D0A0000000010
:10077000496E76616C6964204E756D6265722021E8
:10078000203D3D3E20546865206E756D6265722087
:1007900073686F756C642062652065697468657242
:1007A00020312C2032206F7220330D00496E76618B
:1007B0006C6964204E756D6265722021203D3D3E5E
:1007C00020546865206E756D6265722073686F7560
:1007D0006C642062652065697468657220312C2024
:1007E000322C2033206F7220340D000000BFFEE752
:1007F0007047000010B540F2046001F0EDFF0F23D8
:1008000002221021054801F0F1FB0421034801F008
:10081000E9FB0B21014801F0E7FB10BD001001408E
:10082000704770B505460C4606E0284600F0B8F95A
:10083000012801D1002070BD201EA4F10104F4D1D3
:10084000401EF8E72DE9F84304460E469046002086
:10085000306041466846FFF7E4FF30B130A000F059
:10086000ADFF4FF0FF30BDE8F8839DF80000182879
:1008700013D006DC012809D0022809D0042825D18C
:1008800009E041281AD0612820D118E0802720E013
:100890004FF480671DE00020E5E741466846FFF71A
:1008A000C0FF40B99DF80000182804D14FF0FF3078
:1008B00030600020D7E74FF0FF30D4E700BF9DF84D
:1008C00000101DA000F07AFF0120CCE74FF0FF30B0
:1008D000C9E700BF9DF80000207001250DE06019F8
:1008E0004146FFF79EFF30B129461AA000F066FF8F
:1008F0004FF0FF30B7E7681C85B2781D8542EEDB0C
:100900006178A07880F0FF00814206D0617819A05C
:1009100000F054FF4FF0FF30A5E737600020A2E75A
:10092000526563656976655F427974652074696DA7
:10093000656F75740D0A0000526563656976655FC1
:100940005061636B65742063203D202523780D0A78
:1009500000000000666F7220526563656976655F0E
:1009600042797465206572726F722069203D20257E
:10097000640D0A006572726F723A20646174615B83
:100980005041434B45545F5345514E4F5F494E4490
:1009900045585D203D202523780D0A00704710B58D
:1009A0000446204600F02EF9002010BD00B589B0A5
:1009B0002CA207CA06AB07C32DA000F0C1F93B4823
:1009C00000F080FB3A49086008463AA1026801A895
:1009D00000F004FF01A800F0B3F9354800680028D2
:1009E00022DD374800F0ACF9364800F0A9F930486C
:1009F000016806A8FFF764FD33A000F0A1F906A87E
:100A000000F09EF933A000F09BF935A000F098F9B2
:100A1000364800F095F936A000F092F935A000F0C4
:100A20008FF9002009B000BD21480068401C18B9AA
:100A300036A000F085F912E01D480068801C18B946
:100A400042A000F07DF90AE019480068C01C18B9FE
:100A500045A000F075F902E049A000F071F901200D
:100A6000E0E700002020202020202020202000007F
:100A700057616974696E6720666F722074686520BB
:100A800066696C6520746F2062652073656E7420E2
:100A90002E2E2E20287072657373202761272074F4
:100AA0006F2061626F7274290A0D000050000020EF
:100AB000140000200D0A73697A653D25640D0A0053
:100AC000042B0008720400200A0D2053697A653A4D
:100AD000200000002042797465730D0A00000000B8
:100AE0006D643573756D203A2000000050040020BD
:100AF000200D0A002D2D2D2D2D2D2D2D2D2D2D2DA3
:100B00002D2D2D2D2D2D2D0A000000000A0A0D542B
:100B1000686520696D6167652073697A652069730E
:100B200020686967686572207468616E2074686502
:100B300020616C6C6F776564207370616365206DF4
:100B4000656D6F7279210A0D000000000A0A0D56CA
:100B50006572696669636174696F6E206661696C4C
:100B60006564210A0D0000000D0A0A41626F72746B
:100B7000656420627920757365722E0A0D0000008D
:100B80000A0D4661696C656420746F207265636547
:100B9000697665207468652066696C65210A0D00B8
:100BA00010B5044605210748006801F03EFF012802
:100BB00006D10448006801F0E1FE2070012010BD5C
:100BC0000020FCE74000002010B504460B480068F8
:100BD0000B4988420DD00521094801F026FF012864
:100BE00005D1074801F0CAFE2070012010BD002089
:100BF000FCE72046FFF7D4FFF8E7000040000020A4
:100C00000038014010B5044600BF072105480068C0
:100C100001F00BFF0028F8D021460248006801F0DF
:100C2000B2FE10BD4000002010B5044600BF0721F1
:100C3000044801F0FAFE0028F9D02146014801F0ED
:100C4000A2FE10BD0038014010B500240DA000F038
:100C500077F800F0A8F943280FD14FF4504217A1BC
:100C60001C4800F073FC04461CB11BA000F068F89F
:100C700006E024A000F064F802E02BA000F060F889
:100C800010BD00000A0A0D53656C6563742052653F
:100C900063656976652046696C65202E2E2E2028B6
:100CA000707265737320616E79206B657920746F43
:100CB0002061626F7274290A0D00000055706C6F1C
:100CC00061646564466C617368496D6167652E6235
:100CD000696E0000006000080A0D4572726F722094
:100CE0004F636375726564207768696C6520547220
:100CF000616E736D697474696E672046696C650A0C
:100D00000D0000000A0D46696C6520547261736D18
:100D10006974746564205375636365737366756C79
:100D20006C79200A0D0000000D0A0A41626F72748E
:100D3000656420627920757365722E0A0D000000CB
:100D400010B5044603E02078FFF76EFF641C20789E
:100D50000028F8D110BD70B502460C4600210025D0
:100D600000231078302843D15078782802D050786A
:100D700058283DD1907808B9002070BD022130E09C
:100D8000505C10B9236001252DE0505C412802DB46
:100D9000505C46280BDD505C612802DB505C662805
:100DA00005DD505C302819DB505C392816DC505CBE
:100DB000302805DB505C392802DC505C30380AE012
:100DC000505C412805DB505C462802DC505C37381B
:100DD00001E0505C573800EB031301E0002502E00E
:100DE000491C0B29CCD300BF0B2934D3002532E09A
:100DF00000212AE0505C10B92360012527E0505CF7
:100E00006B2802D0505C4B2804D119B19B0223609F
:100E100001251CE0505C6D2802D0505C4D2804D1A7
:100E200019B11B052360012511E0505C302809DB56
:100E3000505C392806DC505C303803EB830600EB4D
:100E4000460301E0002502E0491C0B29D2D300BF74
:100E50000B2900D3002528468FE710B500F068F86D
:100E600010BD000010B51448006840F001001249A0
:100E7000086008464068114908400F494860084624
:100E800000680F4908400C4908600846006820F4D3
:100E900080200860084640680A49084006494860C2
:100EA0000846006806490840034908604FF41F00DF
:100EB000886001F017FD10BD001002400C00FFE833
:100EC000FFFFF6FEFFFF00F730B5164800684FF44D
:100ED0007A72B0FBF2F1481EB0F1807F01D301209D
:100EE0001BE0481E4FF0E022506150170F220028EF
:100EF00004DB13071C0E0C4B1C5406E013071D0EDD
:100F00000A4B00F00F04241F1D5500BF00204FF0B6
:100F1000E022906107201061002008B100BFFEE7C9
:100F200030BD00004800002000E400E018ED00E0C3
:100F300010B50F480088401C0D490880FFF7A6F93E
:100F40000B480088012802D1FFF7F6FA0EE00848A6
:100F50000088C92802D1FFF7EFFA07E004480088AB
:100F6000B0F5C87F02DD00200149088010BD0000F7
:100F70003C00002010B503460C46194644F480722C
:100F800000BF4900520002F4807000B1491C01F416
:100F9000803010B141F22100414002F4803000283D
:100FA000EFD088B210BD08B50020009004E068467C
:100FB000FFF7F6FD00B100E0F9E700BF9DF8000083
:100FC00008BD00BFFEE72DE9FE4305460F469046EB
:100FD0000120287000206870FF20A870002404E021
:100FE000395DE01C2954601C84B2385D08B1402C86
:100FF000F6DB0021E01C29546846D8F80010FFF702
:101000005FFA0026201D84B208E03046711C8EB2C3
:101010001DF800202046611C8CB22A541DF80600E1
:101020000028F2D1264603E00020A855701C86B2A5
:10103000832EF9DBBDE8FE83F0B5074614461D4656
:10104000B5F5806F02D34FF4806C01E04FF0800C57
:1010500063469D4201D2AC4600E09C461FFA8CF2EA
:10106000B3F5806F04D14FF0020C81F800C003E0AB
:101070004FF0010C81F800C04C706FEA040C81F84D
:1010800002C03E46032007E016F801CB01F800C07D
:1010900000F1010C1FFA8CF002F1030C6045F3DB48
:1010A0009A420EDC1FFA8CF007E04FF01A0C01F8A0
:1010B00000C000F1010C1FFA8CF003F1030C604535
:1010C000F3DBF0BD2DE9F04FADF23C4D8146002041
:1010D0000590CD48039000200290CC48007818B1CC
:1010E000CB48CC49086002E0CB48CA490860C948EF
:1010F000006801904FF0000BD8460020069000BF1A
:101100000026002007904F4600BF4FF4801208A928
:101110000DA8FFF797FB10B1012879D126E14FF018
:1011200000080898B0F1FF3F01D070B907E0062031
:10113000FFF735FC00200DF23C4DBDE8F08F062096
:10114000FFF72DFC012007900EE19DF83500F1B26C
:10115000884209D09DF835103246B0A000F02EFB31
:101160001520FFF71CFCFEE0002E7DD19DF8370016
:1011700000287AD000240DF1370505E015F8012B81
:101180002046641CB5490A54287808B1402CF5DB88
:1011900000222046641CB1490A5400246D1C05E05D
:1011A00015F8012B2046641C09A90A542878202828
:1011B00001D0102CF4DB00222046641C09A90A543B
:1011C00005A909A8FFF7C7FD00246D1C0AE0285DEA
:1011D000A34908550398005D295D884201D001208C
:1011E0000290641C287820B10398007808B1202C64
:1011F000EDDB029868B91820FFF7D1FB1820FFF744
:10120000CEFB294697A000F0D9FA4FF0FF3092E7C5
:10121000B8E00020924908550598B0F5504F08D322
:101220001820FFF7BCFB1820FFF7B9FB4FF0FF3089
:1012300081E70598FFF7C8F88E49086000208E49BD
:10124000086010E0734909688C4A12888A4B1B6851
:1012500002FB031000F0C6FD89490870864800684B
:10126000401C8549086001E018E010E082480068F1
:1012700080490968884203D2814800780028E1D07B
:101280000620FFF78CFB4320FFF789FB68E0062070
:10129000FFF785FB01200790834665E00DF13701DC
:1012A0003846089AFEF74AFF1EBB38686FF31000F5
:1012B000B0F1005F0BD01820FFF771FB1820FFF78B
:1012C0006EFB70A000F07AFA6FF0010033E77868E7
:1012D0006FF30B00504988420BD01820FFF75FFBDB
:1012E0001820FFF75CFB6EA000F068FA6FF00100B9
:1012F00021E77248C0F800904FF0000A23E06F48E1
:10130000006801684348006800F004FE4148006836
:1013100000686A4909680968884208D01820FFF700
:101320003EFB1820FFF73BFB6FF0010003E7394855
:101330000068001D3749086060480068001D5F496B
:1013400008600AF1040A0898824506DA05990198AE
:101350000844304909688842D1D80620FFF71FFBAE
:10136000761C0120069000BF00BF37E054A000F0BB
:1013700025FA1820FFF713FB1820FFF710FB6FF07A
:101380000200D8E653A000F019FA0698002810DDF4
:1013900008F10108B8F1050F0BDD414655A000F03A
:1013A0000DFA1820FFF7FBFA1820FFF7F8FA0020D3
:1013B000C1E604A8FFF708FC60B19DF810006128A1
:1013C00008D11820FFF7EBFA1820FFF7E8FA6FF0C2
:1013D0000200B0E64320FFF7E2FA00BF00BF079823
:1013E00000283FF492AE47A000F0E8F900BF00BF2C
:1013F000BBF1000F3FF484AE47A000F0DFF900BF5F
:1014000000BF059897E60000005E00081C00002061
:101410000030010820000020006000087061636B4C
:1014200065745F646174615B5041434B45545F5325
:1014300045514E4F5F494E4445585D203D20252380
:1014400078207061636B6574735F7265636569763C
:101450006564203D2025640D0A0000007204002010
:10146000500400206D64352073616D65203D20259A
:10147000730A00002C000020280000202400002017
:1014800030000020646F776E2066696C652065729D
:10149000726F7220312C61626F72740D0A0000004D
:1014A000646F776E2066696C65206572726F72205A
:1014B000322C61626F72740D0A000000340000204B
:1014C000313A2061626F727420627920757365729F
:1014D0000D0A00002D313A2074696D656F75742016
:1014E0006F72207061636B6574206572726F720D2C
:1014F0000A0000006572726F7273203D2025640D32
:101500000A00000066696C655F646F6E6520627238
:1015100065616B0D0A00000073657373696F6E5F20
:10152000646F6E6520627265616B0D0A00000000D9
:1015300070B505460E46002404E0285DFFF72FFA3B
:10154000601C84B2B442F8DB70BD00002DE9F74F97
:10155000ADF58B6D00200190814600248046002669
:1015600006E0DDF85C04805D04A98855701CC6B2F5
:101570003F2EF6DB012001900DF58C6204A914A822
:10158000FFF721FD00BF832114A8FFF7D1FF0198C9
:1015900060B180210DF15300FEF753FE054628127D
:1015A000FFF7FDF9E8B2FFF7FAF908E080210DF145
:1015B0005300FEF73AFE03900398FFF7F0F942F26A
:1015C000107102A8FFF72DF930B99DF80800062820
:1015D00003D14FF0010800E0641CB8F1000F01D105
:1015E0000A2CD0D30A2C04D3E0B20DF2644DBDE82E
:1015F000F08FDDF858A4DDF860944FF0010B59E04E
:101600000BF0FF024B4614A95046FFF715FD4FF0B3
:10161000000800208DF80800002400BFB9F5806F95
:1016200002D34FF4806700E08027F81C81B214A831
:10163000FFF77EFF019860B139460DF15300FEF7C8
:1016400000FE05462812FFF7AAF9E8B2FFF7A7F94E
:1016500008E039460DF15300FEF7E7FD03900398CB
:10166000FFF79DF9544902A8FFF7DBF8C0B99DF8D0
:101670000800062814D14FF00108B9450CD9BA4426
:10168000A9EB0709BBF1340F01D1FF20ADE70BF146
:1016900001001FFA80FB04E0BA444FF0000900E0AB
:1016A000641CB8F1000F01D10A2CB7D30A2C01D366
:1016B000E0B29AE7B9F1000FA2D14FF00008002084
:1016C0008DF80800002400BF0420FFF768F942F2FB
:1016D000107102A8FFF7A5F830B99DF80800062898
:1016E00002D14FF0010800E0641CB8F1000F01D1F5
:1016F0000A2CE9D30A2C01D3E0B276E74FF00008B8
:1017000000208DF80800002401208DF850000020F2
:101710008DF85100FF208DF85200032604E00020D0
:1017200014A98855701CC6B2832EF8DB00BF832134
:1017300014A8FFF7FDFE80210DF15300FEF781FD97
:1017400005462812FFF72BF9E8B2FFF728F942F215
:10175000107102A8FFF765F830B99DF80800062857
:1017600003D14FF0010800E0641CB8F1000F01D173
:101770000A2CDCD30A2C01D3E0B236E700BF0420E8
:10178000FFF70DF942F2107102A8FFF74AF830B9DD
:101790009DF80800062802D14FF0010800E0641C03
:1017A000B8F1000F01D10A2CE9D30A2C01D3E0B221
:1017B0001BE7002019E70000A08601000FB4054BCD
:1017C00010B503A9044A029800F04CF810BC5DF86B
:1017D00014FB0000D51F00084C0000200FB4084B7C
:1017E00010B504A902AA039800F03CF8044602A927
:1017F000002000F097F9204610BC5DF814FB0000B3
:10180000251B000800BF00BF00BFBFF34F8F00BF04
:1018100000BF00BF0948006800F4E06008490843C1
:10182000001D0649086000BF00BF00BFBFF34F8F17
:1018300000BF00BF00BF00BF00BFFDE70CED00E030
:101840000000FA0502E008C8121F08C1002AFAD1F8
:1018500070477047002001E001C1121F002AFBD130
:10186000704700002DE9FF4F8DB09B460F460446A0
:10187000002606E025280BD05A460F999047641C95
:10188000761C20780028F5D111B03046BDE8F08FE5
:101890000025A8460122984900E0054314F8013FBD
:1018A000203B02FA03F00842F7D120782E2817D106
:1018B00014F8010F45F004052A280ED06FF02F020E
:1018C0002078A0F1300109290AD808EB880102EB41
:1018D000410100EB0108641CF2E757F8048B641C1B
:1018E00020786C280DD004DC4C2812D06A2811D145
:1018F00004E074280DD07A280CD10AE045F40015D4
:1019000007E0617845F48015814202D1641C05F539
:101910008015641C2278692A45D008DC002AB3D0DF
:10192000582A69D0632A10D0642A08D13BE0702A73
:1019300067D0732A13D0752A5CD0782A5CD0104601
:101940005A460F999047761CD3E017F8040B8DF890
:10195000000000208DF80100E946012003E057F85F
:10196000049B4FF0FF3069074FF0000501D40AE0F7
:101970006D1C45450DDA8542FADB19F80510002982
:10198000F6D106E06D1C8542FCDB19F80510002934
:10199000F8D12E4404E019F8010B5A460F999047EC
:1019A0006D1EF8D2A5E00A200021CDE90801C5F39B
:1019B000025002280DD001CFC117031E71F10003A0
:1019C0000DDA4FF0000CD0EB0C006CEB01012D2375
:1019D00008E0FF1D27F00707F7E80201EDE72B05F8
:1019E00004D52B238DF8283001233BE0EB0739D0B9
:1019F0002023F7E70A2000E010200021CDE90801AC
:101A000007E01020002145F00405CDE908014FF062
:101A10000808C5F3025002280FD001CF00214FF073
:101A2000000A2B071FD5702A0DD0DDE908C38CF002
:101A3000100C5CEA030C0CD015E0FF1D27F0070723
:101A4000F7E80201EBE740228DF828204FF0010A69
:101A50000BE050EA010306D030238DF828308DF8D2
:101A6000292002239A46582A04D024A20DF12009E5
:101A70000B9209E026A2F9E7DDE90823FEF770FBE7
:101A80000B9B9B5C09F8013D50EA0102F4D1ADEBE0
:101A9000090020300890680701D44FF00108089928
:101AA000884502DDA8EB010000E00020804600250B
:101AB00006E00AA85A46405D0F9990476D1C761CB7
:101AC0005545F6DB04E030205A460F999047761CC6
:101AD000B8F10001A8F10108F5DC05E019F8010BE7
:101AE0005A460F999047761C0899481E089000297D
:101AF000F4DC641CC5E600000928010030313233F3
:101B00003435363738396162636465660000000039
:101B10003031323334353637383941424344454623
:101B2000000000000A68531C0B6010707047000032
:101B30002DE9F0470027DFF8E080DFF8E0A0B946A4
:101B400000F0C6F9D8F800006FF31000B0F1005FA4
:101B500007D033A0FFF732FE00F0A4FC0220BDE85E
:101B6000F087D8F804006FF30B002C49884206D0A8
:101B70002FA0FFF723FE00F095FC0220EFE730488E
:101B80000068B0F5806F02DD2D48006802E02D4846
:101B9000006840680546B5F5806F02D3B5F5504F33
:101BA00001D94FF450452A46294627A0FFF706FEE3
:101BB0002AE0002411E018F809002F4908550846CA
:101BC000005DFF2804D1781CC7B2102F01DB07E0AD
:101BD0000027601C84B209F10109B4F5806FEADBCB
:101BE00000BF504600F0FEF8002608E02248815968
:101BF000504600F08FF90AF1040A301D86B2A64261
:101C0000F4DB102F00DB01E0A945D2D300BF00F0C8
:101C100049FC0020A3E70000003001080060000834
:101C20006E6F74207570646174650D0A00000000A9
:101C30006E6F742075706461746520330D0A000046
:101C40001400002044000020666C6173685F646FBC
:101C5000776E6C6F61645F636F7079746F5F6170D2
:101C6000702073697A65203D20252378202F2F204E
:101C700025640D0A000000005000002000B5034656
:101C8000012200BF00F00CF802465B1E012A01D1C0
:101C9000002BF7D1012A00D10422104600BD00001C
:101CA00000200A49C96801F0010109B101200CE0D6
:101CB0000649C96801F0100109B1032005E0034994
:101CC000C96801F0040101B1022070470020024000
:101CD00000B50346012200BF00F00CF802465B1E6F
:101CE000012A01D1002BF7D1012A00D1042210468C
:101CF00000BD000000200A49C96C01F0010109B1D2
:101D000001200CE00649C96C01F0100109B1032063
:101D100005E00349C96C01F0040101B102207047DC
:101D20000020024070B504460D4600262A4800886F
:101D3000B0F5007F35D22948844219D24FF4702083
:101D4000FFF79CFF0646002E43D12548006940F06E
:101D500001002349086125804FF47020FFF78EFFB2
:101D600006461F48006920F001001D49086130E067
:101D70004FF47020FFF7ACFF064656BB1848006DC5
:101D800040F001001649086525804FF47020FFF7E8
:101D90009FFF06461248006D20F0010010490865BB
:101DA00017E04FF47020FFF769FF06468EB90C4824
:101DB000006940F001000A49086125804FF4702055
:101DC000FFF75CFF06460648006920F00100044961
:101DD0000861304670BD0000E0F7FF1FFFFF0708F5
:101DE0000020024030B5054636480088B0F5007F37
:101DF00048D9354885421ED24FF47020FFF73EFF88
:101E00000446002C5BD13148006940F002002F49A4
:101E1000086108464561006940F0400008614FF4E0
:101E20007020FFF72BFF04462848006920F00200CD
:101E30002649086143E04FF47020FFF749FF04464C
:101E4000002C3CD12148006D40F002001F4908657C
:101E500008464565C06900F0020008B108464561C2
:101E60001A48006D40F04000184908654FF4702092
:101E7000FFF72EFF04461548006D20F002001349BD
:101E800008651CE04FF47020FFF7F8FE0446B4B973
:101E90000E48006940F002000C490861084645619F
:101EA000006940F0400008614FF47020FFF7E6FE43
:101EB00004460648006920F00200044908612046F3
:101EC00030BD0000E0F7FF1FFFFF070800200240C1
:101ED0000C48006900F0800020B10B4809494860B7
:101EE0000A4848600A480088B0F5007F09D90548CB
:101EF000006D00F0800020B10348024948640348A7
:101F0000486470470020024023016745AB89EFCD4C
:101F1000E0F7FF1F70B504460D4600262A480088EA
:101F2000B0F5007F35D92948844219D24FF470208A
:101F3000FFF7A4FE0646002E43D12548006940F075
:101F400001002349086125604FF47020FFF796FED9
:101F500006461F48006920F001001D49086130E075
:101F60004FF47020FFF7B4FE064656BB1848006DCC
:101F700040F001001649086525604FF47020FFF716
:101F8000A7FE06461248006D20F0010010490865C2
:101F900017E04FF47020FFF771FE06468EB90C482B
:101FA000006940F001000A49086125604FF4702083
:101FB000FFF764FE06460648006920F00100044968
:101FC0000861304670BD0000E0F7FF1FFFFF070803
:101FD0000020024070B504460D46E0B2FEF724FE34
:101FE000204670BD4161704701617047F0B50446FD
:101FF00016460025002201F00F0501F0100707B179
:10200000354300201EE0012787401F40C7B12268EA
:102010004FEA800C0F2707FA0CF7BA43870005FA3E
:1020200007F73A43282904D1012787401F406761F9
:1020300005E0482903D1012787401F40276122601E
:10204000471CB8B20828DED3082022E001278740C9
:102050001F40E7B16268A0F108074FEA870C0F271D
:1020600007FA0CF7BA43A0F10807BF0005FA07F713
:102070003A43282904D1012787401F40676105E0C2
:10208000482903D1012787401F4027616260471C10
:10209000B8B21028DAD3F0BD0246D068084008B1C3
:1020A000012070470020FCE7F0B50A460023002419
:1020B0000021002500F00046B6F1004F02D11D4E70
:1020C000F16901E01B4E7168C0F3034583B200F46F
:1020D0004016B6F5401F08D121F07061154E7668A4
:1020E00026F07066134F7E6012E000F48016B6F59D
:1020F000801F06D1032606FA05F4A14341F0706162
:1021000006E0460D360103FA06F6B14341F0706170
:1021100022B1460D360103FA06F6314300F00046BF
:10212000B6F1004F02D1034EF16101E0014E716042
:10213000F0BD00000000014010B50748006840886D
:102140004FF6FF71884204D004A0FEF7F9FD01208C
:1021500010BD0020FCE70000440000203D69735FD3
:102160006D63755F6E6565645F757064617465202D
:1021700031203D3D3D3D0D0A0000000010B50748EF
:10218000006800884FF6FF71884204D104A0FEF772
:10219000D7FD012010BD0020FCE700004400002016
:1021A0003D69735F6D63755F6E6565645F757064CF
:1021B0006174652031203D3D3D3D0D0A0000000069
:1021C00008B5002500244FF4A06000F085F94FF415
:1021D000C06000F001FB01214548FFF765FFFEF7F5
:1021E00009FB4448FEF70CF9FEF7B6F9FEF76CFE62
:1021F000FFF76EFEFFF7A0FF88B13FA0FEF7A0FD3E
:102200004648FEF7FDF8012045490870FEF7CEFB71
:10221000002847D100F00EF9FFF78AFC42E0FFF7F3
:10222000ADFF28B13FA0FEF78BFDFFF781FC39E041
:1022300045A0FEF785FD0CE06846FEF7C5FC28B119
:102240009DF80000032801D1012407E00120FEF7DA
:1022500013F82846691C8DB2C828EDDB00BF002C9E
:1022600020D041A0FEF76CFD4A48FEF769FD4A48C0
:10227000FEF766FD4948FEF763FD4748FEF760FD3F
:1022800047A0FEF75DFD4B480068FEF759FD4AA0E8
:10229000FEF756FD34A0FEF753FD4DA0FEF750FDAE
:1022A000FEF76CF94CA0FEF74BFD5448006854490A
:1022B0000840B0F1005F0FD15048406851490860B4
:1022C00008460068504908604C49086880F308884F
:1022D00000BF4D48006880474CA0FEF731FD06E086
:1022E0004AA0FEF72DFD4FF47A70FDF7C5FFF7E722
:1022F00000023000003801403D69735F6D63755F17
:102300006E6565645F646F776E6C6F6164203D3DE0
:10231000203120203D3D3D3D0D0A0000004400409D
:102320001C0000203D69735F6D63755F6E656564B9
:102330005F757064617465203D3D203120203D3D16
:102340003D3D0D0A000000003D6764333220626F9E
:102350006F746C6F616465722073746172743D3D5B
:102360003D3D3D3D0D0A00000D0A3D3D3D3D3D3DDD
:102370003D3D3D3D3D3D3D3D3D3D3D3D3D3D3D3D8D
:102380003D3D3D3D3D3D3D3D3D3D3D3D3D3D3D3D7D
:102390003D3D0000C02B0008782B0008082C0008E9
:1023A0000D0A3D202020202042792044617A68696E
:1023B00020000000180000202020202020202020C5
:1023C000202020202020202020202020203D000030
:1023D0000D0A0D0A000000003D20676433322062C0
:1023E0006F6F746C6F61646572206175746F2062C9
:1023F0006F6F743D3D3D3D3D3D0D0A00006000089E
:102400000000FE2F04000020000000203D20676433
:10241000333220626F6F746C6F6164657220657215
:10242000726F72207768696C6520313D3D3D3D3D9E
:102430003D0D0A0070B5104DFFF74AFD0FA0FEF7E5
:102440007FFC1548FFF7CEFC002407E01348015934
:102450002846FFF75FFD2D1D201DC4B2202CF5DBA3
:102460000F480068B0F5806F05DD0D4801680A4827
:10247000001DFFF74FFD70BD005E00083D6D6375E8
:102480005F646F776E6C6F61645F646F6E653D3D16
:102490003D3D0D0A00000000005C000850040020D3
:1024A0001400002010B505A0FEF74AFCFFF710FD50
:1024B000FF210848FFF736FC10BD00003D6D637535
:1024C0005F7570646174655F646F6E653D3D3D3D31
:1024D0000D0A0000005C000802490143024A116035
:1024E000704700000000FA050CED00E030B5A525AE
:1024F0004FF47020FFF7C2FB044600F03DF800B136
:10250000BB2554BB1A48006940F0200018490861F7
:102510000846006940F0400008614FF47020FFF762
:10252000ADFB0446D4B91248006920F020001049E0
:1025300008610846006940F0100008610D480580F8
:102540004FF47020FFF79AFB0446042C0ED0084885
:10255000006920F010000649086107E0042C05D04E
:102560000348006920F0100001490861204630BD91
:102570000020024000F8FF1F00200449C96901F053
:10258000020109B1012000E0002070470020024054
:102590000248C069C0F38700704700000020024075
:1025A0002DE9F04305460E461746984600244FF4A1
:1025B0007020FFF763FB0446DCB90F48006940F068
:1025C00010000D49086148EA05003043384340F0E7
:1025D000F0090A48A0F800904FF47020FFF74EFB76
:1025E0000446042C05D00448006920F0100002497C
:1025F00008612046BDE8F0830020024002F8FF1F7A
:102600002DE9F04304464FF47020FFF737FB0546F1
:10261000E443E6B2C4F30727C4F307484FEA14695A
:10262000DDBB1F48006940F010001D490861FF2E06
:1026300006D01C4806804FF47020FFF71FFB0546AC
:102640004DB9FF2F07D01748801C07804FF470202A
:10265000FFF714FB05465DB9B8F1FF0F08D011482C
:10266000001DA0F800804FF47020FFF707FB05461F
:102670005DB9B9F1FF0F08D00A48801DA0F800909D
:102680004FF47020FFF7FAFA0546042D05D00448F0
:10269000006920F01000024908612846BDE8F08377
:1026A0000020024008F8FF1F0148006A7047000040
:1026B000002002402DE9F04F8BB007460020099022
:1026C0003EA090E8004CC068CDE905BECDF810A052
:1026D00007900FF2EC0ADAE9000ACDE9020A0FF2DC
:1026E000E00ADAE9000ACDE9000A38484068C0F398
:1026F00081000A900A9820B1012804D0022829D12B
:1027000003E0334928E0324926E03048406800F4CD
:102710008038B8F5803F09D12D4C2C48406800F432
:102720000039B9F5003F02D1641000E0294C274878
:102730004068C0F383422548406800F0006008B15B
:1027400042F010020F2A01D2921C00E0521C04FB3E
:1027500002F101E01E4900BF00BF1C484068C0F301
:10276000031504A8465D21FA06F318484068C0F333
:10277000022502A8465D23FA06FC14484068C0F30F
:10278000C2251DF8056023FA06F0089037B1012F25
:1027900006D0022F06D0032F0AD106E0099108E0E7
:1027A000099306E0CDF824C003E00898099000E002
:1027B00000BF00BF09980BB0BDE8F08F000000001B
:1027C000000000000102030406070809001002408F
:1027D00000127A0000093D00064A02EB90110968D8
:1027E00000F01F0301229A401143024B03EB9012A9
:1027F0001160704700100240064A02EB9011096810
:1028000000F01F0301229A409143024B03EB901208
:102810001160704700100240064A02EB90110968EF
:1028200000F01F0301229A401143024B03EB901268
:10283000116070470010024000200021264A1268F3
:1028400042F00102244B1A6000BF401C224A126869
:1028500002F0020111B9B0F5A06FF6D11E4A12685C
:1028600002F002020AB900BFFEE71B4A52681A4B87
:102870005A601A4652685A601A46526842F4806298
:102880005A601A465268154B1A40134B5A601A4642
:102890005268134B1A43104B5A601A46126842F0A2
:1028A00080721A6000BF0C4A126802F00072002A9F
:1028B000F9D0094A526822F00302074B5A601A46BF
:1028C000526842F002025A6000BF034A526802F0A6
:1028D0000802002AF9D0704700100240FFFFC3F73A
:1028E0000000280810B5FFF7A7FF10BD2DE9F0473D
:1028F00004460D460027B846B94600261D49601A11
:102900008C421CD006DC1C48204470B1B0F5806FAE
:102910001FD10FE0B0F5806F16D0B0F56C4F18D115
:102920000320FFF7C7FE074614E00220FFF7C2FEB0
:1029300007460FE00220FFF7BDFE07460AE002202F
:10294000FFF7B8FE074605E00220FFF7B3FE074693
:1029500000E000BF00BF07EB5500B0FBF5F64FF6F7
:10296000F07006EA000806F00F0948EA0900A060C6
:10297000BDE8F087004C004000BCFFBF014648683E
:10298000C0F308007047C1F30802426070470000BE
:1029900010B504462049601A8C4228D006DC1F4836
:1029A000204490B1B0F5806F33D117E0B0F5806F5F
:1029B00026D0B0F56C4F2CD140F20E30FFF72CFF33
:1029C00040F20E30FFF718FF24E040F21140FFF70D
:1029D00023FF40F21140FFF70FFF1BE040F21240CF
:1029E000FFF71AFF40F21240FFF706FF12E040F235
:1029F0001340FFF711FF40F21340FFF7FDFE09E01F
:102A000040F21440FFF708FF40F21440FFF7F4FED5
:102A100000E000BF00BF10BD004C004000BCFFBF85
:102A2000C16841F40051C160704710B5024602EB25
:102A30009110006801F01F040123A340184008B161
:102A4000012010BD0020FCE70A460021416921F465
:102A500000711143416170470A460021416921F428
:102A60008071114341617047C26822F4C062C26044
:102A7000C2680A43C26070470A460021C16821F05B
:102A800004011143C1607047026922F4405202619F
:102A900002690A43026170470A460021C16821F0B9
:102AA00008011143C1607047C26822F48052C260BD
:102AB000C2680A43C26070472E2E2E616E64206188
:102AC0002053797374656D2052657365742077693E
:102AD0006C6C2062652067656E6572617465642048
:102AE000746F2072652D6C6F616420746865206E50
:102AF0006577206F7074696F6E2062797465730DED
:102B00000A0000000A0A0D2050726F6772616D6D35
:102B1000696E6720436F6D706C65746564205375D2
:102B2000636365737366756C6C79210A0D2D2D2DA9
:102B30002D2D2D2D2D2D2D2D2D2D2D2D2D2D2D2DC5
:102B40002D2D2D2D2D2D2D2D2D2D2D2D2D0D0A2005
:102B50004E616D653A2000004275696C6474696D60
:102B600065203A41707220313220323032332031C8
:102B7000393A35313A3339000D0A3D2020202020E2
:102B80002020202020202020202020202020202045
:102B90002020202020202020202020202020202035
:102BA0002020202020202020202020202020202025
:102BB000202020202020202020202020203D000038
:102BC0000D0A3D20202020202020202020202843E6
:102BD0002920434F5059524947485420323032330C
:102BE0002048754E616E48544A4320425920646122
:102BF0007A686920202020202020202020202020EA
:102C000020202020203D00000D0A3D2020202020F3
:102C1000496E2D4170706C69636174696F6E2050EC
:102C2000726F6772616D6D696E67204170706C695B
:102C3000636174696F6E20202856657273696F6EC8
:102C400020332E332E31292020202020203D00004B
:102C5000702C0008000000205000000044180008FC
:102C6000C02C000850000020682400005418000800
:102C70000000000000000000000000000000000054
:102C80000000000000000000582B000800000000B9
:102C900000600008000400000000000000000000C8
:102CA0000000000000000000000000000000000024
:102CB00000000000005C000800F36F060000000048
:0400000508000105E9
:00000001FF
