:020000040800F2
:100000004825002019010008F1070008FD03000839
:10001000ED070008270200087F0F0008000000001D
:100020000000000000000000000000009D09000822
:10003000770200080000000021080008170E0008E1
:1000400033010008330100083301000833010008C0
:1000500033010008330100083301000833010008B0
:1000600033010008330100083301000833010008A0
:100070003301000833010008330100083301000890
:100080003301000833010008330100083301000880
:100090003301000833010008330100083301000870
:1000A0003301000833010008330100083301000860
:1000B0003301000833010008330100083301000850
:1000C0003301000833010008330100083301000840
:1000D0003301000833010008330100083301000830
:1000E000330100083301000833010008000000005C
:1000F0000000000000000000000000000000000000
:1001000033010008DFF80CD000F05CF8004800472D
:10011000291C00084825002006488047064800475B
:10012000FEE7FEE7FEE7FEE7FEE7FEE7FEE7FEE7A7
:10013000FEE7FEE7210E00080501000840EA010382
:100140009B0703D009E008C9121F08C0042AFAD28D
:1001500003E011F8013B00F8013B521EF9D2704751
:100160002DE9F05F0546002092469B4688460646EC
:10017000814640241BE0284641464746224600F07F
:1001800042F853465A46C01A914110D311461846B8
:10019000224600F029F82D1A67EB01084F46224647
:1001A0000120002100F020F817EB00094E41201E2D
:1001B000A4F10104DFDC484631462A464346BDE847
:1001C000F09F0000064C074D06E0E06840F0010398
:1001D00094E8070098471034AC42F6D3FFF796FF37
:1001E000D0250008F0250008202A04DB203A00FA78
:1001F00002F1002070479140C2F1200320FA03F37E
:10020000194390407047202A04DB203A21FA02F07B
:100210000021704721FA02F3D040C2F12002914040
:1002200008431946704700BFFEE730B50246002379
:10023000541802E012F8015B2B44A242FAD3D8B260
:1002400030BDF0B505460E460024AF1905E015F89F
:10025000011BA0B200F06CFE0446BD42F7D3A0B271
:10026000002100F065FE04462046002100F060FEFB
:1002700004462046F0BD70470349086000BF0249AC
:1002800009680029FBD1704730000020044800684D
:1002900020B103480068401E014908607047000013
:1002A000300000202DE9F047002400250126022718
:1002B0004FF004084FF0010901F0B6FE054624484E
:1002C000006828402249096888423BD001F020FE9E
:1002D00004461F48006828431D49086001F0C6FD18
:1002E00081461B480068401C28B119480068C0437B
:1002F00001F046FE814604F00700072813D004F001
:10030000010000B9002604F0020000B9002704F043
:10031000040008B94FF0000808F0FF02F9B2F0B28B
:10032000082301F0FDFDB9F1000F07D109A000F08D
:10033000E5FC104800F0E2FC01F094F90EA000F09A
:10034000DDFC02E017A000F0D9FCBDE8F08700005A
:100350000C00002057726974652050726F746563D9
:1003600074696F6E2064697361626C65642E2E2EF1
:100370000D0A0000382400084572726F723A204658
:100380006C61736820777269746520756E70726F26
:1003900074656374696F6E206661696C65642E2E86
:1003A0002E0D0A00466C617368206D656D6F727961
:1003B000206E6F742077726974652070726F746537
:1003C000637465640D0A000001B500200099C1F353
:1003D00009021AB1012202EB912000E0880A08BD4F
:1003E00008B50020009004E0684600F0CBFB00B1A7
:1003F00000E0F9E700BF9DF8000008BD00BFFEE780
:1004000010B5044640F2026001F0A6FE28482949D2
:1004100008602948844211D1086040F2117001F04F
:100420009BFE042302221821244801F007FB082325
:1004300002220421214801F001FB11E040F20E608C
:1004400001F08AFE4FF40073022218211B4801F0CC
:10045000F5FA4FF4806302220421184801F0EEFA05
:10046000204601F055FF4FF4E131204601F0FEFE39
:100470000021204601F0D8FF0021204601F0C4FFF2
:100480000021204601F0B0FF0021204601F0A4FF2A
:100490000021204601F098FF0421204601F0ACFF26
:1004A0000821204601F0B8FF204601F079FF10BD79
:1004B000003801403800002000440040000801409E
:1004C000F0B5144A00250024002320E0B1FBF2F629
:1004D000303606F0FF0C2E466D1C00F806C0B1FB4E
:1004E000F2F602FB16110A26B2FBF6F26E1E865DCC
:1004F000302E01D1012600E000260CB9012700E0D2
:1005000000273E400EB1002500E0641C5B1C0A2B56
:10051000DCD3F0BD00CA9A3B10B51021014801F0B0
:100520008BFA10BD000C014010B51021014801F0FC
:1005300081FA10BD000C014010B51021054801F0F2
:10054000D3FA044614B9FFF7E7FF01E0FFF7ECFF29
:1005500010BD0000000C014010B540F2036001F036
:10056000FBFD102302221946034801F067FA10210F
:10057000014801F05FFA10BD000C014000242D4835
:100580000068A0F10060800A2B49086008460178E5
:1005900001208840401EC0432849086001F044FD06
:1005A00026490968084025490968884203D0012086
:1005B0002349086002E000202149086038E021A0BA
:1005C00000F09CFB2FA000F099FB3BA000F096FBF5
:1005D00046A000F093FB1A48006810B14BA000F051
:1005E0008DFB53A000F08AFBFFF7FAFE0446312C86
:1005F00002D100F0DBF91BE0322C02D100F002FB4B
:1006000016E0332C01D101F02DF8342C06D10C4822
:100610000068012802D1FFF745FE09E0084800689C
:1006200018B953A000F06AFB02E060A000F066FB7E
:10063000C5E7000018000020080000200C00002082
:10064000100000200D0A3D3D3D3D3D3D3D3D3D3D01
:100650003D3D3D3D3D3D3D3D204D61696E204D653B
:100660006E75203D3D3D3D3D3D3D3D3D3D3D3D3D6E
:100670003D3D3D3D3D3D3D3D3D3D3D3D3D3D3D0DDA
:100680000A000000312E2020446F776E6C6F616489
:1006900020496D61676520546F2074686520474468
:1006A00033324631307820496E7465726E616C2049
:1006B000466C6173680D0A00322E202055706C6FF5
:1006C000616420496D6167652046726F6D207468B2
:1006D0006520474433324631307820496E74657264
:1006E0006E616C20466C6173680D0A00332E202009
:1006F0004578656375746520546865204E6577207C
:1007000050726F6772616D200D0A0000342E202038
:1007100044697361626C65207468652077726974DE
:10072000652070726F74656374696F6E0D0A0000E6
:100730003D3D3D3D3D3D3D3D3D3D3D3D3D3D3D3DE9
:100740003D3D3D3D3D3D3D3D3D3D3D3D3D3D3D3DD9
:100750003D3D3D3D3D3D3D3D3D3D3D3D3D3D3D3DC9
:100760003D3D3D3D3D3D3D3D3D3D0D0A0000000010
:10077000496E76616C6964204E756D6265722021E8
:10078000203D3D3E20546865206E756D6265722087
:1007900073686F756C642062652065697468657242
:1007A00020312C2032206F7220330D00496E76618B
:1007B0006C6964204E756D6265722021203D3D3E5E
:1007C00020546865206E756D6265722073686F7560
:1007D0006C642062652065697468657220312C2024
:1007E000322C2033206F7220340D000000BFFEE752
:1007F0007047000010B540F2046001F0ADFC0F231B
:1008000002221021054801F019F90421034801F0E2
:1008100011F90B21014801F00FF910BD0010014042
:10082000704770B505460C4606E0284600F096F97C
:10083000012801D1002070BD201EA4F10104F4D1D3
:10084000401EF8E72DE9F84304460E469046002086
:10085000306041466846FFF7E4FF30B130A000F059
:10086000DDFE4FF0FF30BDE8F8839DF8000018284A
:1008700013D006DC012809D0022809D0042825D18C
:1008800009E041281AD0612820D118E0802720E013
:100890004FF480671DE00020E5E741466846FFF71A
:1008A000C0FF40B99DF80000182804D14FF0FF3078
:1008B00030600020D7E74FF0FF30D4E700BF9DF84D
:1008C00000101DA000F0AAFE0120CCE74FF0FF3081
:1008D000C9E700BF9DF80000207001250DE06019F8
:1008E0004146FFF79EFF30B129461AA000F096FE60
:1008F0004FF0FF30B7E7681C85B2781D8542EEDB0C
:100900006178A07880F0FF00814206D0617819A05C
:1009100000F084FE4FF0FF30A5E737600020A2E72B
:10092000526563656976655F427974652074696DA7
:10093000656F75740D0A0000526563656976655FC1
:100940005061636B65742063203D202523780D0A78
:1009500000000000666F7220526563656976655F0E
:1009600042797465206572726F722069203D20257E
:10097000640D0A006572726F723A20646174615B83
:100980005041434B45545F5345514E4F5F494E4490
:1009900045585D203D202523780D0A00704710B58D
:1009A0000446204600F00CF9002010BD10B588B0B8
:1009B00021A207CA05AB07C3002422A000F09EF9BC
:1009C0002F4800F05DFB044622462EA1684600F049
:1009D00035FE684600F092F9002C16DD2C4800F038
:1009E0008DF92C4800F08AF9214605A8FFF768FD2B
:1009F00029A000F083F905A800F080F929A000F0F3
:100A00007DF92BA000F07AF914E0601C18B92EA033
:100A100000F074F90EE0A01C18B93BA000F06EF9CC
:100A200008E0E01C18B93FA000F068F902E043A01C
:100A300000F064F908B010BD2020202020202020E4
:100A40002020000057616974696E6720666F72200C
:100A50007468652066696C6520746F206265207318
:100A6000656E74202E2E2E202870726573732027D9
:100A7000612720746F2061626F7274290A0D000073
:100A8000480000200D0A73697A653D25640D0A004F
:100A900084240008480400200A0D2053697A653A2E
:100AA000200000002042797465730D0A00000000E8
:100AB0002D2D2D2D2D2D2D2D2D2D2D2D2D2D2D2D66
:100AC0002D2D2D0A000000000A0A0D5468652069CA
:100AD0006D6167652073697A65206973206869674D
:100AE000686572207468616E2074686520616C6C42
:100AF0006F776564207370616365206D656D6F72DB
:100B000079210A0D000000000A0A0D566572696617
:100B100069636174696F6E206661696C6564210A3E
:100B20000D0000000D0A0A41626F72746564206254
:100B30007920757365722E0A0D0000000A0D46615A
:100B4000696C656420746F207265636569766520E1
:100B50007468652066696C65210A0D0010B504464D
:100B600005210748006801F020FC012806D104484F
:100B7000006801F0C3FB2070012010BD0020FCE7DD
:100B80003800002010B504460B4800680B49884225
:100B90000DD00521094801F008FC012805D10748BE
:100BA00001F0ACFB2070012010BD0020FCE72046C6
:100BB000FFF7D4FFF8E700003800002000380140BC
:100BC00010B5044600BF07210548006801F0EDFBA1
:100BD0000028F8D021460248006801F094FB10BDBF
:100BE0003800002010B5044600BF0721044801F07A
:100BF000DCFB0028F9D02146014801F084FB10BD40
:100C00000038014010B500240DA000F077F800F086
:100C1000A8F943280FD14FF4D03217A11C4800F097
:100C2000C5FB04461CB11BA000F068F806E024A038
:100C300000F064F802E02BA000F060F810BD0000A6
:100C40000A0A0D53656C65637420526563656976A5
:100C5000652046696C65202E2E2E202870726573E3
:100C60007320616E79206B657920746F2061626FEB
:100C70007274290A0D00000055706C6F6164656420
:100C8000466C617368496D6167652E62696E00002C
:100C9000006000080A0D4572726F72204F63637521
:100CA000726564207768696C65205472616E736D3B
:100CB000697474696E672046696C650A0D000000EE
:100CC0000A0D46696C6520547261736D69747465B0
:100CD00064205375636365737366756C6C79200A61
:100CE0000D0000000D0A0A41626F72746564206293
:100CF0007920757365722E0A0D00000010B5044648
:100D000003E02078FFF76EFF641C20780028F8D1FC
:100D100010BD70B502460C46002100250023107856
:100D2000302843D15078782802D0507858283DD1C7
:100D3000907808B9002070BD022130E0505C10B9F5
:100D4000236001252DE0505C412802DB505C4628E1
:100D50000BDD505C612802DB505C662805DD505CD1
:100D6000302819DB505C392816DC505C302805DB54
:100D7000505C392802DC505C30380AE0505C412875
:100D800005DB505C462802DC505C373801E0505CE3
:100D9000573800EB031301E0002502E0491C0B2942
:100DA000CCD300BF0B2934D3002532E000212AE048
:100DB000505C10B92360012527E0505C6B2802D0FD
:100DC000505C4B2804D119B19B02236001251CE023
:100DD000505C6D2802D0505C4D2804D119B11B0520
:100DE0002360012511E0505C302809DB505C392874
:100DF00006DC505C303803EB830600EB460301E071
:100E0000002502E0491C0B29D2D300BF0B2900D3D7
:100E1000002528468FE710B500F068F810BD0000E7
:100E200010B51448006840F00100124908600846F7
:100E30004068114908400F494860084600680F495A
:100E400008400C4908600846006820F480200860CB
:100E5000084640680A490840064948600846006854
:100E600006490840034908604FF41F00886001F0FC
:100E7000F9F910BD001002400C00FFE8FFFFF6FE7C
:100E8000FFFF00F730B5164800684FF47A72B0FBE8
:100E9000F2F1481EB0F1807F01D301201BE0481E13
:100EA0004FF0E022506150170F22002804DB130797
:100EB0001C0E0C4B1C5406E013071D0E0A4B00F0D1
:100EC0000F04241F1D5500BF00204FF0E022906149
:100ED00007201061002008B100BFFEE730BD000010
:100EE0004000002000E400E018ED00E010B50F48DD
:100EF0000088401C0D490880FFF7C8F90B4800889E
:100F0000012802D1FFF718FB0EE008480088C92825
:100F100002D1FFF711FB07E004480088B0F5C87F55
:100F200002DD00200149088010BD000034000020CF
:100F300010B503460C46194644F4807200BF4900C0
:100F4000520002F4807000B1491C01F4803010B1ED
:100F500041F22100414002F480300028EFD088B2F5
:100F600010BD08B50020009004E06846FFF7F6FDCC
:100F700000B100E0F9E700BF9DF8000008BD00BF28
:100F8000FEE72DE9FE4305460F46904601202870F6
:100F900000206870FF20A870002404E0395DE01C88
:100FA0002954601C84B2385D08B1FF2CF6DD0021A5
:100FB000E01C29546846D8F80010FFF781FA002693
:100FC000201D84B208E03046711C8EB21DF800204E
:100FD0002046611C8CB22A541DF806000028F2D16C
:100FE000264603E00020A855701C86B2832EF9DB4C
:100FF000BDE8FE83F0B5074614461D46B5F5806F83
:1010000002D34FF4806C01E04FF0800C63469D42A8
:1010100001D2AC4600E09C461FFA8CF2B3F5806F1B
:1010200004D14FF0020C81F800C003E04FF0010C36
:1010300081F800C04C706FEA040C81F802C03E4693
:10104000032007E016F801CB01F800C000F1010C05
:101050001FFA8CF002F1030C6045F3DB9A420EDCC0
:101060001FFA8CF007E04FF01A0C01F800C000F1F5
:10107000010C1FFA8CF003F1030C6045F3DBF0BDAB
:101080002DE9F04FADF22C4D0746002001908D4820
:101090008D4908604FF0000B4FF0000800200290CF
:1010A00000BF002600200390B94600BF4FF4801215
:1010B00004A909A8FFF7C6FB10B101287ED1B3E04F
:1010C0004FF000080498B0F1FF3F01D070B907E07D
:1010D0000620FFF764FC00200DF22C4DBDE8F08FD8
:1010E0000620FFF75CFC012003909BE09DF82500A3
:1010F000F1B2884209D09DF82510324673A000F065
:101100008DFA1520FFF74BFC8BE0002E62D19DF885
:101110002700002857D000250DF1270405E014F81A
:10112000012B28466D1C79490A54207808B1FF2DFF
:10113000F5DD002228466D1C74490A540025641C04
:1011400005E014F8012B28466D1C05A90A542078E7
:10115000202801D0102DF4DB002228466D1C05A9A3
:101160000A5401A905A8FFF7D4FD0198B0F5003F86
:1011700008DB1820FFF713FC1820FFF710FC4FF0D6
:10118000FF30A9E70198FFF71FF9614908600020C7
:101190006049086004E05F480068401C5D490860E1
:1011A0005C4800685A490968884203D25A48007866
:1011B0000028F0D00620FFF7F2FB00E040E04320DB
:1011C000FFF7EDFB2AE00620FFF7E9FB0120039083
:1011D000834627E00DF127014846049AFEF7AEFF4B
:1011E0004E4807604FF0000A0BE037480068001DCA
:1011F0003549086049480068001D484908600AF1FF
:10120000040A0498824506DA2E49019808442E49BA
:1012100009688842E9D80620FFF7C1FB761C012047
:10122000029000BF00BF37E03DA000F0F7F91820A2
:10123000FFF7B5FB1820FFF7B2FB6FF002004BE79A
:101240003CA000F0EBF90298002810DD08F101083D
:10125000B8F1050F0BDD41463EA000F0DFF9182084
:10126000FFF79DFB1820FFF79AFB002034E7684644
:10127000FFF788FC60B19DF80000612808D11820B4
:10128000FFF78DFB1820FFF78AFB6FF0020023E7C2
:101290004320FFF784FB00BF00BF039800283FF402
:1012A00005AF30A000F0BAF900BF00BFBBF1000FDE
:1012B0003FF4F7AE30A000F0B1F900BF00BF0198D5
:1012C0000AE7000000600008180000207061636BEE
:1012D00065745F646174615B5041434B45545F5377
:1012E00045514E4F5F494E4445585D203D202523D2
:1012F00078207061636B6574735F7265636569768E
:101300006564203D2025640D0A000000480400208B
:101310002400002020000020280000202C000020B5
:10132000313A2061626F7274206279207573657240
:101330000D0A00002D313A2074696D656F757420B7
:101340006F72207061636B6574206572726F720DCD
:101350000A0000006572726F7273203D2025640DD3
:101360000A00000066696C655F646F6E65206272DA
:1013700065616B0D0A00000073657373696F6E5FC2
:10138000646F6E6520627265616B0D0A000000007B
:1013900070B505460E46002404E0285DFFF7FFFA0D
:1013A000601C84B2B442F8DB70BD00002DE9F74F39
:1013B000ADF5A36D002001908146002480460026F3
:1013C00006E0DDF81C05805D04A98855701CC6B2D6
:1013D000FF2EF6DB012001900DF5A46204A944A8BC
:1013E000FFF7CFFD00BF832144A8FFF7D1FF01988D
:1013F00060B180210DF21310FEF723FF054628127D
:10140000FFF7CDFAE8B2FFF7CAFA08E080210DF243
:101410001310FEF70AFF03900398FFF7C0FA42F299
:10142000107102A8FFF7FDF930B99DF808000628F1
:1014300003D14FF0010800E0641CB8F1000F01D1A6
:101440000A2CD0D30A2C04D3E0B20DF2245DBDE8FF
:10145000F08FDDF818A5DDF820954FF0010B59E06D
:101460000BF0FF024B4644A95046FFF7C3FD4FF077
:10147000000800208DF80800002400BFB9F5806F37
:1014800002D34FF4806700E08027F81C81B244A8A3
:10149000FFF77EFF019860B139460DF21310FEF799
:1014A000D0FE05462812FFF77AFAE8B2FFF777FA7E
:1014B00008E039460DF21310FEF7B7FE03900398CB
:1014C000FFF76DFA544902A8FFF7ABF9C0B99DF8D0
:1014D0000800062814D14FF00108B9450CD9BA44C8
:1014E000A9EB0709BBF1680F01D1FF20ADE70BF1B4
:1014F00001001FFA80FB04E0BA444FF0000900E04D
:10150000641CB8F1000F01D10A2CB7D30A2C01D307
:10151000E0B29AE7B9F1000FA2D14FF00008002025
:101520008DF80800002400BF0420FFF738FA42F2CB
:10153000107102A8FFF775F930B99DF80800062868
:1015400002D14FF0010800E0641CB8F1000F01D196
:101550000A2CE9D30A2C01D3E0B276E74FF0000859
:1015600000208DF80800002401208DF810010020D3
:101570008DF81101FF208DF81201032604E00020F0
:1015800044A98855701CC6B2832EF8DB00BF8321A6
:1015900044A8FFF7FDFE80210DF21310FEF751FE67
:1015A00005462812FFF7FBF9E8B2FFF7F8F942F217
:1015B000107102A8FFF735F930B99DF80800062828
:1015C00003D14FF0010800E0641CB8F1000F01D115
:1015D0000A2CDCD30A2C01D3E0B236E700BF04208A
:1015E000FFF7DDF942F2107102A8FFF71AF930B9DE
:1015F0009DF80800062802D14FF0010800E0641CA5
:10160000B8F1000F01D10A2CE9D30A2C01D3E0B2C2
:101610001BE7002019E70000A08601000FB4054B6E
:1016200010B503A9044A029800F04CF810BC5DF80C
:1016300014FB0000251A0008440000200FB4084BDA
:1016400010B504A902AA039800F03CF8044602A9C8
:10165000002000F097F9204610BC5DF814FB000054
:101660008519000800BF00BF00BFBFF34F8F00BF48
:1016700000BF00BF0948006800F4E0600849084363
:10168000001D0649086000BF00BF00BFBFF34F8FB9
:1016900000BF00BF00BF00BF00BFFDE70CED00E0D2
:1016A0000000FA0502E008C8121F08C1002AFAD19A
:1016B00070477047002001E001C1121F002AFBD1D2
:1016C000704700002DE9FF4F8DB09B460F46044642
:1016D000002606E025280BD05A460F999047641C37
:1016E000761C20780028F5D111B03046BDE8F08F87
:1016F0000025A8460122984900E0054314F8013F5F
:10170000203B02FA03F00842F7D120782E2817D1A7
:1017100014F8010F45F004052A280ED06FF02F02AF
:101720002078A0F1300109290AD808EB880102EBE2
:10173000410100EB0108641CF2E757F8048B641CBC
:1017400020786C280DD004DC4C2812D06A2811D1E6
:1017500004E074280DD07A280CD10AE045F4001575
:1017600007E0617845F48015814202D1641C05F5DB
:101770008015641C2278692A45D008DC002AB3D081
:10178000582A69D0632A10D0642A08D13BE0702A15
:1017900067D0732A13D0752A5CD0782A5CD01046A3
:1017A0005A460F999047761CD3E017F8040B8DF832
:1017B000000000208DF80100E946012003E057F801
:1017C000049B4FF0FF3069074FF0000501D40AE099
:1017D0006D1C45450DDA8542FADB19F80510002924
:1017E000F6D106E06D1C8542FCDB19F805100029D6
:1017F000F8D12E4404E019F8010B5A460F9990478E
:101800006D1EF8D2A5E00A200021CDE90801C5F33C
:10181000025002280DD001CFC117031E71F1000341
:101820000DDA4FF0000CD0EB0C006CEB01012D2316
:1018300008E0FF1D27F00707F7E80201EDE72B0599
:1018400004D52B238DF8283001233BE0EB0739D05A
:101850002023F7E70A2000E010200021CDE908014D
:1018600007E01020002145F00405CDE908014FF004
:101870000808C5F3025002280FD001CF00214FF015
:10188000000A2B071FD5702A0DD0DDE908C38CF0A4
:10189000100C5CEA030C0CD015E0FF1D27F00707C5
:1018A000F7E80201EBE740228DF828204FF0010A0B
:1018B0000BE050EA010306D030238DF828308DF874
:1018C000292002239A46582A04D024A20DF1200987
:1018D0000B9209E026A2F9E7DDE90823FEF740FCB8
:1018E0000B9B9B5C09F8013D50EA0102F4D1ADEB82
:1018F000090020300890680701D44FF001080899CA
:10190000884502DDA8EB010000E0002080460025AC
:1019100006E00AA85A46405D0F9990476D1C761C58
:101920005545F6DB04E030205A460F999047761C67
:10193000B8F10001A8F10108F5DC05E019F8010B88
:101940005A460F999047761C0899481E089000291E
:10195000F4DC641CC5E60000092801003031323394
:1019600034353637383961626364656600000000DB
:1019700030313233343536373839414243444546C5
:10198000000000000A68531C0B601070704700B51F
:101990000346012200BF00F00BF802465B1E012A3D
:1019A00001D1002BF7D1012A00D10422104600BD3D
:1019B00000200A49C96801F0010109B101200CE0C9
:1019C0000649C96801F0100109B1032005E0034987
:1019D000C96801F0040101B10220704700200240F3
:1019E0000C48006900F0800020B10B4809494860AC
:1019F0000A4848600A480088B0F5007F09D90548C0
:101A0000006D00F0800020B103480249486403489B
:101A1000486470470020024023016745AB89EFCD41
:101A2000E0F7FF1F70B504460D46E0B2FFF7DAF8A5
:101A3000204670BD4161704701617047F0B50446B2
:101A400016460025002201F00F0501F0100707B12E
:101A5000354300201EE0012787401F40C7B12268A0
:101A60004FEA800C0F2707FA0CF7BA43870005FAF4
:101A700007F73A43282904D1012787401F406761AF
:101A800005E0482903D1012787401F4027612260D4
:101A9000471CB8B20828DED3082022E0012787407F
:101AA0001F40E7B16268A0F108074FEA870C0F27D3
:101AB00007FA0CF7BA43A0F10807BF0005FA07F7C9
:101AC0003A43282904D1012787401F40676105E078
:101AD000482903D1012787401F4027616260471CC6
:101AE000B8B21028DAD3F0BD0246D068084008B179
:101AF000012070470020FCE7F0B50A4600230024CF
:101B00000021002500F00046B6F1004F02D11D4E25
:101B1000F16901E01B4E7168C0F3034583B200F424
:101B20004016B6F5401F08D121F07061154E766859
:101B300026F07066134F7E6012E000F48016B6F552
:101B4000801F06D1032606FA05F4A14341F0706117
:101B500006E0460D360103FA06F6B14341F0706126
:101B600022B1460D360103FA06F6314300F0004675
:101B7000B6F1004F02D1034EF16101E0014E7160F8
:101B8000F0BD00000000014010B50F48006800885B
:101B90004FF6FF71884208D00B480068008820B1DA
:101BA0000AA0FFF7ABF8012010BD07480068408885
:101BB0004FF6FF71884204D00CA0FFF79FF8012078
:101BC000F2E70020F0E700003C0000203D69735F71
:101BD0006D63755F6E6565645F75706461746520C3
:101BE00031203D3D3D3D0D0A000000003D69735F21
:101BF0006D63755F6E6565645F75706461746520A3
:101C000032203D3D3D3D0D0A0000000005480068C2
:101C100080884FF6FF71884201D101207047002073
:101C2000FCE700003C00002008B5002500244FF42C
:101C3000A06000F011F94FF4C06000F08DFA0121AE
:101C40003E48FFF759FFFEF7D5FD3D48FEF7D8FBAC
:101C5000FEF782FCFFF716F9FFF7C2FEFFF794FFCD
:101C600060B138A0FFF74AF8FFF7D0FF00283FD156
:101C70003D48FEF7C5FBFEF799FE39E03BA0FFF7B4
:101C80003DF80CE06846FEF77DFF28B19DF80000A6
:101C9000032801D1012407E00120FEF7EDFA2846D0
:101CA000691C8DB2C828EDDB00BF002C20D037A006
:101CB000FFF724F84048FFF721F84048FFF71EF8E7
:101CC0003F48FFF71BF83D48FFF718F83DA0FFF726
:101CD00015F841480068FFF711F840A0FFF70EF82B
:101CE0002AA0FFF70BF843A0FFF708F8FEF746FC21
:101CF00042A0FFF703F84A4800684A490840B0F19B
:101D0000005F0FD1464840684749086008460068B0
:101D1000464908604249086880F3088800BF434884
:101D20000068804742A0FEF7E9FF06E040A0FEF70A
:101D3000E5FF4FF47A70FEF79FFAF7E700023000F4
:101D4000003801403D69735F6D63755F6E65656462
:101D50005F757064617465203D3D203120203D3DFC
:101D60003D3D0D0A00000000004400403D67643323
:101D70003220626F6F746C6F61646572207374617E
:101D800072743D3D3D3D3D3D0D0A00000D0A3D3D57
:101D90003D3D3D3D3D3D3D3D3D3D3D3D3D3D3D3D73
:101DA0003D3D3D3D3D3D3D3D3D3D3D3D3D3D3D3D63
:101DB0003D3D3D3D3D3D000040250008F824000824
:101DC000882500080D0A3D2020202020427920444B
:101DD000617A686920000000140000202020202083
:101DE00020202020202020202020202020202020F3
:101DF000203D00000D0A0D0A000000003D20676430
:101E0000333220626F6F746C6F616465722061752C
:101E1000746F20626F6F743D3D3D3D3D3D0D0A0086
:101E2000006000080000FE2F0400002000000020D9
:101E30003D206764333220626F6F746C6F6164653C
:101E400072206572726F72207768696C6520313D0F
:101E50003D3D3D3D3D0D0A0002490143024A1160EE
:101E6000704700000000FA050CED00E030B5A52534
:101E70004FF47020FFF78BFD044600F03DF800B1F1
:101E8000BB2554BB1A48006940F02000184908617E
:101E90000846006940F0400008614FF47020FFF7E9
:101EA00076FD0446D4B91248006920F0200010499C
:101EB00008610846006940F0100008610D4805807F
:101EC0004FF47020FFF763FD0446042C0ED0084841
:101ED000006920F010000649086107E0042C05D0D5
:101EE0000348006920F0100001490861204630BD18
:101EF0000020024000F8FF1F00200449C96901F0DA
:101F0000020109B1012000E00020704700200240DA
:101F10000248C069C0F387007047000000200240FB
:101F20002DE9F04305460E461746984600244FF427
:101F30007020FFF72CFD0446DCB90F48006940F023
:101F400010000D49086148EA05003043384340F06D
:101F5000F0090A48A0F800904FF47020FFF717FD31
:101F60000446042C05D00448006920F01000024902
:101F700008612046BDE8F0830020024002F8FF1F00
:101F80002DE9F04304464FF47020FFF700FD0546AD
:101F9000E443E6B2C4F30727C4F307484FEA1469E1
:101FA000DDBB1F48006940F010001D490861FF2E8D
:101FB00006D01C4806804FF47020FFF7E8FC054669
:101FC0004DB9FF2F07D01748801C07804FF47020B1
:101FD000FFF7DDFC05465DB9B8F1FF0F08D01148E9
:101FE000001DA0F800804FF47020FFF7D0FC0546DC
:101FF0005DB9B9F1FF0F08D00A48801DA0F8009024
:102000004FF47020FFF7C3FC0546042D05D00448AB
:10201000006920F01000024908612846BDE8F083FD
:102020000020024008F8FF1F0148006A70470000C6
:10203000002002402DE9F04F8BB0074600200990A8
:102040003EA090E8004CC068CDE905BECDF810A0D8
:1020500007900FF2EC0ADAE9000ACDE9020A0FF262
:10206000E00ADAE9000ACDE9000A38484068C0F31E
:1020700081000A900A9820B1012804D0022829D1B1
:1020800003E0334928E0324926E03048406800F454
:102090008038B8F5803F09D12D4C2C48406800F4B9
:1020A0000039B9F5003F02D1641000E0294C2748FF
:1020B0004068C0F383422548406800F0006008B1E2
:1020C00042F010020F2A01D2921C00E0521C04FBC5
:1020D00002F101E01E4900BF00BF1C484068C0F388
:1020E000031504A8465D21FA06F318484068C0F3BA
:1020F000022502A8465D23FA06FC14484068C0F396
:10210000C2251DF8056023FA06F0089037B1012FAB
:1021100006D0022F06D0032F0AD106E0099108E06D
:10212000099306E0CDF824C003E00898099000E088
:1021300000BF00BF09980BB0BDE8F08F00000000A1
:102140000000000001020304060708090010024015
:1021500000127A0000093D00064A02EB901109685E
:1021600000F01F0301229A401143024B03EB90122F
:102170001160704700100240064A02EB9011096896
:1021800000F01F0301229A409143024B03EB90128F
:102190001160704700100240064A02EB9011096876
:1021A00000F01F0301229A401143024B03EB9012EF
:1021B000116070470010024000200021264A12687A
:1021C00042F00102244B1A6000BF401C224A1268F0
:1021D00002F0020111B9B0F5A06FF6D11E4A1268E3
:1021E00002F002020AB900BFFEE71B4A52681A4B0E
:1021F0005A601A4652685A601A46526842F480621F
:102200005A601A465268154B1A40134B5A601A46C8
:102210005268134B1A43104B5A601A46126842F028
:1022200080721A6000BF0C4A126802F00072002A25
:10223000F9D0094A526822F00302074B5A601A4645
:10224000526842F002025A6000BF034A526802F02C
:102250000802002AF9D0704700100240FFFFC3F7C0
:102260000000280810B5FFF7A7FF10BD2DE9F047C3
:1022700004460D460027B846B94600261D49601A97
:102280008C421CD006DC1C48204470B1B0F5806F35
:102290001FD10FE0B0F5806F16D0B0F56C4F18D19C
:1022A0000320FFF7C7FE074614E00220FFF7C2FE37
:1022B00007460FE00220FFF7BDFE07460AE00220B6
:1022C000FFF7B8FE074605E00220FFF7B3FE07461A
:1022D00000E000BF00BF07EB5500B0FBF5F64FF67E
:1022E000F07006EA000806F00F0948EA0900A0604D
:1022F000BDE8F087004C004000BCFFBF01464868C5
:10230000C0F308007047C1F3080242607047000044
:1023100010B504462049601A8C4228D006DC1F48BC
:10232000204490B1B0F5806F33D117E0B0F5806FE5
:1023300026D0B0F56C4F2CD140F20E30FFF72CFFB9
:1023400040F20E30FFF718FF24E040F21140FFF793
:1023500023FF40F21140FFF70FFF1BE040F2124055
:10236000FFF71AFF40F21240FFF706FF12E040F2BB
:102370001340FFF711FF40F21340FFF7FDFE09E0A5
:1023800040F21440FFF708FF40F21440FFF7F4FE5C
:1023900000E000BF00BF10BD004C004000BCFFBF0C
:1023A000C16841F40051C160704710B5024602EBAC
:1023B0009110006801F01F040123A340184008B1E8
:1023C000012010BD0020FCE70A460021416921F4EC
:1023D00000711143416170470A460021416921F4AF
:1023E0008071114341617047C26822F4C062C260CB
:1023F000C2680A43C26070470A460021C16821F0E2
:1024000004011143C1607047026922F44052026125
:1024100002690A43026170470A460021C16821F03F
:1024200008011143C1607047C26822F48052C26043
:10243000C2680A43C26070472E2E2E616E6420610E
:102440002053797374656D205265736574207769C4
:102450006C6C2062652067656E65726174656420CE
:10246000746F2072652D6C6F616420746865206ED6
:102470006577206F7074696F6E2062797465730D73
:102480000A0000000A0A0D2050726F6772616D6DBC
:10249000696E6720436F6D706C6574656420537559
:1024A000636365737366756C6C79210A0D2D2D2D30
:1024B0002D2D2D2D2D2D2D2D2D2D2D2D2D2D2D2D4C
:1024C0002D2D2D2D2D2D2D2D2D2D2D2D2D0D0A208C
:1024D0004E616D653A2000004275696C6474696DE7
:1024E00065203A4170722031312032303233203150
:1024F000363A35313A3234000D0A3D202020202072
:1025000020202020202020202020202020202020CB
:1025100020202020202020202020202020202020BB
:1025200020202020202020202020202020202020AB
:10253000202020202020202020202020203D0000BE
:102540000D0A3D202020202020202020202028436C
:102550002920434F50595249474854203230323392
:102560002048754E616E48544A43204259206461A8
:102570007A68692020202020202020202020202070
:1025800020202020203D00000D0A3D20202020207A
:10259000496E2D4170706C69636174696F6E205073
:1025A000726F6772616D6D696E67204170706C69E2
:1025B000636174696F6E20202856657273696F6E4F
:1025C00020332E332E31292020202020203D0000D2
:1025D000F02500080000002048000000A4160008B4
:1025E000382600084800002000250000B416000826
:1025F00000000000000000000000000000000000DB
:1026000000000000D824000800600008000400005A
:1026100000000000000000000000000000000000BA
:10262000000000000000000000000000005C000846
:0826300000F36F06000000003A
:0400000508000105E9
:00000001FF
