:020000040800F2
:10000000C02400201901000899050008E103000838
:100010009505000827020008970D00080000000061
:10002000000000000000000000000000450700087C
:100030007702000800000000C90500082F0C000826
:1000400033010008330100083301000833010008C0
:1000500033010008330100083301000833010008B0
:1000600033010008330100083301000833010008A0
:100070003301000833010008330100083301000890
:100080003301000833010008330100083301000880
:100090003301000833010008330100083301000870
:1000A0003301000833010008330100083301000860
:1000B0003301000833010008330100083301000850
:1000C0003301000833010008330100083301000840
:1000D0003301000833010008330100083301000830
:1000E000330100083301000833010008000000005C
:1000F0000000000000000000000000000000000000
:1001000033010008DFF80CD000F05CF8004800472D
:10011000D9230008C024002006488047064800472D
:10012000FEE7FEE7FEE7FEE7FEE7FEE7FEE7FEE7A7
:10013000FEE7FEE7390C00080501000840EA01036C
:100140009B0703D009E008C9121F08C0042AFAD28D
:1001500003E011F8013B00F8013B521EF9D2704751
:100160002DE9F05F0546002092469B4688460646EC
:10017000814640241BE0284641464746224600F07F
:1001800042F853465A46C01A914110D311461846B8
:10019000224600F029F82D1A67EB01084F46224647
:1001A0000120002100F020F817EB00094E41201E2D
:1001B000A4F10104DFDC484631462A464346BDE847
:1001C000F09F0000064C074D06E0E06840F0010398
:1001D00094E8070098471034AC42F6D3FFF796FF37
:1001E0003030000850300008202A04DB203A00FAA2
:1001F00002F1002070479140C2F1200320FA03F37E
:10020000194390407047202A04DB203A21FA02F07B
:100210000021704721FA02F3D040C2F12002914040
:1002200008431946704700BFFEE730B50246002379
:10023000541802E012F8015B2B44A242FAD3D8B260
:1002400030BDF0B505460E460024AF1905E015F89F
:10025000011BA0B200F078FD0446BD42F7D3A0B266
:10026000002100F071FD04462046002100F06CFDE5
:1002700004462046F0BD70470349086000BF0249AC
:1002800009680029FBD17047440000200448006839
:1002900020B103480068401E014908607047000013
:1002A000440000202DE9F047002400250126022704
:1002B0004FF004084FF0010902F0E0FA0546244827
:1002C000006828402249096888423BD002F04AFA77
:1002D00004461F48006828431D49086002F0F0F9F1
:1002E00081461B480068401C28B119480068C0437B
:1002F00002F070FA814604F00700072813D004F0DA
:10030000010000B9002604F0020000B9002704F043
:10031000040008B94FF0000808F0FF02F9B2F0B28B
:10032000082302F027FAB9F1000F07D109A000F065
:10033000F1FB104800F0EEFB01F09CF90EA000F07C
:10034000E9FB02E017A000F0E5FBBDE8F087000044
:100350000C00002057726974652050726F746563D9
:1003600074696F6E2064697361626C65642E2E2EF1
:100370000D0A0000502E00084572726F723A204636
:100380006C61736820777269746520756E70726F26
:1003900074656374696F6E206661696C65642E2E86
:1003A0002E0D0A00466C617368206D656D6F727961
:1003B000206E6F742077726974652070726F746537
:1003C000637465640D0A000001B500200099C1F353
:1003D00009021AB1012202EB912000E0880A08BD4F
:1003E00000BFFEE710B5044640F2026002F0DEFAFC
:1003F0002748844212D12749086040F2117002F068
:10040000D5FA042302221821234801F0EFFE082325
:1004100002220421204801F0E9FE11E040F20E60C2
:1004200002F0C4FA4FF40073022218211A4801F0B6
:10043000DDFE4FF4806302220421174801F0D6FE4E
:10044000204602F04FFC4FF4E131204602F0F8FB69
:100450000021204602F0D2FC0021204602F0BEFC22
:100460000021204602F0AAFC0021204602F09EFC5A
:100470000021204602F092FC0421204602F0A6FC56
:100480000821204602F0B2FC204602F073FC10BDA9
:10049000004400404C00002000080140F0B5144A20
:1004A00000250024002320E0B1FBF2F6303606F0F0
:1004B000FF0C2E466D1C00F806C0B1FBF2F602FBE5
:1004C00016110A26B2FBF6F26E1E865D302E01D1A1
:1004D000012600E000260CB9012700E000273E407D
:1004E0000EB1002500E0641C5B1C0A2BDCD3F0BDC0
:1004F00000CA9A3B10B51021014801F075FE10BDED
:10050000000C014010B51021014801F06BFE10BD38
:10051000000C014010B51021054801F0BDFE044655
:1005200014B9FFF7E7FF01E0FFF7ECFF10BD000093
:10053000000C014010B540F2036002F037FA1023BE
:1005400002221946034801F051FE1021014801F032
:1005500049FE10BD000C01400B480068A0F100608E
:10056000800A0A4908600846017801208840401E38
:10057000C0430749086002F0B3FA03E001F04AFD06
:1005800001F09EFDFAE700002C000020080000208A
:100590000C00002000BFFEE77047000010B540F2DD
:1005A000046002F003FA0F2302221021054801F033
:1005B0001DFE0421034801F015FE0B21014801F046
:1005C00013FE10BD00100140704770B505460C4683
:1005D00006E0284600F0B8F9012801D1002070BDDE
:1005E000201EA4F10104F4D1401EF8E72DE9F843E0
:1005F00004460E4690460020306041466846FFF7AC
:10060000E4FF30B130A001F011F84FF0FF30BDE849
:10061000F8839DF80000182813D006DC012809D0C3
:10062000022809D0042825D109E041281AD06128E0
:1006300020D118E0802720E04FF480671DE00020E3
:10064000E5E741466846FFF7C0FF40B99DF8000066
:10065000182804D14FF0FF3030600020D7E74FF06A
:10066000FF30D4E700BF9DF800101DA000F0DEFFB2
:100670000120CCE74FF0FF30C9E700BF9DF8000034
:10068000207001250DE060194146FFF79EFF30B153
:1006900029461AA000F0CAFF4FF0FF30B7E7681CE8
:1006A00085B2781D8542EEDB6178A07880F0FF008E
:1006B000814206D0617819A000F0B8FF4FF0FF30FA
:1006C000A5E737600020A2E7526563656976655F3C
:1006D000427974652074696D656F75740D0A000048
:1006E000526563656976655F5061636B657420630D
:1006F000203D202523780D0A00000000666F72203F
:10070000526563656976655F4279746520657272CA
:100710006F722069203D2025640D0A006572726F9A
:10072000723A20646174615B5041434B45545F539E
:1007300045514E4F5F494E4445585D203D2025238D
:10074000780D0A00704710B50446204600F034F9D1
:10075000002010BD00B589B02CA207CA06AB07C3A4
:100760002DA000F0D7F93B4800F096FB3A4908600D
:1007700008463AA1026801A800F068FF01A800F04D
:10078000C9F935480068002822DD374800F0C2F971
:10079000364800F0BFF93048016806A8FFF77EFE32
:1007A00033A000F0B7F906A800F0B4F933A000F0C8
:1007B000B1F935A000F0AEF9364800F0ABF936A03B
:1007C00000F0A8F935A000F0A5F9002009B000BD9F
:1007D00021480068401C18B936A000F09BF912E0CF
:1007E0001D480068801C18B942A000F093F90AE087
:1007F00019480068C01C18B945A000F08BF902E048
:1008000049A000F087F90120E0E700002020202027
:10081000202020202020000057616974696E672025
:10082000666F72207468652066696C6520746F203D
:1008300062652073656E74202E2E2E2028707265DE
:1008400073732027612720746F2061626F7274298F
:100850000A0D00005C000020200000200D0A7369D2
:100860007A653D25640D0A00E42E00087E04002010
:100870000A0D2053697A653A2000000020427974FD
:1008800065730D0A000000006D643573756D203AC4
:10089000200000005C040020200D0A002D2D2D2DCD
:1008A0002D2D2D2D2D2D2D2D2D2D2D2D2D2D2D0A9B
:1008B000000000000A0A0D54686520696D616765D3
:1008C0002073697A6520697320686967686572209A
:1008D0007468616E2074686520616C6C6F77656404
:1008E000207370616365206D656D6F7279210A0DEB
:1008F000000000000A0A0D5665726966696361743A
:10090000696F6E206661696C6564210A0D000000E4
:100910000D0A0A41626F72746564206279207573F2
:1009200065722E0A0D0000000A0D4661696C65644F
:1009300020746F2072656365697665207468652030
:1009400066696C65210A0D0010B50446052107484B
:10095000006802F014FA012806D10448006802F089
:10096000B7F92070012010BD0020FCE74C000020EA
:1009700010B504460521064802F001FA012805D108
:10098000034802F0A5F92070012010BD0020FCE70B
:100990000038014010B504460521064802F0EFF981
:1009A000012805D1034802F093F92070012010BD01
:1009B0000020FCE70044004010B5044600BF0621BB
:1009C0000548006802F0DBF90028F8D0214602480B
:1009D000006802F082F910BD4C00002010B50446FA
:1009E00000BF0621044802F0CAF90028F9D02146C8
:1009F000014802F072F910BD0038014010B50446FC
:100A000000BF0621044802F0BAF90028F9D02146B7
:100A1000014802F062F910BD0044004010B5002406
:100A20000DA000F077F800F0A8F943280FD14FF49B
:100A3000504217A11C4800F0C1FC04461CB11BA089
:100A400000F068F806E024A000F064F802E02BA0B3
:100A500000F060F810BD00000A0A0D53656C656374
:100A60007420526563656976652046696C65202E41
:100A70002E2E2028707265737320616E79206B654D
:100A80007920746F2061626F7274290A0D00000072
:100A900055706C6F61646564466C617368496D6123
:100AA00067652E62696E0000006000080A0D4572DD
:100AB000726F72204F636375726564207768696C2A
:100AC00065205472616E736D697474696E67204637
:100AD000696C650A0D0000000A0D46696C652054BA
:100AE0007261736D697474656420537563636573B3
:100AF0007366756C6C79200A0D0000000D0A0A41BE
:100B0000626F7274656420627920757365722E0A53
:100B10000D00000010B5044603E02078FFF75EFFEB
:100B2000641C20780028F8D110BD70B502460C4630
:100B30000021002500231078302843D150787828F0
:100B400002D0507858283DD1907808B9002070BD67
:100B5000022130E0505C10B9236001252DE0505C8B
:100B6000412802DB505C46280BDD505C612802DB2B
:100B7000505C662805DD505C302819DB505C392854
:100B800016DC505C302805DB505C392802DC505CF8
:100B900030380AE0505C412805DB505C462802DC16
:100BA000505C373801E0505C573800EB031301E02C
:100BB000002502E0491C0B29CCD300BF0B2934D3FC
:100BC000002532E000212AE0505C10B923600125A5
:100BD00027E0505C6B2802D0505C4B2804D119B13F
:100BE0009B02236001251CE0505C6D2802D0505C04
:100BF0004D2804D119B11B052360012511E0505C7B
:100C0000302809DB505C392806DC505C303803EBB7
:100C1000830600EB460301E0002502E0491C0B2996
:100C2000D2D300BF0B2900D3002528468FE710B58B
:100C300000F068F810BD000010B51448006840F0DE
:100C400001001249086008464068114908400F49F0
:100C50004860084600680F4908400C49086008468B
:100C6000006820F480200860084640680A4908406F
:100C7000064948600846006806490840034908607C
:100C80004FF41F00886001F027FF10BD00100240E4
:100C90000C00FFE8FFFFF6FEFFFF00F730B5164837
:100CA00000684FF47A72B0FBF2F1481EB0F1807F19
:100CB00001D301201BE0481E4FF0E0225061501785
:100CC0000F22002804DB13071C0E0C4B1C5406E0FB
:100CD00013071D0E0A4B00F00F04241F1D5500BF03
:100CE00000204FF0E022906107201061002008B141
:100CF00000BFFEE730BD00005400002000E400E02B
:100D000018ED00E010B50F480088401C0D49088020
:100D1000FFF7BCFA0B480088012802D1FFF7FAFB65
:100D20000EE008480088C92802D1FFF7F3FB07E06E
:100D300004480088B0F5C87F02DD00200149088022
:100D400010BD00004800002010B503460C461946AF
:100D500044F4807200BF4900520002F4807000B178
:100D6000491C01F4803010B141F22100414002F4ED
:100D700080300028EFD088B210BD08B50020009068
:100D800004E06846FFF7E0FD00B100E0F9E700BFCE
:100D90009DF8000008BD00BFFEE72DE9FE430546B3
:100DA0000F4690460120287000206870FF20A87030
:100DB000002404E0395DE01C2954601C84B2385DD5
:100DC00008B1402CF6DB0021E01C29546846D8F815
:100DD0000010FFF763FB0026201D84B208E03046B8
:100DE000711C8EB21DF800202046611C8CB22A5462
:100DF0001DF806000028F2D1264603E00020A85581
:100E0000701C86B2832EF9DBBDE8FE83F0B5074681
:100E100014461D46B5F5806F02D34FF4806C01E097
:100E20004FF0800C63469D4201D2AC4600E09C46E8
:100E30001FFA8CF2B3F5806F04D14FF0020C81F8E9
:100E400000C003E04FF0010C81F800C04C706FEA65
:100E5000040C81F802C03E46032007E016F801CBDF
:100E600001F800C000F1010C1FFA8CF002F1030C34
:100E70006045F3DB9A420EDC1FFA8CF007E04FF07E
:100E80001A0C01F800C000F1010C1FFA8CF003F1FC
:100E9000030C6045F3DBF0BD2DE9F04FADF23C4DA6
:100EA000814600200590D9480390002002900090D0
:100EB000D748007818B1D748D749086002E0D7482A
:100EC000D5490860D44800680190D3480168D4A08F
:100ED00000F0ACFB4FF0000BD8460020069000BF9E
:100EE0000026002007904F4600BF4FF4801208A94B
:100EF0000DA8FFF77BFB10B101287AD12CE14FF050
:100F000000080898B0F1FF3F01D070B907E0062053
:100F1000FFF719FC00200DF23C4DBDE8F08F0620D4
:100F2000FFF711FC0120079014E19DF83500F1B2A4
:100F3000884209D09DF835103246C0A000F076FBFB
:100F40001520FFF700FC04E1002E72D19DF8370058
:100F500000286FD000240DF1370505E015F8012BAE
:100F60002046641CC5490A54287808B1402CF5DB9A
:100F700000222046641CC1490A5400246D1C05E06F
:100F800015F8012B2046641C09A90A54287808B1D9
:100F9000102CF5DB00222046641C09A90A5405A97F
:100FA00009A8FFF7C2FD9A48007830B300246D1CF1
:100FB0000AE0285DB24908550398005D295D884222
:100FC00001D001200290641C202CF2DB0020AC49EF
:100FD0000855029870B91820FFF7B5FB1820FFF7E5
:100FE000B2FB22462946A7A000F020FB6FF00300C9
:100FF00091E7BDE00020A24908550598B0F5504F93
:101000000ED34CF6FF72A8A0059900F00FFB182034
:10101000FFF799FB1820FFF796FB4FF0FF307AE7B8
:101020000598FFF7D1F9AA4908600020A94908608E
:1010300012E029E021E078490968A74A1288A54B07
:101040001B6802FB031000F09BFEA4490870A14836
:101050000068401C9F4908609E4800689C490968D8
:10106000884203D29D4800780028E4D00620FFF78C
:101070006AFB4320FFF767FB68E00620FFF763FB8E
:1010800001200790834665E00DF137013846089A44
:10109000FFF754F81EBB38686FF31000B0F1005F23
:1010A0000BD01820FFF74FFB1820FFF74CFB8CA04C
:1010B00000F0BCFA6FF001002DE778686FF30B00C9
:1010C000564988420BD01820FFF73DFB1820FFF748
:1010D0003AFB8AA000F0AAFA6FF001001BE78E48E5
:1010E000C0F800904FF0000A23E08B4800680168C8
:1010F0004948006800F0DCFE4748006800688649FF
:1011000009680968884208D01820FFF71CFB1820DE
:10111000FFF719FB6FF00100FDE63F480068001D76
:101120003D4908607C480068001D7B4908600AF161
:10113000040A0898824506DA059901980844364958
:1011400009688842D1D80620FFF7FDFA761C0120F5
:10115000069000BF00BF43E070A000F067FA1820BF
:10116000FFF7F1FA1820FFF7EEFA6FF00200D2E66F
:101170006FA000F05BFA0698002810DD08F1010866
:10118000B8F1050F17DD414671A000F04FFA1820A5
:10119000FFF7D9FA1820FFF7D6FA0020BBE600982F
:1011A000401CC0B200900098782804DB6CA000F0CE
:1011B0003DFA0020AFE604A8FFF7DAFB60B19DF826
:1011C0001000612808D11820FFF7BDFA1820FFF79A
:1011D000BAFA6FF002009EE64320FFF7B4FA00BFB0
:1011E00000BF079800283FF480AE62A000F01EFA0E
:1011F00000BF00BFBBF1000F3FF472AE62A000F071
:1012000015FA00BF00BF059885E60000005E0008E3
:1012100028000020003001082C0000200060000899
:10122000466C61736844657374696E6174696F6E4E
:10123000203D202523780D0A000000007061636BBB
:1012400065745F646174615B5041434B45545F5307
:1012500045514E4F5F494E4445585D203D20252362
:1012600078207061636B6574735F7265636569761E
:101270006564203D2025640D0A0000007E040020E6
:101280005C0400206D6435206973207468652073E8
:10129000616D652C206D6435203D2025732069200B
:1012A0003D2025640D0A000073697A6528256429AC
:1012B000203E2028464C4153485F494D4147455FF9
:1012C00053495A45202D203129282564290D0A002B
:1012D0003800002034000020300000203C000020B6
:1012E000646F776E2066696C65206572726F72201C
:1012F000312C61626F72740D0A000000646F776EAA
:101300002066696C65206572726F7220322C616292
:101310006F72740D0A00000040000020313A206115
:10132000626F727420627920757365720D0A000015
:101330002D313A2074696D656F7574206F7220705D
:1013400061636B6574206572726F720D0A00000034
:101350006572726F7273203D2025640D0A000000D3
:10136000646F776E6C6F61642074696D656F7574FE
:101370000D0A000066696C655F646F6E65206272BD
:1013800065616B0D0A00000073657373696F6E5FB2
:10139000646F6E6520627265616B0D0A000000006B
:1013A00070B505460E46002404E0285DFFF7CBF932
:1013B000601C84B2B442F8DB70BD00002DE9F74F29
:1013C000ADF58B6D002001908146002480460026FB
:1013D00006E0DDF85C04805D04A98855701CC6B287
:1013E0003F2EF6DB012001900DF58C6204A914A8B4
:1013F000FFF7D3FC00BF832114A8FFF7D1FF0198AA
:1014000060B180210DF15300FEF71BFF0546281245
:10141000FFF799F9E8B2FFF796F908E080210DF19E
:101420005300FEF702FF03900398FFF78CF942F296
:10143000107102A8FFF7C9F830B99DF80800062816
:1014400003D14FF0010800E0641CB8F1000F01D196
:101450000A2CD0D30A2C04D3E0B20DF2644DBDE8BF
:10146000F08FDDF858A4DDF860944FF0010B59E0DF
:101470000BF0FF024B4614A95046FFF7C7FC4FF094
:10148000000800208DF80800002400BFB9F5806F27
:1014900002D34FF4806700E08027F81C81B214A8C3
:1014A000FFF77EFF019860B139460DF15300FEF75A
:1014B000C8FE05462812FFF746F9E8B2FFF743F9E0
:1014C00008E039460DF15300FEF7AFFE0390039894
:1014D000FFF739F9544902A8FFF777F8C0B99DF82A
:1014E0000800062814D14FF00108B9450CD9BA44B8
:1014F000A9EB0709BBF1340F01D1FF20ADE70BF1D8
:1015000001001FFA80FB04E0BA444FF0000900E03C
:10151000641CB8F1000F01D10A2CB7D30A2C01D3F7
:10152000E0B29AE7B9F1000FA2D14FF00008002015
:101530008DF80800002400BF0420FFF704F942F2F0
:10154000107102A8FFF741F830B99DF8080006288D
:1015500002D14FF0010800E0641CB8F1000F01D186
:101560000A2CE9D30A2C01D3E0B276E74FF0000849
:1015700000208DF80800002401208DF85000002084
:101580008DF85100FF208DF85200032604E0002062
:1015900014A98855701CC6B2832EF8DB00BF8321C6
:1015A00014A8FFF7FDFE80210DF15300FEF749FE60
:1015B00005462812FFF7C7F8E8B2FFF7C4F842F271
:1015C000107102A8FFF701F830B99DF8080006284D
:1015D00003D14FF0010800E0641CB8F1000F01D105
:1015E0000A2CDCD30A2C01D3E0B236E700BF04207A
:1015F000FFF7A9F842F2107102A8FEF7E6FF30B932
:101600009DF80800062802D14FF0010800E0641C94
:10161000B8F1000F01D10A2CE9D30A2C01D3E0B2B2
:101620001BE7002019E70000A08601000FB4054B5E
:1016300010B503A9044A029800F04CF810BC5DF8FC
:1016400014FB0000711F0008580000200FB4084B65
:1016500010B504A902AA039800F03CF8044602A9B8
:10166000002000F097F9204610BC5DF814FB000044
:101670009519000800BF00BF00BFBFF34F8F00BF28
:1016800000BF00BF0948006800F4E0600849084353
:10169000001D0649086000BF00BF00BFBFF34F8FA9
:1016A00000BF00BF00BF00BF00BFFDE70CED00E0C2
:1016B0000000FA0502E008C8121F08C1002AFAD18A
:1016C00070477047002001E001C1121F002AFBD1C2
:1016D000704700002DE9FF4F8DB09B460F46044632
:1016E000002606E025280BD05A460F999047641C27
:1016F000761C20780028F5D111B03046BDE8F08F77
:101700000025A8460122984900E0054314F8013F4E
:10171000203B02FA03F00842F7D120782E2817D197
:1017200014F8010F45F004052A280ED06FF02F029F
:101730002078A0F1300109290AD808EB880102EBD2
:10174000410100EB0108641CF2E757F8048B641CAC
:1017500020786C280DD004DC4C2812D06A2811D1D6
:1017600004E074280DD07A280CD10AE045F4001565
:1017700007E0617845F48015814202D1641C05F5CB
:101780008015641C2278692A45D008DC002AB3D071
:10179000582A69D0632A10D0642A08D13BE0702A05
:1017A00067D0732A13D0752A5CD0782A5CD0104693
:1017B0005A460F999047761CD3E017F8040B8DF822
:1017C000000000208DF80100E946012003E057F8F1
:1017D000049B4FF0FF3069074FF0000501D40AE089
:1017E0006D1C45450DDA8542FADB19F80510002914
:1017F000F6D106E06D1C8542FCDB19F805100029C6
:10180000F8D12E4404E019F8010B5A460F9990477D
:101810006D1EF8D2A5E00A200021CDE90801C5F32C
:10182000025002280DD001CFC117031E71F1000331
:101830000DDA4FF0000CD0EB0C006CEB01012D2306
:1018400008E0FF1D27F00707F7E80201EDE72B0589
:1018500004D52B238DF8283001233BE0EB0739D04A
:101860002023F7E70A2000E010200021CDE908013D
:1018700007E01020002145F00405CDE908014FF0F4
:101880000808C5F3025002280FD001CF00214FF005
:10189000000A2B071FD5702A0DD0DDE908C38CF094
:1018A000100C5CEA030C0CD015E0FF1D27F00707B5
:1018B000F7E80201EBE740228DF828204FF0010AFB
:1018C0000BE050EA010306D030238DF828308DF864
:1018D000292002239A46582A04D024A20DF1200977
:1018E0000B9209E026A2F9E7DDE90823FEF738FCB0
:1018F0000B9B9B5C09F8013D50EA0102F4D1ADEB72
:10190000090020300890680701D44FF001080899B9
:10191000884502DDA8EB010000E00020804600259C
:1019200006E00AA85A46405D0F9990476D1C761C48
:101930005545F6DB04E030205A460F999047761C57
:10194000B8F10001A8F10108F5DC05E019F8010B78
:101950005A460F999047761C0899481E089000290E
:10196000F4DC641CC5E60000092801003031323384
:1019700034353637383961626364656600000000CB
:1019800030313233343536373839414243444546B5
:10199000000000000A68531C0B60107070470000C4
:1019A00010B511A0FFF7B6F81A48FFF7B3F81A48B8
:1019B000FFF7B0F81948FFF7ADF81748FFF7AAF896
:1019C00017A0FFF7A7F81B480068FFF7A3F81AA0B5
:1019D000FFF7A0F804A0FFF79DF81DA0FFF79AF805
:1019E000FEF7BAFD10BD00000D0A3D3D3D3D3D3DF9
:1019F0003D3D3D3D3D3D3D3D3D3D3D3D3D3D3D3D17
:101A00003D3D3D3D3D3D3D3D3D3D3D3D3D3D3D3D06
:101A10003D3D0000A02F0008582F0008E82F0008C7
:101A20000D0A3D202020202042792044617A6869F7
:101A30002000000024000020202020202020202042
:101A4000202020202020202020202020203D0000B9
:101A50000D0A0D0A000000002DE9F0474FF00008C4
:101A6000484DDFF824A14FF0000900F0FFF9286885
:101A70006FF31000B0F1005F08D0296843A0FFF7B2
:101A8000D5FD00F0F9FD0220BDE8F08768686FF32E
:101A90000B003D49884207D0696844A0FFF7C6FDA6
:101AA00000F0EAFD0220EFE74A480068B0F5806FD9
:101AB00002DD4848006802E0474800684068064682
:101AC000B6F5806F02D3B6F5504F01D94FF45046AA
:101AD0003246314641A0FFF7A9FD2FE0002415E072
:101AE00015F80900494908550846005DFF2807D147
:101AF00008F1010000F0FF08B8F1100F02DB08E068
:101B00004FF00008601C84B209F10109B4F5806F40
:101B1000E6DB00BF504600F033F9002708E03B4801
:101B2000C159504600F0C4F90AF1040A381D87B2C1
:101B3000A742F4DBB8F1100F00DB01E0B145CDD3D3
:101B400000BF00F099FD00BF00BF00BF00BF00BF95
:101B5000BFF34F8F00BF00BF00BF2D48006800F4E7
:101B6000E0602C490843001D2949086000BF00BF00
:101B700000BFBFF34F8F00BF00BF00BF00BF00BF5B
:101B8000FDE7000000300108006000086E6F74205F
:101B9000757064617465202A646F776E6C6F616420
:101BA0005F61646472202523780D0A006E6F7420D3
:101BB0007570646174652033202A646F776E6C6F72
:101BC00061645F616464722B34203D202523780DAD
:101BD0000A0000002000002050000020666C6173A5
:101BE000685F646F776E6C6F61645F636F70797448
:101BF0006F5F6170702073697A65203D20252378BE
:101C0000202F2F2025640D0A000000005C0000201A
:101C10000CED00E00000FA0500B50346012200BF0C
:101C200000F00CF802465B1E012A01D1002BF7D10F
:101C3000012A00D10422104600BD000000200A49FC
:101C4000C96801F0010109B101200CE00649C96829
:101C500001F0100109B1032005E00349C96801F052
:101C6000040101B1022070470020024000B5034684
:101C7000012200BF00F00CF802465B1E012A01D1D0
:101C8000002BF7D1012A00D10422104600BD00002C
:101C900000200A49C96C01F0010109B101200CE0E2
:101CA0000649C96C01F0100109B1032005E00349A0
:101CB000C96C01F0040101B102207047002002400C
:101CC00070B504460D4600262A480088B0F5007F0E
:101CD00035D22948844219D24FF47020FFF79CFF77
:101CE0000646002E43D12548006940F001002349F3
:101CF000086125804FF47020FFF78EFF06461F48CD
:101D0000006920F001001D49086130E04FF47020A7
:101D1000FFF7ACFF064656BB1848006D40F00100C7
:101D20001649086525804FF47020FFF79FFF06468F
:101D30001248006D20F001001049086517E04FF4CB
:101D40007020FFF769FF06468EB90C48006940F025
:101D500001000A49086125804FF47020FFF75CFFFD
:101D600006460648006920F0010004490861304633
:101D700070BD0000E0F7FF1FFFFF070800200240D2
:101D800030B5054636480088B0F5007F48D935485B
:101D900085421ED24FF47020FFF73EFF0446002C10
:101DA0005BD13148006940F002002F4908610846C4
:101DB0004561006940F0400008614FF47020FFF772
:101DC0002BFF04462848006920F0020026490861DC
:101DD00043E04FF47020FFF749FF0446002C3CD14C
:101DE0002148006D40F002001F490865084645651E
:101DF000C06900F0020008B1084645611A48006D4C
:101E000040F04000184908654FF47020FFF72EFF9E
:101E100004461548006D20F00200134908651CE0D7
:101E20004FF47020FFF7F8FE0446B4B90E4800697D
:101E300040F002000C49086108464561006940F025
:101E4000400008614FF47020FFF7E6FE04460648A4
:101E5000006920F0020004490861204630BD0000FE
:101E6000E0F7FF1FFFFF0708002002400C48006951
:101E700000F0800020B10B48094948600A484860DA
:101E80000A480088B0F5007F09D90548006D00F0C8
:101E9000800020B103480249486403484864704701
:101EA0000020024023016745AB89EFCDE0F7FF1F1B
:101EB00070B504460D4600262A480088B0F5007F1C
:101EC00035D92948844219D24FF47020FFF7A4FE77
:101ED0000646002E43D12548006940F00100234901
:101EE000086125604FF47020FFF796FE06461F48F4
:101EF000006920F001001D49086130E04FF47020B6
:101F0000FFF7B4FE064656BB1848006D40F00100CE
:101F10001649086525604FF47020FFF7A7FE0646B6
:101F20001248006D20F001001049086517E04FF4D9
:101F30007020FFF771FE06468EB90C48006940F02C
:101F400001000A49086125604FF47020FFF764FE24
:101F500006460648006920F0010004490861304641
:101F600070BD0000E0F7FF1FFFFF070800200240E0
:101F700070B504460D460448006810B1E0B2FEF7A3
:101F80002DFD204670BD00004C00002030B50246FB
:101F90000B46164C002145F25550154D286000BFE8
:101FA0001348C06800F00101601E041E01D0002922
:101FB000F6D109B1002030BD0D4843600B4C00BF85
:101FC0000B48C06800F00201601E041E01D0002909
:101FD000F6D109B10020EEE7C2F30B00044DA86072
:101FE0004AF6AA2028600120E5E70000FFFF0F0065
:101FF000003000404CF6CC400149086070470000BA
:102000000030004045F2555001490860704700001B
:102010000030004008B56846FEF7AAFC00283BD017
:102020009DF80000312810D1002000F0EFFC0020C6
:102030001A490870FEF78EFB00282DD118A0FFF773
:10204000F5FA00F019FBFFF715FB9DF800003228A8
:1020500005D1002000F0DAFCFEF7E0FC1CE09DF862
:102060000000332805D101200C49087000F092F8D7
:1020700012E09DF80000342801D1FFF7FBFA9DF82B
:102080000000352806D10D480068012802D1FEF76E
:1020900009F901E000F024FD08BD0000280000203F
:1020A000646562756720756172742075706461740F
:1020B0006520646F6E65210D0A000000100000208D
:1020C000F8B52D4D00266846FEF764FC002852D076
:1020D0009DF80000A52802D10020284908709DF82D
:1020E00000002749254A127888542448007804289B
:1020F0003EDA22480078401C2049087008460078E3
:10210000042838D11FA0FFF791FA1D4840784A28CB
:102110002AD11B488078D0B91948C078EF2816D149
:10212000FF265A20FEF76AFCA520FEF767FC002474
:1021300007E0285DFEF762FC285D3044C6B2601CF3
:10214000C4B2202CF5DB3046FEF758FC0CE00C48FE
:102150008078012808D10A48C078F02804D10120ED
:102160000B49087000F016F800200449087002E0DE
:10217000002002490870F8BD005E00081C00002025
:1021800014000020696E646578203D20340D0A003B
:102190002800002010B50CA0FFF748FA0F4800688F
:1021A00040884FF6FF71884205D1FFF75FFEFF219F
:1021B0000B48FFF785FDFEF7CDFA18B900F024FAB9
:1021C000FFF74AFC002010BD676F746F5F6F74618A
:1021D0005F757064617465200D0A00005000002076
:1021E000025C00084161704701617047F0B5044628
:1021F00016460025002201F00F0501F0100707B177
:10220000354300201EE0012787401F40C7B12268E8
:102210004FEA800C0F2707FA0CF7BA43870005FA3C
:1022200007F73A43282904D1012787401F406761F7
:1022300005E0482903D1012787401F40276122601C
:10224000471CB8B20828DED3082022E001278740C7
:102250001F40E7B16268A0F108074FEA870C0F271B
:1022600007FA0CF7BA43A0F10807BF0005FA07F711
:102270003A43282904D1012787401F40676105E0C0
:10228000482903D1012787401F4027616260471C0E
:10229000B8B21028DAD3F0BD0246D068084008B1C1
:1022A000012070470020FCE7F0B50A460023002417
:1022B0000021002500F00046B6F1004F02D11D4E6E
:1022C000F16901E01B4E7168C0F3034583B200F46D
:1022D0004016B6F5401F08D121F07061154E7668A2
:1022E00026F07066134F7E6012E000F48016B6F59B
:1022F000801F06D1032606FA05F4A14341F0706160
:1023000006E0460D360103FA06F6B14341F070616E
:1023100022B1460D360103FA06F6314300F00046BD
:10232000B6F1004F02D1034EF16101E0014E716040
:10233000F0BD00000000014010B50748006840886B
:102340004FF6FF71884204D004A0FEF7E3FB0120A2
:1023500010BD0020FCE70000500000203D69735FC5
:102360006D63755F6E6565645F757064617465202B
:1023700031203D3D3D3D0D0A0000000010B50748ED
:10238000006800884FF6FF71884204D104A0FEF770
:10239000C1FB012010BD0020FCE700005000002020
:1023A0003D69735F6D63755F6E6565645F757064CD
:1023B0006174652031203D3D3D3D0D0A0000000067
:1023C00010B5FFF71FFE042140F6FF70FFF7DEFD9A
:1023D000FFF710FE10BD000008B5002500244FF4E3
:1023E000A06000F063F94FF4C06000F0DFFA012153
:1023F0004448FFF759FFFEF751FCFEF7CFF842487B
:10240000FDF7F0FF4148FDF7EDFFFEF793F8FFF70A
:102410002DFD3FA0FEF77EFB47480068FEF77AFBE4
:1024200046A0FEF777FBFFF787FF58B1012000F0C9
:10243000EDFA43A0FEF76EFB01204A490870FFF752
:10244000A9FE22E0FFF79AFF28B147A0FEF762FB42
:10245000FFF702FB19E04DA0FEF75CFB0CE06846BD
:10246000FEF786FA28B19DF80000032801D1012467
:1024700007E00120FDF700FF2846691C8DB2C8283F
:10248000EDDB00BF0CB1FFF78BFA484800686FF333
:102490001000B0F1005F02D0FEF75EF808E043489C
:1024A00040686FF30B004149884201D0FEF754F8B1
:1024B0003FA0FEF72FFB3D48006846490840B0F1B9
:1024C000005F11D1FFF77CFF38484068424908603F
:1024D00008460068414908603449086880F3088864
:1024E00000BF3E48006880473DA0FEF713FB08E0B0
:1024F0003BA0FEF70FFBFFF753FA4FF47A70FDF79E
:10250000BBFEF5E700023000003801400044004007
:102510000D0A696170207374617274286279206495
:10252000617A6869406A63292C20696E6974206F3A
:102530006B21210D0A000000240000200D0A00007C
:102540003D69735F6D63755F6E6565645F646F772A
:102550006E6C6F6164203D3D203120203D3D3D3D4E
:102560000D0A0000280000203D69735F6D63755FF0
:102570006E6565645F757064617465203D3D2031F2
:1025800020203D3D3D3D0D0A000000003D676433C5
:102590003220626F6F746C6F616465722073746156
:1025A00072743D3D3D3D3D3D0D0A00000060000858
:1025B0003D206764333220626F6F746C6F616465B5
:1025C00072206175746F20626F6F743D3D3D3D3DBB
:1025D0003D0D0A000000FE2F040000200000002036
:1025E0003D206764333220626F6F746C6F61646585
:1025F00072206572726F72207768696C6520313D58
:102600003D3D3D3D3D0D0A0070B5104DFFF72EFCE0
:102610000FA0FEF77FFA1548FFF7B2FB002407E092
:10262000134801592846FFF743FC2D1D201DC4B255
:10263000202CF5DB0F480068B0F5806F05DD0D48F4
:1026400001680A48001DFFF733FC70BD005E0008FA
:102650003D6D63755F646F776E6C6F61645F646F0F
:102660006E653D3D3D3D0D0A00000000005C000828
:102670005C0400202000002010B505A0FEF74AFAF7
:10268000FFF7F4FBFF210848FFF71AFB10BD00001D
:102690003D6D63755F7570646174655F646F6E65D1
:1026A0003D3D3D3D0D0A0000005C0008024901432C
:1026B000024A1160704700000000FA050CED00E0CE
:1026C00030B5A5254FF47020FFF7A6FA044600F0B8
:1026D0003DF800B1BB2554BB1A48006940F020000A
:1026E000184908610846006940F0400008614FF44D
:1026F0007020FFF791FA0446D4B91248006920F01F
:102700002000104908610846006940F01000086187
:102710000D4805804FF47020FFF77EFA0446042C24
:102720000ED00848006920F010000649086107E053
:10273000042C05D00348006920F01000014908610D
:10274000204630BD0020024000F8FF1F0020044951
:10275000C96901F0020109B1012000E000207047C1
:10276000002002400248C069C0F3870070470000A3
:10277000002002402DE9F04305460E4617469846D4
:1027800000244FF47020FFF747FA0446DCB90F48E5
:10279000006940F010000D49086148EA0500304327
:1027A000384340F0F0090A48A0F800904FF4702038
:1027B000FFF732FA0446042C05D00448006920F0E3
:1027C0001000024908612046BDE8F0830020024065
:1027D00002F8FF1F2DE9F04304464FF47020FFF785
:1027E0001BFA0546E443E6B2C4F30727C4F30748DF
:1027F0004FEA1469DDBB1F48006940F010001D4915
:102800000861FF2E06D01C4806804FF47020FFF7A9
:1028100003FA05464DB9FF2F07D01748801C0780E3
:102820004FF47020FFF7F8F905465DB9B8F1FF0FD6
:1028300008D01148001DA0F800804FF47020FFF769
:10284000EBF905465DB9B9F1FF0F08D00A48801DC4
:10285000A0F800904FF47020FFF7DEF90546042D34
:1028600005D00448006920F010000249086128469C
:10287000BDE8F0830020024008F8FF1F0148006A0D
:1028800070470000002002402DE9F04F8BB0074652
:10289000002009903EA090E8004CC068CDE905BE3C
:1028A000CDF810A007900FF2EC0ADAE9000ACDE9A2
:1028B000020A0FF2E00ADAE9000ACDE9000A384814
:1028C0004068C0F381000A900A9820B1012804D022
:1028D000022829D103E0334928E0324926E0304874
:1028E000406800F48038B8F5803F09D12D4C2C4861
:1028F000406800F40039B9F5003F02D1641000E0EF
:10290000294C27484068C0F383422548406800F0BE
:10291000006008B142F010020F2A01D2921C00E0C0
:10292000521C04FB02F101E01E4900BF00BF1C481D
:102930004068C0F3031504A8465D21FA06F3184861
:102940004068C0F3022502A8465D23FA06FC14483D
:102950004068C0F3C2251DF8056023FA06F0089010
:1029600037B1012F06D0022F06D0032F0AD106E07F
:10297000099108E0099306E0CDF824C003E0089827
:10298000099000E000BF00BF09980BB0BDE8F08FD0
:10299000000000000000000001020304060708090F
:1029A0000010024000127A0000093D00064A02EBC6
:1029B0009011096800F01F0301229A401143024B55
:1029C00003EB90121160704700100240064A02EBC0
:1029D0009011096800F01F0301229A409143024BB5
:1029E00003EB90121160704700100240064A02EBA0
:1029F0009011096800F01F0301229A401143024B15
:102A000003EB9012116070470010024018B904499E
:102A1000044A116002E00449024A11607047000054
:102A2000003801404C0000200044004000200021FC
:102A3000264A126842F00102244B1A6000BF401C73
:102A4000224A126802F0020111B9B0F5A06FF6D166
:102A50001E4A126802F002020AB900BFFEE71B4AD2
:102A600052681A4B5A601A4652685A601A4652689F
:102A700042F480625A601A465268154B1A40134B52
:102A80005A601A465268134B1A43104B5A601A4642
:102A9000126842F080721A6000BF0C4A126802F09D
:102AA0000072002AF9D0094A526822F00302074B4B
:102AB0005A601A46526842F002025A6000BF034A46
:102AC000526802F00802002AF9D070470010024054
:102AD000FFFFC3F70000280810B5FFF7A7FF10BDE0
:102AE00010B5FFF7CBFE1349096808401149096882
:102AF000884203D001201049086002E000200E49FE
:102B000008600EA0FEF706F81CA0FEF703F82848A0
:102B1000FEF700F82748FDF7FDFF27A0FDF7FAFFB5
:102B20000548006810B12DA0FDF7F4FF34A0FDF7B3
:102B3000F1FF10BD0C000020100000200D0A3D3DEB
:102B40003D3D3D3D3D3D3D3D3D3D3D3D3D3D3D3DB5
:102B5000204D61696E204D656E75203D3D3D3D3DCA
:102B60003D3D3D3D3D3D3D3D3D3D3D3D3D3D3D3D95
:102B70003D3D3D3D3D3D3D0D0A000000312E2020F4
:102B8000446F776E6C6F616420496D616765205496
:102B90006F207468652047443332463130782049CD
:102BA0006E7465726E616C20466C6173680D0A000C
:102BB0000C2E00089C2E0008342E20205265626FD7
:102BC0006F74207468652073797374656D202C2090
:102BD00052756E20415050200D0A0000352E2020E5
:102BE00044697361626C65207468652077726974EA
:102BF000652070726F74656374696F6E0D0A0000F2
:102C00003D3D3D3D3D3D3D3D3D3D3D3D3D3D3D3DF4
:102C10003D3D3D3D3D3D3D3D3D3D3D3D3D3D3D3DE4
:102C20003D3D3D3D3D3D3D3D3D3D3D3D3D3D3D3DD4
:102C30003D3D3D3D3D3D3D3D3D3D0D0A000000001B
:102C40002DE9F04704460D460027B846B946002650
:102C50001D49601A8C421CD006DC1C48204470B10F
:102C6000B0F5806F1FD10FE0B0F5806F16D0B0F5D2
:102C70006C4F18D10320FFF707FE074614E002202F
:102C8000FFF702FE07460FE00220FFF7FDFD0746B3
:102C90000AE00220FFF7F8FD074605E00220FFF7F3
:102CA000F3FD074600E000BF00BF07EB5500B0FB97
:102CB000F5F64FF6F07006EA000806F00F0948EA4C
:102CC0000900A060BDE8F087004C004000BCFFBFD9
:102CD00001464868C0F308007047C1F3080242602B
:102CE0007047000010B504462049601A8C4228D075
:102CF00006DC1F48204490B1B0F5806F33D117E057
:102D0000B0F5806F26D0B0F56C4F2CD140F20E306C
:102D1000FFF76CFE40F20E30FFF758FE24E040F261
:102D20001140FFF763FE40F21140FFF74FFE1BE03A
:102D300040F21240FFF75AFE40F21240FFF746FE03
:102D400012E040F21340FFF751FE40F21340FFF74C
:102D50003DFE09E040F21440FFF748FE40F2144007
:102D6000FFF734FE00E000BF00BF10BD004C004084
:102D700000BCFFBFC16841F40051C160704710B58D
:102D8000024602EB9110006801F01F040123A340EA
:102D9000184008B1012010BD0020FCE70A460021C0
:102DA000416921F400711143416170470A460021D5
:102DB000416921F48071114341617047C26822F476
:102DC000C062C260C2680A43C26070470A460021FE
:102DD000C16821F004011143C1607047026922F407
:102DE0004052026102690A43026170470A460021AB
:102DF000C16821F008011143C1607047C26822F424
:102E00008052C260C2680A43C2607047322E2020DE
:102E100055706C6F616420496D6167652046726F03
:102E20006D2074686520474433324631307820493C
:102E30006E7465726E616C20466C617368202864E4
:102E40006562756720207561727430290D0A000073
:102E50002E2E2E616E6420612053797374656D206F
:102E600052657365742077696C6C206265206765B4
:102E70006E65726174656420746F2072652D6C6F6D
:102E8000616420746865206E6577206F7074696F67
:102E90006E2062797465730D0A000000332E2020C5
:102EA000446F776E6C6F616420496D616765205473
:102EB0006F207468652047443332463130782049AA
:102EC0006E7465726E616C20466C61736820667208
:102ED0006F6D20726B3333393920756172740D0A4E
:102EE000000000000A0A0D2050726F6772616D6D5C
:102EF000696E6720436F6D706C65746564205375EF
:102F0000636365737366756C6C79210A0D2D2D2DC5
:102F10002D2D2D2D2D2D2D2D2D2D2D2D2D2D2D2DE1
:102F20002D2D2D2D2D2D2D2D2D2D2D2D2D0D0A2021
:102F30004E616D653A2000004275696C6474696D7C
:102F400065203A41707220323620323032332032DE
:102F5000303A30363A3038000D0A3D20202020200B
:102F60002020202020202020202020202020202061
:102F70002020202020202020202020202020202051
:102F80002020202020202020202020202020202041
:102F9000202020202020202020202020203D000054
:102FA0000D0A3D2020202020202020202020284302
:102FB0002920434F50595249474854203230323328
:102FC0002048754E616E48544A432042592064613E
:102FD0007A68692020202020202020202020202006
:102FE00020202020203D00000D0A3D202020202010
:102FF000496E2D4170706C69636174696F6E205009
:10300000726F6772616D6D696E67204170706C6977
:10301000636174696F6E20202856657273696F6EE4
:1030200020332E332E31292020202020203D000067
:1030300050300008000000205C000000B4160008BA
:10304000AC3000085C00002064240000C4160008B6
:103050000000000000000000000000000000000070
:103060000000000000000000000000000000000060
:1030700000000000382F0008000000000060000879
:10308000000400000000000000000000000000003C
:1030900000000000000000000000000000440040AC
:0C30A000005C000800F36F060000000058
:0400000508000105E9
:00000001FF
