:020000040800F2
:10000000C02400201901000899050008E103000838
:100010009505000827020008970D00080000000061
:10002000000000000000000000000000450700087C
:100030007702000800000000C90500082F0C000826
:1000400033010008330100083301000833010008C0
:1000500033010008330100083301000833010008B0
:1000600033010008330100083301000833010008A0
:100070003301000833010008330100083301000890
:100080003301000833010008330100083301000880
:100090003301000833010008330100083301000870
:1000A0003301000833010008330100083301000860
:1000B0003301000833010008330100083301000850
:1000C0003301000833010008330100083301000840
:1000D0003301000833010008330100083301000830
:1000E000330100083301000833010008000000005C
:1000F0000000000000000000000000000000000000
:1001000033010008DFF80CD000F05CF8004800472D
:10011000A9230008C024002006488047064800475D
:10012000FEE7FEE7FEE7FEE7FEE7FEE7FEE7FEE7A7
:10013000FEE7FEE7390C00080501000840EA01036C
:100140009B0703D009E008C9121F08C0042AFAD28D
:1001500003E011F8013B00F8013B521EF9D2704751
:100160002DE9F05F0546002092469B4688460646EC
:10017000814640241BE0284641464746224600F07F
:1001800042F853465A46C01A914110D311461846B8
:10019000224600F029F82D1A67EB01084F46224647
:1001A0000120002100F020F817EB00094E41201E2D
:1001B000A4F10104DFDC484631462A464346BDE847
:1001C000F09F0000064C074D06E0E06840F0010398
:1001D00094E8070098471034AC42F6D3FFF796FF37
:1001E0000030000820300008202A04DB203A00FA02
:1001F00002F1002070479140C2F1200320FA03F37E
:10020000194390407047202A04DB203A21FA02F07B
:100210000021704721FA02F3D040C2F12002914040
:1002200008431946704700BFFEE730B50246002379
:10023000541802E012F8015B2B44A242FAD3D8B260
:1002400030BDF0B505460E460024AF1905E015F89F
:10025000011BA0B200F078FD0446BD42F7D3A0B266
:10026000002100F071FD04462046002100F06CFDE5
:1002700004462046F0BD70470349086000BF0249AC
:1002800009680029FBD17047440000200448006839
:1002900020B103480068401E014908607047000013
:1002A000440000202DE9F047002400250126022704
:1002B0004FF004084FF0010902F0C8FA054624483F
:1002C000006828402249096888423BD002F032FA8F
:1002D00004461F48006828431D49086002F0D8F909
:1002E00081461B480068401C28B119480068C0437B
:1002F00002F058FA814604F00700072813D004F0F2
:10030000010000B9002604F0020000B9002704F043
:10031000040008B94FF0000808F0FF02F9B2F0B28B
:10032000082302F00FFAB9F1000F07D109A000F07D
:10033000F1FB104800F0EEFB01F08AF90EA000F08E
:10034000E9FB02E017A000F0E5FBBDE8F087000044
:100350000C00002057726974652050726F746563D9
:1003600074696F6E2064697361626C65642E2E2EF1
:100370000D0A0000202E00084572726F723A204666
:100380006C61736820777269746520756E70726F26
:1003900074656374696F6E206661696C65642E2E86
:1003A0002E0D0A00466C617368206D656D6F727961
:1003B000206E6F742077726974652070726F746537
:1003C000637465640D0A000001B500200099C1F353
:1003D00009021AB1012202EB912000E0880A08BD4F
:1003E00000BFFEE710B5044640F2026002F0C6FA14
:1003F0002748844212D12749086040F2117002F068
:10040000BDFA042302221821234801F0D7FE082355
:1004100002220421204801F0D1FE11E040F20E60DA
:1004200002F0ACFA4FF40073022218211A4801F0CE
:10043000C5FE4FF4806302220421174801F0BEFE7E
:10044000204602F037FC4FF4E131204602F0E0FB99
:100450000021204602F0BAFC0021204602F0A6FC52
:100460000021204602F092FC0021204602F086FC8A
:100470000021204602F07AFC0421204602F08EFC86
:100480000821204602F09AFC204602F05BFC10BDD9
:10049000004400404C00002000080140F0B5144A20
:1004A00000250024002320E0B1FBF2F6303606F0F0
:1004B000FF0C2E466D1C00F806C0B1FBF2F602FBE5
:1004C00016110A26B2FBF6F26E1E865D302E01D1A1
:1004D000012600E000260CB9012700E000273E407D
:1004E0000EB1002500E0641C5B1C0A2BDCD3F0BDC0
:1004F00000CA9A3B10B51021014801F05DFE10BD05
:10050000000C014010B51021014801F053FE10BD50
:10051000000C014010B51021054801F0A5FE04466D
:1005200014B9FFF7E7FF01E0FFF7ECFF10BD000093
:10053000000C014010B540F2036002F01FFA1023D6
:1005400002221946034801F039FE1021014801F04A
:1005500031FE10BD000C01400B480068A0F10060A6
:10056000800A0A4908600846017801208840401E38
:10057000C0430749086002F09BFA03E001F032FD36
:1005800001F086FDFAE700002C00002008000020A2
:100590000C00002000BFFEE77047000010B540F2DD
:1005A000046002F0EBF90F2302221021054801F04C
:1005B00005FE0421034801F0FDFD0B21014801F077
:1005C000FBFD10BD00100140704770B505460C469C
:1005D00006E0284600F0B8F9012801D1002070BDDE
:1005E000201EA4F10104F4D1401EF8E72DE9F843E0
:1005F00004460E4690460020306041466846FFF7AC
:10060000E4FF30B130A000F0FFFF4FF0FF30BDE855
:10061000F8839DF80000182813D006DC012809D0C3
:10062000022809D0042825D109E041281AD06128E0
:1006300020D118E0802720E04FF480671DE00020E3
:10064000E5E741466846FFF7C0FF40B99DF8000066
:10065000182804D14FF0FF3030600020D7E74FF06A
:10066000FF30D4E700BF9DF800101DA000F0CCFFC4
:100670000120CCE74FF0FF30C9E700BF9DF8000034
:10068000207001250DE060194146FFF79EFF30B153
:1006900029461AA000F0B8FF4FF0FF30B7E7681CFA
:1006A00085B2781D8542EEDB6178A07880F0FF008E
:1006B000814206D0617819A000F0A6FF4FF0FF300C
:1006C000A5E737600020A2E7526563656976655F3C
:1006D000427974652074696D656F75740D0A000048
:1006E000526563656976655F5061636B657420630D
:1006F000203D202523780D0A00000000666F72203F
:10070000526563656976655F4279746520657272CA
:100710006F722069203D2025640D0A006572726F9A
:10072000723A20646174615B5041434B45545F539E
:1007300045514E4F5F494E4445585D203D2025238D
:10074000780D0A00704710B50446204600F034F9D1
:10075000002010BD00B589B02CA207CA06AB07C3A4
:100760002DA000F0D7F93B4800F096FB3A4908600D
:1007700008463AA1026801A800F056FF01A800F05F
:10078000C9F935480068002822DD374800F0C2F971
:10079000364800F0BFF93048016806A8FFF77EFE32
:1007A00033A000F0B7F906A800F0B4F933A000F0C8
:1007B000B1F935A000F0AEF9364800F0ABF936A03B
:1007C00000F0A8F935A000F0A5F9002009B000BD9F
:1007D00021480068401C18B936A000F09BF912E0CF
:1007E0001D480068801C18B942A000F093F90AE087
:1007F00019480068C01C18B945A000F08BF902E048
:1008000049A000F087F90120E0E700002020202027
:10081000202020202020000057616974696E672025
:10082000666F72207468652066696C6520746F203D
:1008300062652073656E74202E2E2E2028707265DE
:1008400073732027612720746F2061626F7274298F
:100850000A0D00005C000020200000200D0A7369D2
:100860007A653D25640D0A00B42E00087E04002040
:100870000A0D2053697A653A2000000020427974FD
:1008800065730D0A000000006D643573756D203AC4
:10089000200000005C040020200D0A002D2D2D2DCD
:1008A0002D2D2D2D2D2D2D2D2D2D2D2D2D2D2D0A9B
:1008B000000000000A0A0D54686520696D616765D3
:1008C0002073697A6520697320686967686572209A
:1008D0007468616E2074686520616C6C6F77656404
:1008E000207370616365206D656D6F7279210A0DEB
:1008F000000000000A0A0D5665726966696361743A
:10090000696F6E206661696C6564210A0D000000E4
:100910000D0A0A41626F72746564206279207573F2
:1009200065722E0A0D0000000A0D4661696C65644F
:1009300020746F2072656365697665207468652030
:1009400066696C65210A0D0010B50446052107484B
:10095000006802F0FCF9012806D10448006802F0A2
:100960009FF92070012010BD0020FCE74C00002002
:1009700010B504460521064802F0E9F9012805D121
:10098000034802F08DF92070012010BD0020FCE723
:100990000038014010B504460521064802F0D7F999
:1009A000012805D1034802F07BF92070012010BD19
:1009B0000020FCE70044004010B5044600BF0621BB
:1009C0000548006802F0C3F90028F8D02146024823
:1009D000006802F06AF910BD4C00002010B5044612
:1009E00000BF0621044802F0B2F90028F9D02146E0
:1009F000014802F05AF910BD0038014010B5044614
:100A000000BF0621044802F0A2F90028F9D02146CF
:100A1000014802F04AF910BD0044004010B500241E
:100A20000DA000F077F800F0A8F943280FD14FF49B
:100A3000504217A11C4800F0AFFC04461CB11BA09B
:100A400000F068F806E024A000F064F802E02BA0B3
:100A500000F060F810BD00000A0A0D53656C656374
:100A60007420526563656976652046696C65202E41
:100A70002E2E2028707265737320616E79206B654D
:100A80007920746F2061626F7274290A0D00000072
:100A900055706C6F61646564466C617368496D6123
:100AA00067652E62696E0000006000080A0D4572DD
:100AB000726F72204F636375726564207768696C2A
:100AC00065205472616E736D697474696E67204637
:100AD000696C650A0D0000000A0D46696C652054BA
:100AE0007261736D697474656420537563636573B3
:100AF0007366756C6C79200A0D0000000D0A0A41BE
:100B0000626F7274656420627920757365722E0A53
:100B10000D00000010B5044603E02078FFF75EFFEB
:100B2000641C20780028F8D110BD70B502460C4630
:100B30000021002500231078302843D150787828F0
:100B400002D0507858283DD1907808B9002070BD67
:100B5000022130E0505C10B9236001252DE0505C8B
:100B6000412802DB505C46280BDD505C612802DB2B
:100B7000505C662805DD505C302819DB505C392854
:100B800016DC505C302805DB505C392802DC505CF8
:100B900030380AE0505C412805DB505C462802DC16
:100BA000505C373801E0505C573800EB031301E02C
:100BB000002502E0491C0B29CCD300BF0B2934D3FC
:100BC000002532E000212AE0505C10B923600125A5
:100BD00027E0505C6B2802D0505C4B2804D119B13F
:100BE0009B02236001251CE0505C6D2802D0505C04
:100BF0004D2804D119B11B052360012511E0505C7B
:100C0000302809DB505C392806DC505C303803EBB7
:100C1000830600EB460301E0002502E0491C0B2996
:100C2000D2D300BF0B2900D3002528468FE710B58B
:100C300000F068F810BD000010B51448006840F0DE
:100C400001001249086008464068114908400F49F0
:100C50004860084600680F4908400C49086008468B
:100C6000006820F480200860084640680A4908406F
:100C7000064948600846006806490840034908607C
:100C80004FF41F00886001F00FFF10BD00100240FC
:100C90000C00FFE8FFFFF6FEFFFF00F730B5164837
:100CA00000684FF47A72B0FBF2F1481EB0F1807F19
:100CB00001D301201BE0481E4FF0E0225061501785
:100CC0000F22002804DB13071C0E0C4B1C5406E0FB
:100CD00013071D0E0A4B00F00F04241F1D5500BF03
:100CE00000204FF0E022906107201061002008B141
:100CF00000BFFEE730BD00005400002000E400E02B
:100D000018ED00E010B50F480088401C0D49088020
:100D1000FFF7BCFA0B480088012802D1FFF7FAFB65
:100D20000EE008480088C92802D1FFF7F3FB07E06E
:100D300004480088B0F5C87F02DD00200149088022
:100D400010BD00004800002010B503460C461946AF
:100D500044F4807200BF4900520002F4807000B178
:100D6000491C01F4803010B141F22100414002F4ED
:100D700080300028EFD088B210BD08B50020009068
:100D800004E06846FFF7E0FD00B100E0F9E700BFCE
:100D90009DF8000008BD00BFFEE72DE9FE430546B3
:100DA0000F4690460120287000206870FF20A87030
:100DB000002404E0395DE01C2954601C84B2385DD5
:100DC00008B1402CF6DB0021E01C29546846D8F815
:100DD0000010FFF763FB0026201D84B208E03046B8
:100DE000711C8EB21DF800202046611C8CB22A5462
:100DF0001DF806000028F2D1264603E00020A85581
:100E0000701C86B2832EF9DBBDE8FE83F0B5074681
:100E100014461D46B5F5806F02D34FF4806C01E097
:100E20004FF0800C63469D4201D2AC4600E09C46E8
:100E30001FFA8CF2B3F5806F04D14FF0020C81F8E9
:100E400000C003E04FF0010C81F800C04C706FEA65
:100E5000040C81F802C03E46032007E016F801CBDF
:100E600001F800C000F1010C1FFA8CF002F1030C34
:100E70006045F3DB9A420EDC1FFA8CF007E04FF07E
:100E80001A0C01F800C000F1010C1FFA8CF003F1FC
:100E9000030C6045F3DBF0BD2DE9F04FADF23C4DA6
:100EA000814600200590D7480390002002900090D2
:100EB000D548007818B1D548D549086002E0D54832
:100EC000D3490860D248006801904FF0000BD84623
:100ED0000020069000BF0026002007904F4600BF6C
:100EE0004FF4801208A90DA8FFF780FB10B101286C
:100EF0007BD12DE14FF000080898B0F1FF3F01D001
:100F000070B907E00620FFF71EFC00200DF23C4DF3
:100F1000BDE8F08F0620FFF716FC0120079015E1D1
:100F20009DF83500F1B2884209D09DF8351032465F
:100F3000B9A000F069FB1520FFF705FC05E1002EC4
:100F400073D19DF83700002870D000240DF13705CB
:100F500005E015F8012B2046641CBF490A54287887
:100F600008B1402CF5DB00222046641CBA490A5423
:100F700000246D1C05E015F8012B2046641C09A90E
:100F80000A542878202801D0102CF4DB00222046B7
:100F9000641C09A90A5405A909A8FFF7C6FD9A48C7
:100FA000007830B300246D1C0AE0285DAB49085579
:100FB0000398005D295D884201D001200290641CE5
:100FC000202CF2DB0020A5490855029870B91820A2
:100FD000FFF7B9FB1820FFF7B6FB22462946A0A071
:100FE00000F012FB6FF0030090E7BDE000209B498A
:100FF00008550598B0F5504F0ED34CF6FF72A1A0DE
:10100000059900F001FB1820FFF79DFB1820FFF762
:101010009AFB4FF0FF3079E70598FFF7D5F9A34920
:1010200008600020A249086012E029E021E0784928
:101030000968A04A12889E4B1B6802FB031000F04F
:101040008DFE9D4908709A480068401C98490860C8
:101050009748006895490968884203D29648007805
:101060000028E4D00620FFF76EFB4320FFF76BFB60
:1010700068E00620FFF767FB01200790834665E0E4
:101080000DF137013846089AFFF758F81EBB38684B
:101090006FF31000B0F1005F0BD01820FFF753FB87
:1010A0001820FFF750FB85A000F0AEFA6FF00100AA
:1010B0002CE778686FF30B00564988420BD0182054
:1010C000FFF741FB1820FFF73EFB83A000F09CFADE
:1010D0006FF001001AE78748C0F800904FF0000A4F
:1010E00023E08448006801684948006800F0CEFEAB
:1010F0004748006800687F4909680968884208D045
:101100001820FFF720FB1820FFF71DFB6FF00100F0
:10111000FCE63F480068001D3D49086075480068CE
:10112000001D744908600AF1040A0898824506DA2D
:10113000059901980844364909688842D1D80620A3
:10114000FFF701FB761C0120069000BF00BF43E0C3
:1011500069A000F059FA1820FFF7F5FA1820FFF7F8
:10116000F2FA6FF00200D1E668A000F04DFA06989E
:10117000002810DD08F10108B8F1050F17DD414620
:101180006AA000F041FA1820FFF7DDFA1820FFF7F7
:10119000DAFA0020BAE60098401CC0B2009000982D
:1011A000782804DB65A000F02FFA0020AEE604A842
:1011B000FFF7DEFB60B19DF81000612808D1182010
:1011C000FFF7C1FA1820FFF7BEFA6FF002009DE6A4
:1011D0004320FFF7B8FA00BF00BF079800283FF48C
:1011E0007FAE5BA000F010FA00BF00BFBBF1000FA4
:1011F0003FF471AE5BA000F007FA00BF00BF059896
:1012000084E60000005E000828000020003001088D
:101210002C000020006000087061636B65745F64DF
:101220006174615B5041434B45545F5345514E4F90
:101230005F494E4445585D203D202523782070614C
:10124000636B6574735F7265636569766564203D81
:101250002025640D0A0000007E0400205C040020AC
:101260006D6435206973207468652073616D652C29
:10127000206D6435203D2025732069203D202564A4
:101280000D0A000073697A6528256429203E20280C
:10129000464C4153485F494D4147455F53495A4584
:1012A000202D203129282564290D0A00380000202E
:1012B00034000020300000203C000020646F776E76
:1012C0002066696C65206572726F7220312C6162D4
:1012D0006F72740D0A000000646F776E2066696C8F
:1012E00065206572726F7220322C61626F72740DAC
:1012F0000A00000040000020313A2061626F7274E1
:1013000020627920757365720D0A00002D313A2034
:1013100074696D656F7574206F72207061636B65A1
:1013200074206572726F720D0A0000006572726F30
:101330007273203D2025640D0A000000646F776EF3
:101340006C6F61642074696D656F75740D0A0000BF
:1013500066696C655F646F6E6520627265616B0DB6
:101360000A00000073657373696F6E5F646F6E656A
:1013700020627265616B0D0A0000000070B50546C1
:101380000E46002404E0285DFFF7DDF9601C84B2FE
:10139000B442F8DB70BD00002DE9F74FADF58B6D61
:1013A00000200190814600248046002606E0DDF8FA
:1013B0005C04805D04A98855701CC6B23F2EF6DB24
:1013C000012001900DF58C6204A914A8FFF7E5FC3B
:1013D00000BF832114A8FFF7D1FF019860B18021DD
:1013E0000DF15300FEF72DFF05462812FFF7ABF96C
:1013F000E8B2FFF7A8F908E080210DF15300FEF7ED
:1014000014FF03900398FFF79EF942F2107102A8AF
:10141000FFF7DBF830B99DF80800062803D14FF03C
:10142000010800E0641CB8F1000F01D10A2CD0D3F0
:101430000A2C04D3E0B20DF2644DBDE8F08FDDF864
:1014400058A4DDF860944FF0010B59E00BF0FF0257
:101450004B4614A95046FFF7D9FC4FF00008002076
:101460008DF80800002400BFB9F5806F02D34FF457
:10147000806700E08027F81C81B214A8FFF77EFF88
:10148000019860B139460DF15300FEF7DAFE0546CA
:101490002812FFF758F9E8B2FFF755F908E0394686
:1014A0000DF15300FEF7C1FE03900398FFF74BF9CF
:1014B000544902A8FFF789F8C0B99DF8080006282A
:1014C00014D14FF00108B9450CD9BA44A9EB07096A
:1014D000BBF1340F01D1FF20ADE70BF101001FFA82
:1014E00080FB04E0BA444FF0000900E0641CB8F14E
:1014F000000F01D10A2CB7D30A2C01D3E0B29AE72E
:10150000B9F1000FA2D14FF0000800208DF80800BB
:10151000002400BF0420FFF716F942F2107102A860
:10152000FFF753F830B99DF80800062802D14FF0B4
:10153000010800E0641CB8F1000F01D10A2CE9D3C6
:101540000A2C01D3E0B276E74FF0000800208DF8B6
:101550000800002401208DF8500000208DF8510073
:10156000FF208DF85200032604E0002014A98855BE
:10157000701CC6B2832EF8DB00BF832114A8FFF7CE
:10158000FDFE80210DF15300FEF75BFE054628129B
:10159000FFF7D9F8E8B2FFF7D6F842F2107102A8C7
:1015A000FFF713F830B99DF80800062803D14FF073
:1015B000010800E0641CB8F1000F01D10A2CDCD353
:1015C0000A2C01D3E0B236E700BF0420FFF7BBF8D6
:1015D00042F2107102A8FEF7F8FF30B99DF808003A
:1015E000062802D14FF0010800E0641CB8F1000F9A
:1015F00001D10A2CE9D30A2C01D3E0B21BE7002069
:1016000019E70000A08601000FB4054B10B503A92F
:10161000044A029800F04CF810BC5DF814FB00007E
:101620004D1F0008580000200FB4084B10B504A946
:1016300002AA039800F03CF8044602A9002000F03A
:1016400097F9204610BC5DF814FB000071190008E2
:1016500000BF00BF00BFBFF34F8F00BF00BF00BF80
:101660000948006800F4E06008490843001D064985
:10167000086000BF00BF00BFBFF34F8F00BF00BFB7
:1016800000BF00BF00BFFDE70CED00E00000FA0561
:1016900002E008C8121F08C1002AFAD1704770473B
:1016A000002001E001C1121F002AFBD17047000099
:1016B0002DE9FF4F8DB09B460F460446002606E0FD
:1016C00025280BD05A460F999047641C761C207829
:1016D0000028F5D111B03046BDE8F08F0025A846AE
:1016E0000122984900E0054314F8013F203B02FA2B
:1016F00003F00842F7D120782E2817D114F8010FF3
:1017000045F004052A280ED06FF02F022078A0F1B2
:10171000300109290AD808EB880102EB410100EBEE
:101720000108641CF2E757F8048B641C20786C28CD
:101730000DD004DC4C2812D06A2811D104E07428A2
:101740000DD07A280CD10AE045F4001507E0617845
:1017500045F48015814202D1641C05F58015641C96
:101760002278692A45D008DC002AB3D0582A69D0EB
:10177000632A10D0642A08D13BE0702A67D0732A0C
:1017800013D0752A5CD0782A5CD010465A460F993F
:101790009047761CD3E017F8040B8DF8000000206A
:1017A0008DF80100E946012003E057F8049B4FF053
:1017B000FF3069074FF0000501D40AE06D1C454574
:1017C0000DDA8542FADB19F805100029F6D106E09A
:1017D0006D1C8542FCDB19F805100029F8D12E4458
:1017E00004E019F8010B5A460F9990476D1EF8D284
:1017F000A5E00A200021CDE90801C5F30250022826
:101800000DD001CFC117031E71F100030DDA4FF0A7
:10181000000CD0EB0C006CEB01012D2308E0FF1D48
:1018200027F00707F7E80201EDE72B0504D52B2386
:101830008DF8283001233BE0EB0739D02023F7E770
:101840000A2000E010200021CDE9080107E0102067
:10185000002145F00405CDE908014FF00808C5F363
:10186000025002280FD001CF00214FF0000A2B07B1
:101870001FD5702A0DD0DDE908C38CF0100C5CEA8E
:10188000030C0CD015E0FF1D27F00707F7E8020155
:10189000EBE740228DF828204FF0010A0BE050EAD8
:1018A000010306D030238DF828308DF8292002233B
:1018B0009A46582A04D024A20DF120090B9209E07F
:1018C00026A2F9E7DDE90823FEF74AFC0B9B9B5CA7
:1018D00009F8013D50EA0102F4D1ADEB09002030D6
:1018E0000890680701D44FF001080899884502DD87
:1018F000A8EB010000E000208046002506E00AA8D1
:101900005A46405D0F9990476D1C761C5545F6DB95
:1019100004E030205A460F999047761CB8F1000138
:10192000A8F10108F5DC05E019F8010B5A460F99FA
:101930009047761C0899481E08900029F4DC641C26
:10194000C5E600000928010030313233343536371E
:1019500038396162636465660000000030313233FB
:10196000343536373839414243444546000000009B
:101970000A68531C0B6010707047000010B511A06E
:10198000FFF7C8F81A48FFF7C5F81A48FFF7C2F87A
:101990001948FFF7BFF81748FFF7BCF817A0FFF783
:1019A000B9F81B480068FFF7B5F81AA0FFF7B2F8BE
:1019B00004A0FFF7AFF81DA0FFF7ACF8FEF7CCFDD1
:1019C00010BD00000D0A3D3D3D3D3D3D3D3D3D3DD1
:1019D0003D3D3D3D3D3D3D3D3D3D3D3D3D3D3D3D37
:1019E0003D3D3D3D3D3D3D3D3D3D3D3D3D3D0000A1
:1019F000702F0008282F0008B82F00080D0A3D207E
:101A00002020202042792044617A6869200000006B
:101A10002400002020202020202020202020202002
:101A20002020202020202020203D00000D0A0D0A2B
:101A3000000000002DE9F0474FF00008484DDFF8A6
:101A400024A14FF0000900F0FFF928686FF310009F
:101A5000B0F1005F08D0296843A0FFF7D5FD00F082
:101A6000F3FD0220BDE8F08768686FF30B003D4985
:101A7000884207D0696844A0FFF7C6FD00F0E4FD86
:101A80000220EFE74A480068B0F5806F02DD484861
:101A9000006802E04748006840680646B6F5806F77
:101AA00002D3B6F5504F01D94FF450463246314675
:101AB00041A0FFF7A9FD2FE0002415E015F809006B
:101AC000494908550846005DFF2807D108F1010083
:101AD00000F0FF08B8F1100F02DB08E04FF000083B
:101AE000601C84B209F10109B4F5806FE6DB00BF28
:101AF000504600F033F9002708E03B48C1595046F2
:101B000000F0C4F90AF1040A381D87B2A742F4DBD9
:101B1000B8F1100F00DB01E0B145CDD300BF00F0FC
:101B200093FD00BF00BF00BF00BF00BFBFF34F8FDA
:101B300000BF00BF00BF2D48006800F4E0602C49E2
:101B40000843001D2949086000BF00BF00BFBFF364
:101B50004F8F00BF00BF00BF00BF00BFFDE7000008
:101B600000300108006000086E6F742075706461B9
:101B70007465202A646F776E6C6F61645F61646462
:101B800072202523780D0A006E6F742075706461D1
:101B900074652033202A646F776E6C6F61645F61B7
:101BA0006464722B34203D202523780D0A00000048
:101BB0002000002050000020666C6173685F646F35
:101BC000776E6C6F61645F636F7079746F5F617063
:101BD000702073697A65203D20252378202F2F20DF
:101BE00025640D0A000000005C0000200CED00E000
:101BF0000000FA0500B50346012200BF00F00CF812
:101C000002465B1E012A01D1002BF7D1012A00D127
:101C10000422104600BD000000200A49C96801F0F6
:101C2000010109B101200CE00649C96801F0100169
:101C300009B1032005E00349C96801F0040101B1BD
:101C4000022070470020024000B50346012200BF79
:101C500000F00CF802465B1E012A01D1002BF7D1DF
:101C6000012A00D10422104600BD000000200A49CC
:101C7000C96C01F0010109B101200CE00649C96CF1
:101C800001F0100109B1032005E00349C96C01F01E
:101C9000040101B1022070470020024070B50446E3
:101CA0000D4600262A480088B0F5007F35D2294825
:101CB000844219D24FF47020FFF79CFF0646002E95
:101CC00043D12548006940F001002349086125807F
:101CD0004FF47020FFF78EFF06461F48006920F082
:101CE00001001D49086130E04FF47020FFF7ACFFA0
:101CF000064656BB1848006D40F0010016490865BD
:101D000025804FF47020FFF79FFF06461248006DB4
:101D100020F001001049086517E04FF47020FFF72C
:101D200069FF06468EB90C48006940F001000A4977
:101D3000086125804FF47020FFF75CFF06460648D7
:101D4000006920F0010004490861304670BD0000C0
:101D5000E0F7FF1FFFFF07080020024030B50546EF
:101D600036480088B0F5007F48D9354885421ED2F4
:101D70004FF47020FFF73EFF0446002C5BD1314842
:101D8000006940F002002F4908610846456100697A
:101D900040F0400008614FF47020FFF72BFF04462D
:101DA0002848006920F002002649086143E04FF40A
:101DB0007020FFF749FF0446002C3CD12148006DFC
:101DC00040F002001F49086508464565C06900F0FB
:101DD000020008B1084645611A48006D40F0400015
:101DE000184908654FF47020FFF72EFF0446154888
:101DF000006D20F00200134908651CE04FF47020CC
:101E0000FFF7F8FE0446B4B90E48006940F002003E
:101E10000C49086108464561006940F040000861CE
:101E20004FF47020FFF7E6FE04460648006920F0F4
:101E3000020004490861204630BD0000E0F7FF1FA2
:101E4000FFFF0708002002400C48006900F08000F6
:101E500020B10B48094948600A4848600A48008890
:101E6000B0F5007F09D90548006D00F0800020B171
:101E70000348024948640348486470470020024010
:101E800023016745AB89EFCDE0F7FF1F70B504462E
:101E90000D4600262A480088B0F5007F35D929482C
:101EA000844219D24FF47020FFF7A4FE0646002E9C
:101EB00043D12548006940F00100234908612560AD
:101EC0004FF47020FFF796FE06461F48006920F089
:101ED00001001D49086130E04FF47020FFF7B4FEA7
:101EE000064656BB1848006D40F0010016490865CB
:101EF00025604FF47020FFF7A7FE06461248006DDC
:101F000020F001001049086517E04FF47020FFF73A
:101F100071FE06468EB90C48006940F001000A497E
:101F2000086125604FF47020FFF764FE06460648FE
:101F3000006920F0010004490861304670BD0000CE
:101F4000E0F7FF1FFFFF07080020024070B50446BE
:101F50000D46E0B2FEF742FD204670BD30B50246A8
:101F60000B46164C002145F25550154D286000BF18
:101F70001348C06800F00101601E041E01D0002952
:101F8000F6D109B1002030BD0D4843600B4C00BFB5
:101F90000B48C06800F00201601E041E01D0002939
:101FA000F6D109B10020EEE7C2F30B00044DA860A2
:101FB0004AF6AA2028600120E5E70000FFFF0F0095
:101FC000003000404CF6CC400149086070470000EA
:101FD0000030004045F2555001490860704700004C
:101FE0000030004008B56846FEF7C2FC00283BD030
:101FF0009DF80000312810D1002000F0EFFC0020F7
:102000001A490870FEF7A6FB00282DD118A0FFF78B
:10201000FBFA00F019FBFFF71BFB9DF800003228CC
:1020200005D1002000F0DAFCFEF7F8FC1CE09DF87A
:102030000000332805D101200C49087000F092F807
:1020400012E09DF80000342801D1FFF701FB9DF854
:102050000000352806D10D480068012802D1FEF79E
:1020600021F901E000F024FD08BD00002800002057
:10207000646562756720756172742075706461743F
:102080006520646F6E65210D0A00000010000020BD
:10209000F8B52D4D00266846FEF77CFC002852D08E
:1020A0009DF80000A52802D10020284908709DF85D
:1020B00000002749254A12788854244800780428CB
:1020C0003EDA22480078401C204908700846007813
:1020D000042838D11FA0FFF797FA1D4840784A28F6
:1020E0002AD11B488078D0B91948C078EF2816D17A
:1020F000FF265A20FEF782FCA520FEF77FFC002475
:1021000007E0285DFEF77AFC285D3044C6B2601C0B
:10211000C4B2202CF5DB3046FEF770FC0CE00C4816
:102120008078012808D10A48C078F02804D101201D
:102130000B49087000F016F800200449087002E00E
:10214000002002490870F8BD005E00081C00002055
:1021500014000020696E646578203D20340D0A006B
:102160002800002010B50CA0FFF74EFA0F480068B9
:1021700040884FF6FF71884205D1FFF765FEFF21C9
:102180000B48FFF78BFDFEF7E5FA18B900F024FACB
:10219000FFF750FC002010BD676F746F5F6F7461B4
:1021A0005F757064617465200D0A000050000020A6
:1021B000025C00084161704701617047F0B5044658
:1021C00016460025002201F00F0501F0100707B1A7
:1021D000354300201EE0012787401F40C7B1226819
:1021E0004FEA800C0F2707FA0CF7BA43870005FA6D
:1021F00007F73A43282904D1012787401F40676128
:1022000005E0482903D1012787401F40276122604C
:10221000471CB8B20828DED3082022E001278740F7
:102220001F40E7B16268A0F108074FEA870C0F274B
:1022300007FA0CF7BA43A0F10807BF0005FA07F741
:102240003A43282904D1012787401F40676105E0F0
:10225000482903D1012787401F4027616260471C3E
:10226000B8B21028DAD3F0BD0246D068084008B1F1
:10227000012070470020FCE7F0B50A460023002447
:102280000021002500F00046B6F1004F02D11D4E9E
:10229000F16901E01B4E7168C0F3034583B200F49D
:1022A0004016B6F5401F08D121F07061154E7668D2
:1022B00026F07066134F7E6012E000F48016B6F5CB
:1022C000801F06D1032606FA05F4A14341F0706190
:1022D00006E0460D360103FA06F6B14341F070619F
:1022E00022B1460D360103FA06F6314300F00046EE
:1022F000B6F1004F02D1034EF16101E0014E716071
:10230000F0BD00000000014010B50748006840889B
:102310004FF6FF71884204D004A0FEF7FBFB0120BA
:1023200010BD0020FCE70000500000203D69735FF5
:102330006D63755F6E6565645F757064617465205B
:1023400031203D3D3D3D0D0A0000000010B507481D
:10235000006800884FF6FF71884204D104A0FEF7A0
:10236000D9FB012010BD0020FCE700005000002038
:102370003D69735F6D63755F6E6565645F757064FD
:102380006174652031203D3D3D3D0D0A0000000097
:1023900010B5FFF71FFE042140F6FF70FFF7DEFDCA
:1023A000FFF710FE10BD000008B5002500244FF413
:1023B000A06000F063F94FF4C06000F0DFFA012183
:1023C0004448FFF759FFFEF769FCFEF7E7F842487B
:1023D000FEF708F84148FEF705F8FEF7ABF8FFF7FF
:1023E00033FD3FA0FEF796FB47480068FEF792FBDF
:1023F00046A0FEF78FFBFFF787FF58B1012000F0E2
:10240000EDFA43A0FEF786FB01204A490870FFF76A
:10241000A9FE22E0FFF79AFF28B147A0FEF77AFB5A
:10242000FFF708FB19E04DA0FEF774FB0CE06846CF
:10243000FEF79EFA28B19DF80000032801D101247F
:1024400007E00120FDF718FF2846691C8DB2C82857
:10245000EDDB00BF0CB1FFF791FA484800686FF35D
:102460001000B0F1005F02D0FEF776F808E04348B4
:1024700040686FF30B004149884201D0FEF76CF8C9
:102480003FA0FEF747FB3D48006846490840B0F1D1
:10249000005F11D1FFF77CFF38484068424908606F
:1024A00008460068414908603449086880F3088894
:1024B00000BF3E48006880473DA0FEF72BFB08E0C8
:1024C0003BA0FEF727FBFFF759FA4FF47A70FDF7B0
:1024D000D3FEF5E700023000003801400044004020
:1024E0000D0A6961702073746172742862792064C6
:1024F000617A6869406A63292C20696E6974206F6B
:102500006B21210D0A000000240000200D0A0000AC
:102510003D69735F6D63755F6E6565645F646F775A
:102520006E6C6F6164203D3D203120203D3D3D3D7E
:102530000D0A0000280000203D69735F6D63755F20
:102540006E6565645F757064617465203D3D203122
:1025500020203D3D3D3D0D0A000000003D676433F5
:102560003220626F6F746C6F616465722073746186
:1025700072743D3D3D3D3D3D0D0A00000060000888
:102580003D206764333220626F6F746C6F616465E5
:1025900072206175746F20626F6F743D3D3D3D3DEB
:1025A0003D0D0A000000FE2F040000200000002066
:1025B0003D206764333220626F6F746C6F616465B5
:1025C00072206572726F72207768696C6520313D88
:1025D0003D3D3D3D3D0D0A0070B5104DFFF734FC0B
:1025E0000FA0FEF797FA1548FFF7B8FB002407E0A5
:1025F000134801592846FFF749FC2D1D201DC4B280
:10260000202CF5DB0F480068B0F5806F05DD0D4824
:1026100001680A48001DFFF739FC70BD005E000824
:102620003D6D63755F646F776E6C6F61645F646F3F
:102630006E653D3D3D3D0D0A00000000005C000858
:102640005C0400202000002010B505A0FEF762FA0F
:10265000FFF7FAFBFF210848FFF720FB10BD000041
:102660003D6D63755F7570646174655F646F6E6501
:102670003D3D3D3D0D0A0000005C0008024901435C
:10268000024A1160704700000000FA050CED00E0FE
:1026900030B5A5254FF47020FFF7ACFA044600F0E2
:1026A0003DF800B1BB2554BB1A48006940F020003A
:1026B000184908610846006940F0400008614FF47D
:1026C0007020FFF797FA0446D4B91248006920F049
:1026D0002000104908610846006940F010000861B8
:1026E0000D4805804FF47020FFF784FA0446042C4F
:1026F0000ED00848006920F010000649086107E084
:10270000042C05D00348006920F01000014908613D
:10271000204630BD0020024000F8FF1F0020044981
:10272000C96901F0020109B1012000E000207047F1
:10273000002002400248C069C0F3870070470000D3
:10274000002002402DE9F04305460E461746984604
:1027500000244FF47020FFF74DFA0446DCB90F480F
:10276000006940F010000D49086148EA0500304357
:10277000384340F0F0090A48A0F800904FF4702068
:10278000FFF738FA0446042C05D00448006920F00D
:102790001000024908612046BDE8F0830020024095
:1027A00002F8FF1F2DE9F04304464FF47020FFF7B5
:1027B00021FA0546E443E6B2C4F30727C4F3074809
:1027C0004FEA1469DDBB1F48006940F010001D4945
:1027D0000861FF2E06D01C4806804FF47020FFF7DA
:1027E00009FA05464DB9FF2F07D01748801C07800E
:1027F0004FF47020FFF7FEF905465DB9B8F1FF0F01
:1028000008D01148001DA0F800804FF47020FFF799
:10281000F1F905465DB9B9F1FF0F08D00A48801DEE
:10282000A0F800904FF47020FFF7E4F90546042D5E
:1028300005D00448006920F01000024908612846CC
:10284000BDE8F0830020024008F8FF1F0148006A3D
:1028500070470000002002402DE9F04F8BB0074682
:10286000002009903EA090E8004CC068CDE905BE6C
:10287000CDF810A007900FF2EC0ADAE9000ACDE9D2
:10288000020A0FF2E00ADAE9000ACDE9000A384844
:102890004068C0F381000A900A9820B1012804D052
:1028A000022829D103E0334928E0324926E03048A4
:1028B000406800F48038B8F5803F09D12D4C2C4891
:1028C000406800F40039B9F5003F02D1641000E01F
:1028D000294C27484068C0F383422548406800F0EF
:1028E000006008B142F010020F2A01D2921C00E0F1
:1028F000521C04FB02F101E01E4900BF00BF1C484E
:102900004068C0F3031504A8465D21FA06F3184891
:102910004068C0F3022502A8465D23FA06FC14486D
:102920004068C0F3C2251DF8056023FA06F0089040
:1029300037B1012F06D0022F06D0032F0AD106E0AF
:10294000099108E0099306E0CDF824C003E0089857
:10295000099000E000BF00BF09980BB0BDE8F08F00
:10296000000000000000000001020304060708093F
:102970000010024000127A0000093D00064A02EBF6
:102980009011096800F01F0301229A401143024B85
:1029900003EB90121160704700100240064A02EBF0
:1029A0009011096800F01F0301229A409143024BE5
:1029B00003EB90121160704700100240064A02EBD0
:1029C0009011096800F01F0301229A401143024B45
:1029D00003EB9012116070470010024018B90449CF
:1029E000044A116002E00449024A11607047000085
:1029F000003801404C00002000440040002000212D
:102A0000264A126842F00102244B1A6000BF401CA3
:102A1000224A126802F0020111B9B0F5A06FF6D196
:102A20001E4A126802F002020AB900BFFEE71B4A02
:102A300052681A4B5A601A4652685A601A465268CF
:102A400042F480625A601A465268154B1A40134B82
:102A50005A601A465268134B1A43104B5A601A4672
:102A6000126842F080721A6000BF0C4A126802F0CD
:102A70000072002AF9D0094A526822F00302074B7B
:102A80005A601A46526842F002025A6000BF034A76
:102A9000526802F00802002AF9D070470010024084
:102AA000FFFFC3F70000280810B5FFF7A7FF10BD10
:102AB00010B5FFF7CBFE13490968084011490968B2
:102AC000884203D001201049086002E000200E492E
:102AD00008600EA0FEF71EF81CA0FEF71BF82848A1
:102AE000FEF718F82748FEF715F827A0FEF712F8AA
:102AF0000548006810B12DA0FEF70CF834A0FEF7D1
:102B000009F810BD0C000020100000200D0A3D3D0A
:102B10003D3D3D3D3D3D3D3D3D3D3D3D3D3D3D3DE5
:102B2000204D61696E204D656E75203D3D3D3D3DFA
:102B30003D3D3D3D3D3D3D3D3D3D3D3D3D3D3D3DC5
:102B40003D3D3D3D3D3D3D0D0A000000312E202024
:102B5000446F776E6C6F616420496D6167652054C6
:102B60006F207468652047443332463130782049FD
:102B70006E7465726E616C20466C6173680D0A003C
:102B8000DC2D00086C2E0008342E20205265626F68
:102B90006F74207468652073797374656D202C20C0
:102BA00052756E20415050200D0A0000352E202015
:102BB00044697361626C652074686520777269741A
:102BC000652070726F74656374696F6E0D0A000022
:102BD0003D3D3D3D3D3D3D3D3D3D3D3D3D3D3D3D25
:102BE0003D3D3D3D3D3D3D3D3D3D3D3D3D3D3D3D15
:102BF0003D3D3D3D3D3D3D3D3D3D3D3D3D3D3D3D05
:102C00003D3D3D3D3D3D3D3D3D3D0D0A000000004B
:102C10002DE9F04704460D460027B846B946002680
:102C20001D49601A8C421CD006DC1C48204470B13F
:102C3000B0F5806F1FD10FE0B0F5806F16D0B0F502
:102C40006C4F18D10320FFF707FE074614E002205F
:102C5000FFF702FE07460FE00220FFF7FDFD0746E3
:102C60000AE00220FFF7F8FD074605E00220FFF723
:102C7000F3FD074600E000BF00BF07EB5500B0FBC7
:102C8000F5F64FF6F07006EA000806F00F0948EA7C
:102C90000900A060BDE8F087004C004000BCFFBF09
:102CA00001464868C0F308007047C1F3080242605B
:102CB0007047000010B504462049601A8C4228D0A5
:102CC00006DC1F48204490B1B0F5806F33D117E087
:102CD000B0F5806F26D0B0F56C4F2CD140F20E309D
:102CE000FFF76CFE40F20E30FFF758FE24E040F292
:102CF0001140FFF763FE40F21140FFF74FFE1BE06B
:102D000040F21240FFF75AFE40F21240FFF746FE33
:102D100012E040F21340FFF751FE40F21340FFF77C
:102D20003DFE09E040F21440FFF748FE40F2144037
:102D3000FFF734FE00E000BF00BF10BD004C0040B4
:102D400000BCFFBFC16841F40051C160704710B5BD
:102D5000024602EB9110006801F01F040123A3401A
:102D6000184008B1012010BD0020FCE70A460021F0
:102D7000416921F400711143416170470A46002105
:102D8000416921F48071114341617047C26822F4A6
:102D9000C062C260C2680A43C26070470A4600212E
:102DA000C16821F004011143C1607047026922F437
:102DB0004052026102690A43026170470A460021DB
:102DC000C16821F008011143C1607047C26822F454
:102DD0008052C260C2680A43C2607047322E20200F
:102DE00055706C6F616420496D6167652046726F34
:102DF0006D2074686520474433324631307820496D
:102E00006E7465726E616C20466C61736820286414
:102E10006562756720207561727430290D0A0000A3
:102E20002E2E2E616E6420612053797374656D209F
:102E300052657365742077696C6C206265206765E4
:102E40006E65726174656420746F2072652D6C6F9D
:102E5000616420746865206E6577206F7074696F97
:102E60006E2062797465730D0A000000332E2020F5
:102E7000446F776E6C6F616420496D6167652054A3
:102E80006F207468652047443332463130782049DA
:102E90006E7465726E616C20466C61736820667238
:102EA0006F6D20726B3333393920756172740D0A7E
:102EB000000000000A0A0D2050726F6772616D6D8C
:102EC000696E6720436F6D706C657465642053751F
:102ED000636365737366756C6C79210A0D2D2D2DF6
:102EE0002D2D2D2D2D2D2D2D2D2D2D2D2D2D2D2D12
:102EF0002D2D2D2D2D2D2D2D2D2D2D2D2D0D0A2052
:102F00004E616D653A2000004275696C6474696DAC
:102F100065203A417072203237203230323320300F
:102F2000393A31373A3533000D0A3D202020202030
:102F30002020202020202020202020202020202091
:102F40002020202020202020202020202020202081
:102F50002020202020202020202020202020202071
:102F6000202020202020202020202020203D000084
:102F70000D0A3D2020202020202020202020284332
:102F80002920434F50595249474854203230323358
:102F90002048754E616E48544A432042592064616E
:102FA0007A68692020202020202020202020202036
:102FB00020202020203D00000D0A3D202020202040
:102FC000496E2D4170706C69636174696F6E205039
:102FD000726F6772616D6D696E67204170706C69A8
:102FE000636174696F6E20202856657273696F6E15
:102FF00020332E332E31292020202020203D000098
:1030000020300008000000205C000000901600083E
:103010007C3000085C00002064240000A01600083A
:1030200000000000000000000000000000000000A0
:103030000000000000000000000000000000000090
:1030400000000000082F00080000000000600008D9
:10305000000400000000000000000000000000006C
:1030600000000000000000000000000000440040DC
:0C307000005C000800F36F060000000088
:0400000508000105E9
:00000001FF
